{
  "abi": [
    {
      "inputs": [
        {
          "internalType": "address",
          "name": "protocolTreasury",
          "type": "address"
        }
      ],
      "stateMutability": "nonpayable",
      "type": "constructor"
    },
    {
      "inputs": [],
      "name": "AlreadyCreated",
      "type": "error"
    },
    {
      "inputs": [],
      "name": "InsufficientPayment",
      "type": "error"
    },
    {
      "inputs": [],
      "name": "RevenuePoolNotRegistered",
      "type": "error"
    },
    {
      "anonymous": false,
      "inputs": [
        {
          "indexed": true,
          "internalType": "address",
          "name": "creator",
          "type": "address"
        },
        {
          "indexed": true,
          "internalType": "address",
          "name": "share",
          "type": "address"
        },
        {
          "indexed": true,
          "internalType": "address",
          "name": "shareholder",
          "type": "address"
        },
        {
          "indexed": false,
          "internalType": "uint256",
          "name": "rewardsAmount",
          "type": "uint256"
        }
      ],
      "name": "RewardsClaimed",
      "type": "event"
    },
    {
      "anonymous": false,
      "inputs": [
        {
          "indexed": true,
          "internalType": "address",
          "name": "creator",
          "type": "address"
        },
        {
          "indexed": true,
          "internalType": "address",
          "name": "share",
          "type": "address"
        },
        {
          "indexed": true,
          "internalType": "address",
          "name": "shareholder",
          "type": "address"
        },
        {
          "indexed": false,
          "internalType": "uint256",
          "name": "rewardsAmount",
          "type": "uint256"
        },
        {
          "indexed": false,
          "internalType": "uint256",
          "name": "revenue",
          "type": "uint256"
        }
      ],
      "name": "RewardsDistributed",
      "type": "event"
    },
    {
      "anonymous": false,
      "inputs": [
        {
          "indexed": true,
          "internalType": "address",
          "name": "creator",
          "type": "address"
        },
        {
          "indexed": true,
          "internalType": "address",
          "name": "share",
          "type": "address"
        },
        {
          "indexed": true,
          "internalType": "address",
          "name": "revenuePool",
          "type": "address"
        },
        {
          "indexed": false,
          "internalType": "string",
          "name": "shareName",
          "type": "string"
        },
        {
          "indexed": false,
          "internalType": "string",
          "name": "shareSymbol",
          "type": "string"
        },
        {
          "indexed": false,
          "internalType": "uint256",
          "name": "feePoint",
          "type": "uint256"
        }
      ],
      "name": "ShareCreated",
      "type": "event"
    },
    {
      "anonymous": false,
      "inputs": [
        {
          "indexed": true,
          "internalType": "address",
          "name": "creator",
          "type": "address"
        },
        {
          "indexed": true,
          "internalType": "address",
          "name": "trader",
          "type": "address"
        },
        {
          "indexed": false,
          "internalType": "uint256",
          "name": "buyAt",
          "type": "uint256"
        },
        {
          "indexed": false,
          "internalType": "uint256",
          "name": "amount",
          "type": "uint256"
        },
        {
          "indexed": false,
          "internalType": "uint256",
          "name": "price",
          "type": "uint256"
        }
      ],
      "name": "SharesBought",
      "type": "event"
    },
    {
      "anonymous": false,
      "inputs": [
        {
          "indexed": true,
          "internalType": "address",
          "name": "creator",
          "type": "address"
        },
        {
          "indexed": true,
          "internalType": "address",
          "name": "trader",
          "type": "address"
        },
        {
          "indexed": false,
          "internalType": "uint256",
          "name": "sellAt",
          "type": "uint256"
        },
        {
          "indexed": false,
          "internalType": "uint256",
          "name": "amount",
          "type": "uint256"
        },
        {
          "indexed": false,
          "internalType": "uint256",
          "name": "price",
          "type": "uint256"
        }
      ],
      "name": "SharesSold",
      "type": "event"
    },
    {
      "anonymous": false,
      "inputs": [
        {
          "indexed": true,
          "internalType": "address",
          "name": "creator",
          "type": "address"
        },
        {
          "indexed": true,
          "internalType": "address",
          "name": "share",
          "type": "address"
        },
        {
          "indexed": true,
          "internalType": "address",
          "name": "shareholder",
          "type": "address"
        },
        {
          "indexed": false,
          "internalType": "uint256",
          "name": "sharesAmount",
          "type": "uint256"
        }
      ],
      "name": "SharesStaked",
      "type": "event"
    },
    {
      "anonymous": false,
      "inputs": [
        {
          "indexed": true,
          "internalType": "address",
          "name": "creator",
          "type": "address"
        },
        {
          "indexed": true,
          "internalType": "address",
          "name": "share",
          "type": "address"
        },
        {
          "indexed": true,
          "internalType": "address",
          "name": "shareholder",
          "type": "address"
        },
        {
          "indexed": false,
          "internalType": "uint256",
          "name": "sharesAmount",
          "type": "uint256"
        }
      ],
      "name": "SharesUnstaked",
      "type": "event"
    },
    {
      "inputs": [],
      "name": "BASE_FEE_POINT",
      "outputs": [
        {
          "internalType": "uint256",
          "name": "",
          "type": "uint256"
        }
      ],
      "stateMutability": "view",
      "type": "function"
    },
    {
      "inputs": [],
      "name": "CREATOR_PREMINT",
      "outputs": [
        {
          "internalType": "uint256",
          "name": "",
          "type": "uint256"
        }
      ],
      "stateMutability": "view",
      "type": "function"
    },
    {
      "inputs": [],
      "name": "PROTOCOL_FEE_POINT",
      "outputs": [
        {
          "internalType": "uint256",
          "name": "",
          "type": "uint256"
        }
      ],
      "stateMutability": "view",
      "type": "function"
    },
    {
      "inputs": [],
      "name": "PROTOCOL_TREASURY",
      "outputs": [
        {
          "internalType": "address",
          "name": "",
          "type": "address"
        }
      ],
      "stateMutability": "view",
      "type": "function"
    },
    {
      "inputs": [
        {
          "internalType": "address",
          "name": "creator",
          "type": "address"
        },
        {
          "internalType": "uint256",
          "name": "amount",
          "type": "uint256"
        }
      ],
      "name": "buyShares",
      "outputs": [],
      "stateMutability": "payable",
      "type": "function"
    },
    {
      "inputs": [
        {
          "internalType": "string",
          "name": "shareName",
          "type": "string"
        },
        {
          "internalType": "string",
          "name": "shareSymbol",
          "type": "string"
        },
        {
          "internalType": "uint256",
          "name": "feePoint",
          "type": "uint256"
        }
      ],
      "name": "createShare",
      "outputs": [],
      "stateMutability": "nonpayable",
      "type": "function"
    },
    {
      "inputs": [
        {
          "internalType": "address",
          "name": "shareholder",
          "type": "address"
        },
        {
          "internalType": "uint256",
          "name": "rewardsAmount",
          "type": "uint256"
        }
      ],
      "name": "emitRewardsClaimed",
      "outputs": [],
      "stateMutability": "nonpayable",
      "type": "function"
    },
    {
      "inputs": [
        {
          "internalType": "address",
          "name": "shareholder",
          "type": "address"
        },
        {
          "internalType": "uint256",
          "name": "rewardsAmount",
          "type": "uint256"
        },
        {
          "internalType": "uint256",
          "name": "revenueAmount",
          "type": "uint256"
        }
      ],
      "name": "emitRewardsDistributed",
      "outputs": [],
      "stateMutability": "nonpayable",
      "type": "function"
    },
    {
      "inputs": [
        {
          "internalType": "address",
          "name": "shareholder",
          "type": "address"
        },
        {
          "internalType": "uint256",
          "name": "sharesAmount",
          "type": "uint256"
        }
      ],
      "name": "emitSharesStaked",
      "outputs": [],
      "stateMutability": "nonpayable",
      "type": "function"
    },
    {
      "inputs": [
        {
          "internalType": "address",
          "name": "shareholder",
          "type": "address"
        },
        {
          "internalType": "uint256",
          "name": "sharesAmount",
          "type": "uint256"
        }
      ],
      "name": "emitSharesUnstaked",
      "outputs": [],
      "stateMutability": "nonpayable",
      "type": "function"
    },
    {
      "inputs": [
        {
          "internalType": "address",
          "name": "person",
          "type": "address"
        },
        {
          "internalType": "uint256",
          "name": "amount",
          "type": "uint256"
        }
      ],
      "name": "getBuyPrice",
      "outputs": [
        {
          "internalType": "uint256",
          "name": "",
          "type": "uint256"
        }
      ],
      "stateMutability": "view",
      "type": "function"
    },
    {
      "inputs": [
        {
          "internalType": "address",
          "name": "person",
          "type": "address"
        },
        {
          "internalType": "uint256",
          "name": "amount",
          "type": "uint256"
        }
      ],
      "name": "getBuyPriceAfterFee",
      "outputs": [
        {
          "internalType": "uint256",
          "name": "",
          "type": "uint256"
        }
      ],
      "stateMutability": "view",
      "type": "function"
    },
    {
      "inputs": [
        {
          "internalType": "uint256",
          "name": "supply",
          "type": "uint256"
        },
        {
          "internalType": "uint256",
          "name": "amount",
          "type": "uint256"
        }
      ],
      "name": "getPrice",
      "outputs": [
        {
          "internalType": "uint256",
          "name": "",
          "type": "uint256"
        }
      ],
      "stateMutability": "pure",
      "type": "function"
    },
    {
      "inputs": [
        {
          "internalType": "address",
          "name": "person",
          "type": "address"
        },
        {
          "internalType": "uint256",
          "name": "amount",
          "type": "uint256"
        }
      ],
      "name": "getSellPrice",
      "outputs": [
        {
          "internalType": "uint256",
          "name": "",
          "type": "uint256"
        }
      ],
      "stateMutability": "view",
      "type": "function"
    },
    {
      "inputs": [
        {
          "internalType": "address",
          "name": "person",
          "type": "address"
        },
        {
          "internalType": "uint256",
          "name": "amount",
          "type": "uint256"
        }
      ],
      "name": "getSellPriceAfterFee",
      "outputs": [
        {
          "internalType": "uint256",
          "name": "",
          "type": "uint256"
        }
      ],
      "stateMutability": "view",
      "type": "function"
    },
    {
      "inputs": [
        {
          "internalType": "address",
          "name": "creator",
          "type": "address"
        }
      ],
      "name": "getShareInfo",
      "outputs": [
        {
          "components": [
            {
              "internalType": "address",
              "name": "share",
              "type": "address"
            },
            {
              "internalType": "address",
              "name": "revenuePool",
              "type": "address"
            },
            {
              "internalType": "uint256",
              "name": "feePoint",
              "type": "uint256"
            },
            {
              "internalType": "uint256",
              "name": "totalValue",
              "type": "uint256"
            }
          ],
          "internalType": "struct IPyraMarket.ShareInfo",
          "name": "",
          "type": "tuple"
        }
      ],
      "stateMutability": "view",
      "type": "function"
    },
    {
      "inputs": [
        {
          "internalType": "address",
          "name": "creator",
          "type": "address"
        },
        {
          "internalType": "uint256",
          "name": "amount",
          "type": "uint256"
        }
      ],
      "name": "sellShares",
      "outputs": [],
      "stateMutability": "nonpayable",
      "type": "function"
    }
  ],
  "bytecode": {
    "object": "0x60a060405234801561001057600080fd5b506040516136fa3803806136fa83398101604081905261002f91610040565b6001600160a01b0316608052610070565b60006020828403121561005257600080fd5b81516001600160a01b038116811461006957600080fd5b9392505050565b60805161366161009960003960008181610307015281816109a20152610e0901526136616000f3fe608060405260043610620001135760003560e01c80636352cf2411620000a15780637ffb25ac116200006c5780637ffb25ac14620003965780639ae7178114620003b4578063aa4e67cf14620003d9578063b51d053414620003fe578063cdb8f5b9146200042357600080fd5b80636352cf2414620002f357806365c3c98114620003425780636945b123146200035a5780637649a441146200037157600080fd5b80634652234e11620000e25780634652234e14620001c157806348b160fa14620001e65780635cf4ee9114620002b65780636121852514620002db57600080fd5b806306187da814620001185780630f026f6d146200013f5780632267a89c14620001775780634635256e146200019c575b600080fd5b3480156200012557600080fd5b506200013d6200013736600462001194565b62000448565b005b3480156200014c57600080fd5b50620001646200015e36600462001194565b6200053e565b6040519081526020015b60405180910390f35b3480156200018457600080fd5b50620001646200019636600462001194565b620005d1565b348015620001a957600080fd5b5062000164620001bb36600462001194565b62000658565b348015620001ce57600080fd5b506200013d620001e0366004620011c3565b620006e6565b348015620001f357600080fd5b506200027462000205366004620011fb565b60408051608080820183526000808352602080840182905283850182905260609384018290526001600160a01b03958616825281815290849020845192830185528054861683526001810154909516908201526002840154928101929092526003909201549181019190915290565b6040516200016e919081516001600160a01b03908116825260208084015190911690820152604080830151908201526060918201519181019190915260800190565b348015620002c357600080fd5b5062000164620002d53660046200121b565b620007e1565b348015620002e857600080fd5b506200016461271081565b3480156200030057600080fd5b50620003297f000000000000000000000000000000000000000000000000000000000000000081565b6040516001600160a01b0390911681526020016200016e565b3480156200034f57600080fd5b50620001646103e881565b6200013d6200036b36600462001194565b62000841565b3480156200037e57600080fd5b506200013d6200039036600462001194565b62000a75565b348015620003a357600080fd5b5062000164670de0b6b3a764000081565b348015620003c157600080fd5b5062000164620003d336600462001194565b62000b63565b348015620003e657600080fd5b506200013d620003f836600462001194565b62000bf4565b3480156200040b57600080fd5b506200013d6200041d36600462001194565b62000ce2565b3480156200043057600080fd5b506200013d62000442366004620012e9565b62000f19565b3360009081526001602052604090205460ff166200047957604051634c909bbf60e01b815260040160405180910390fd5b6000336001600160a01b031663117803e36040518163ffffffff1660e01b8152600401602060405180830381865afa158015620004ba573d6000803e3d6000fd5b505050506040513d601f19601f82011682018060405250810190620004e091906200135d565b6001600160a01b03818116600081815260208181526040918290205491518781529495508784169491909316927f6ae36c9073d7fc358fdeb6d822b5c1b2941c23359a6306e5173da8378b001f1291015b60405180910390a4505050565b6000806200054d848462000658565b6001600160a01b03851660009081526020819052604081206002015491925090612710906200057d908462001393565b620005899190620013ad565b905060006127106200059e6103e88562001393565b620005aa9190620013ad565b905080620005b98385620013d0565b620005c59190620013d0565b93505050505b92915050565b600080620005e0848462000b63565b6001600160a01b038516600090815260208190526040812060020154919250906127109062000610908462001393565b6200061c9190620013ad565b90506000612710620006316103e88562001393565b6200063d9190620013ad565b9050806200064c8385620013e6565b620005c59190620013e6565b6001600160a01b038083166000908152602081815260408083205481516318160ddd60e01b815291519394620006df949116926318160ddd92600480820193918290030181865afa158015620006b2573d6000803e3d6000fd5b505050506040513d601f19601f82011682018060405250810190620006d89190620013fc565b83620007e1565b9392505050565b3360009081526001602052604090205460ff166200071757604051634c909bbf60e01b815260040160405180910390fd5b6000336001600160a01b031663117803e36040518163ffffffff1660e01b8152600401602060405180830381865afa15801562000758573d6000803e3d6000fd5b505050506040513d601f19601f820116820180604052508101906200077e91906200135d565b6001600160a01b038181166000818152602081815260409182902054825189815291820188905294955088841694909316927f731458e38a0dae8a07a09da6147de47bda6f8c2303dc5f34b28f9e3b6b50cb89910160405180910390a450505050565b600061c350670de0b6b3a764000080620007fb86620010ea565b620008116200080b8789620013d0565b620010ea565b6200081d9190620013e6565b620008299190620013ad565b620008359190620013ad565b620006df9190620013ad565b60006200084f838362000658565b6001600160a01b03841660009081526020819052604081206002015491925090612710906200087f908462001393565b6200088b9190620013ad565b90506000612710620008a06103e88562001393565b620008ac9190620013ad565b905080620008bb8385620013d0565b620008c79190620013d0565b341015620008e85760405163cd1c886760e01b815260040160405180910390fd5b6001600160a01b03858116600090815260208190526040908190205490516340c10f1960e01b8152336004820152602481018790529116906340c10f1990604401600060405180830381600087803b1580156200094457600080fd5b505af115801562000959573d6000803e3d6000fd5b50506040516001600160a01b038816925084156108fc02915084906000818181858888f1935050505015801562000994573d6000803e3d6000fd5b506040516001600160a01b037f0000000000000000000000000000000000000000000000000000000000000000169082156108fc029083906000818181858888f19350505050158015620009ec573d6000803e3d6000fd5b506001600160a01b0385166000908152602081905260408120600301805485929062000a1a908490620013d0565b9091555050604080514281526020810186905290810184905233906001600160a01b038716907f050bd6ef6b1b818f58ae43f028aa7318a580ca0c793eca2df0033c7ae6309458906060015b60405180910390a35050505050565b3360009081526001602052604090205460ff1662000aa657604051634c909bbf60e01b815260040160405180910390fd5b6000336001600160a01b031663117803e36040518163ffffffff1660e01b8152600401602060405180830381865afa15801562000ae7573d6000803e3d6000fd5b505050506040513d601f19601f8201168201806040525081019062000b0d91906200135d565b6001600160a01b03818116600081815260208181526040918290205491518781529495508784169491909316927f5637d7f962248a7f05a7ab69eec6446e31f3d0a299d997f135a65c62806e7891910162000531565b6001600160a01b038083166000908152602081815260408083205481516318160ddd60e01b815291519394620006df94879492909116926318160ddd9260048083019391928290030181865afa15801562000bc2573d6000803e3d6000fd5b505050506040513d601f19601f8201168201806040525081019062000be89190620013fc565b620006d89190620013e6565b3360009081526001602052604090205460ff1662000c2557604051634c909bbf60e01b815260040160405180910390fd5b6000336001600160a01b031663117803e36040518163ffffffff1660e01b8152600401602060405180830381865afa15801562000c66573d6000803e3d6000fd5b505050506040513d601f19601f8201168201806040525081019062000c8c91906200135d565b6001600160a01b03818116600081815260208181526040918290205491518781529495508784169491909316927f4b211081a064a759af38fe2067d904fb5fbb64f28fb1588aedd216e3fdc73600910162000531565b600062000cf0838362000b63565b6001600160a01b038416600090815260208190526040812060020154919250906127109062000d20908462001393565b62000d2c9190620013ad565b9050600061271062000d416103e88562001393565b62000d4d9190620013ad565b6001600160a01b0386811660009081526020819052604090819020549051632770a7eb60e21b8152336004820152602481018890529293501690639dc29fac90604401600060405180830381600087803b15801562000dab57600080fd5b505af115801562000dc0573d6000803e3d6000fd5b50506040516001600160a01b038816925084156108fc02915084906000818181858888f1935050505015801562000dfb573d6000803e3d6000fd5b506040516001600160a01b037f0000000000000000000000000000000000000000000000000000000000000000169082156108fc029083906000818181858888f1935050505015801562000e53573d6000803e3d6000fd5b50336108fc8262000e658587620013e6565b62000e719190620013e6565b6040518115909202916000818181858888f1935050505015801562000e9a573d6000803e3d6000fd5b506001600160a01b0385166000908152602081905260408120600301805485929062000ec8908490620013e6565b9091555050604080514281526020810186905290810184905233906001600160a01b038716907fd8ed8c644e236a185ce47293a3daadbfaf53382f3f5823d6e2e2d315d9bcc77b9060600162000a66565b336000908152602081905260409020546001600160a01b03161562000f5157604051631ac1050b60e21b815260040160405180910390fd5b6000838360405162000f63906200115f565b62000f709291906200145e565b604051809103906000f08015801562000f8d573d6000803e3d6000fd5b506040516340c10f1960e01b8152336004820152670de0b6b3a764000060248201529091506001600160a01b038216906340c10f1990604401600060405180830381600087803b15801562000fe157600080fd5b505af115801562000ff6573d6000803e3d6000fd5b50505050600033306040516200100c906200116d565b6001600160a01b03928316815291166020820152604001604051809103906000f08015801562001040573d6000803e3d6000fd5b503360008181526020818152604080832080546001600160a01b03808a166001600160a01b03199283168117845560018085018054938b1693909416831790935560029093018b90558086529381905293829020805460ff191690941790935551939450929091907f49bdad58a1804f0cd55acb6f9b2600f906d8d30f5c3f23b41e7ed9b671d56a8f90620010db908a908a908a9062001490565b60405180910390a45050505050565b6000670de0b6b3a7640000821115620011575762001111670de0b6b3a764000083620013e6565b62001125670de0b6b3a764000084620013e6565b62001139670de0b6b3a764000085620013e6565b62001145919062001393565b62001151919062001393565b620005cb565b600092915050565b610cb380620014cb83390190565b6114ae806200217e83390190565b6001600160a01b03811681146200119157600080fd5b50565b60008060408385031215620011a857600080fd5b8235620011b5816200117b565b946020939093013593505050565b600080600060608486031215620011d957600080fd5b8335620011e6816200117b565b95602085013595506040909401359392505050565b6000602082840312156200120e57600080fd5b8135620006df816200117b565b600080604083850312156200122f57600080fd5b50508035926020909101359150565b634e487b7160e01b600052604160045260246000fd5b600082601f8301126200126657600080fd5b813567ffffffffffffffff808211156200128457620012846200123e565b604051601f8301601f19908116603f01168101908282118183101715620012af57620012af6200123e565b81604052838152866020858801011115620012c957600080fd5b836020870160208301376000602085830101528094505050505092915050565b600080600060608486031215620012ff57600080fd5b833567ffffffffffffffff808211156200131857600080fd5b620013268783880162001254565b945060208601359150808211156200133d57600080fd5b506200134c8682870162001254565b925050604084013590509250925092565b6000602082840312156200137057600080fd5b8151620006df816200117b565b634e487b7160e01b600052601160045260246000fd5b8082028115828204841417620005cb57620005cb6200137d565b600082620013cb57634e487b7160e01b600052601260045260246000fd5b500490565b80820180821115620005cb57620005cb6200137d565b81810381811115620005cb57620005cb6200137d565b6000602082840312156200140f57600080fd5b5051919050565b6000815180845260005b818110156200143e5760208185018101518683018201520162001420565b506000602082860101526020601f19601f83011685010191505092915050565b60408152600062001473604083018562001416565b828103602084015262001487818562001416565b95945050505050565b606081526000620014a5606083018662001416565b8281036020840152620014b9818662001416565b91505082604083015294935050505056fe60806040523480156200001157600080fd5b5060405162000cb338038062000cb38339810160408190526200003491620001a6565b818133806200005d57604051631e4fbdf760e01b81526000600482015260240160405180910390fd5b620000688162000091565b5060046200007783826200029f565b5060056200008682826200029f565b50505050506200036b565b600080546001600160a01b038381166001600160a01b0319831681178455604051919092169283917f8be0079c531659141344cd1fd0a4f28419497f9722a3daafe3b4186f6b6457e09190a35050565b634e487b7160e01b600052604160045260246000fd5b600082601f8301126200010957600080fd5b81516001600160401b0380821115620001265762000126620000e1565b604051601f8301601f19908116603f01168101908282118183101715620001515762000151620000e1565b816040528381526020925086838588010111156200016e57600080fd5b600091505b8382101562000192578582018301518183018401529082019062000173565b600093810190920192909252949350505050565b60008060408385031215620001ba57600080fd5b82516001600160401b0380821115620001d257600080fd5b620001e086838701620000f7565b93506020850151915080821115620001f757600080fd5b506200020685828601620000f7565b9150509250929050565b600181811c908216806200022557607f821691505b6020821081036200024657634e487b7160e01b600052602260045260246000fd5b50919050565b601f8211156200029a57600081815260208120601f850160051c81016020861015620002755750805b601f850160051c820191505b81811015620002965782815560010162000281565b5050505b505050565b81516001600160401b03811115620002bb57620002bb620000e1565b620002d381620002cc845462000210565b846200024c565b602080601f8311600181146200030b5760008415620002f25750858301515b600019600386901b1c1916600185901b17855562000296565b600085815260208120601f198616915b828110156200033c578886015182559484019460019091019084016200031b565b50858210156200035b5787850151600019600388901b60f8161c191681555b5050505050600190811b01905550565b610938806200037b6000396000f3fe608060405234801561001057600080fd5b50600436106100ea5760003560e01c8063715018a61161008c5780639dc29fac116100665780639dc29fac146101cd578063a9059cbb146101e0578063dd62ed3e146101f3578063f2fde38b1461022c57600080fd5b8063715018a6146101a25780638da5cb5b146101aa57806395d89b41146101c557600080fd5b806323b872dd116100c857806323b872dd14610142578063313ce5671461015557806340c10f191461016457806370a082311461017957600080fd5b806306fdde03146100ef578063095ea7b31461010d57806318160ddd14610130575b600080fd5b6100f761023f565b6040516101049190610782565b60405180910390f35b61012061011b3660046107ec565b6102d1565b6040519015158152602001610104565b6003545b604051908152602001610104565b610120610150366004610816565b6102eb565b60405160128152602001610104565b6101776101723660046107ec565b61030f565b005b610134610187366004610852565b6001600160a01b031660009081526001602052604090205490565b610177610325565b6000546040516001600160a01b039091168152602001610104565b6100f7610339565b6101776101db3660046107ec565b610348565b6101206101ee3660046107ec565b61035a565b610134610201366004610874565b6001600160a01b03918216600090815260026020908152604080832093909416825291909152205490565b61017761023a366004610852565b610368565b60606004805461024e906108a7565b80601f016020809104026020016040519081016040528092919081815260200182805461027a906108a7565b80156102c75780601f1061029c576101008083540402835291602001916102c7565b820191906000526020600020905b8154815290600101906020018083116102aa57829003601f168201915b5050505050905090565b6000336102df8185856103ab565b60019150505b92915050565b6000336102f98582856103bd565b61030485858561043b565b506001949350505050565b61031761049a565b61032182826104c7565b5050565b61032d61049a565b61033760006104fd565b565b60606005805461024e906108a7565b61035061049a565b610321828261054d565b6000336102df81858561043b565b61037061049a565b6001600160a01b03811661039f57604051631e4fbdf760e01b8152600060048201526024015b60405180910390fd5b6103a8816104fd565b50565b6103b88383836001610583565b505050565b6001600160a01b038381166000908152600260209081526040808320938616835292905220546000198114610435578181101561042657604051637dc7a0d960e11b81526001600160a01b03841660048201526024810182905260448101839052606401610396565b61043584848484036000610583565b50505050565b6001600160a01b03831661046557604051634b637e8f60e11b815260006004820152602401610396565b6001600160a01b03821661048f5760405163ec442f0560e01b815260006004820152602401610396565b6103b8838383610658565b6000546001600160a01b031633146103375760405163118cdaa760e01b8152336004820152602401610396565b6001600160a01b0382166104f15760405163ec442f0560e01b815260006004820152602401610396565b61032160008383610658565b600080546001600160a01b038381166001600160a01b0319831681178455604051919092169283917f8be0079c531659141344cd1fd0a4f28419497f9722a3daafe3b4186f6b6457e09190a35050565b6001600160a01b03821661057757604051634b637e8f60e11b815260006004820152602401610396565b61032182600083610658565b6001600160a01b0384166105ad5760405163e602df0560e01b815260006004820152602401610396565b6001600160a01b0383166105d757604051634a1406b160e11b815260006004820152602401610396565b6001600160a01b038085166000908152600260209081526040808320938716835292905220829055801561043557826001600160a01b0316846001600160a01b03167f8c5be1e5ebec7d5bd14f71427d1e84f3dd0314c0f7b2291e5b200ac8c7c3b9258460405161064a91815260200190565b60405180910390a350505050565b6001600160a01b03831661068357806003600082825461067891906108e1565b909155506106f59050565b6001600160a01b038316600090815260016020526040902054818110156106d65760405163391434e360e21b81526001600160a01b03851660048201526024810182905260448101839052606401610396565b6001600160a01b03841660009081526001602052604090209082900390555b6001600160a01b03821661071157600380548290039055610730565b6001600160a01b03821660009081526001602052604090208054820190555b816001600160a01b0316836001600160a01b03167fddf252ad1be2c89b69c2b068fc378daa952ba7f163c4a11628f55a4df523b3ef8360405161077591815260200190565b60405180910390a3505050565b600060208083528351808285015260005b818110156107af57858101830151858201604001528201610793565b506000604082860101526040601f19601f8301168501019250505092915050565b80356001600160a01b03811681146107e757600080fd5b919050565b600080604083850312156107ff57600080fd5b610808836107d0565b946020939093013593505050565b60008060006060848603121561082b57600080fd5b610834846107d0565b9250610842602085016107d0565b9150604084013590509250925092565b60006020828403121561086457600080fd5b61086d826107d0565b9392505050565b6000806040838503121561088757600080fd5b610890836107d0565b915061089e602084016107d0565b90509250929050565b600181811c908216806108bb57607f821691505b6020821081036108db57634e487b7160e01b600052602260045260246000fd5b50919050565b808201808211156102e557634e487b7160e01b600052601160045260246000fdfea2646970667358221220c037487a86e21f319c5269ae25f35e0c5358d86925558b6625080fdc8989d80464736f6c6343000815003360c060405234801561001057600080fd5b506040516114ae3803806114ae83398101604081905261002f91610062565b6001600160a01b039182166080521660a052610095565b80516001600160a01b038116811461005d57600080fd5b919050565b6000806040838503121561007557600080fd5b61007e83610046565b915061008c60208401610046565b90509250929050565b60805160a0516113ca6100e4600039600081816101c7015281816102c0015281816104740152818161051f0152818161068a015261086401526000818161010e01526104f401526113ca6000f3fe608060405234801561001057600080fd5b50600436106100a95760003560e01c806331852441116100715780633185244114610191578063474a04d7146101c257806375298734146101e9578063a694fc3a146101f1578063a92ae79614610204578063fb9321081461027857600080fd5b80630436f24c146100ae578063117803e3146101095780631e83409a1461014857806321efe200146101695780632e17de781461017c575b600080fd5b6100e46100bc3660046110ac565b6001602081905260009182526040909120805491810154600282015460039092015490919084565b6040805194855260208501939093529183015260608201526080015b60405180910390f35b6101307f000000000000000000000000000000000000000000000000000000000000000081565b6040516001600160a01b039091168152602001610100565b61015b6101563660046110ac565b61028b565b604051908152602001610100565b61015b6101773660046110ac565b610325565b61018f61018a3660046110c9565b610375565b005b61015b61019f3660046110e2565b600260209081526000938452604080852082529284528284209052825290205481565b6101307f000000000000000000000000000000000000000000000000000000000000000081565b6101306104dd565b61018f6101ff3660046110c9565b610592565b61024e61021236600461111b565b600360208181526000938452604080852090915291835291208054600182015460028301549383015460049093015460ff909216939092909185565b6040805195151586526020860194909452928401919091526060830152608082015260a001610100565b61015b61028636600461113d565b6106c1565b600080610297836108cb565b604051637649a44160e01b81526001600160a01b038581166004830152602482018390529192507f000000000000000000000000000000000000000000000000000000000000000090911690637649a44190604401600060405180830381600087803b15801561030657600080fd5b505af115801561031a573d6000803e3d6000fd5b509295945050505050565b6001600160a01b038116600090815260016020526040812054610348904261117f565b6001600160a01b0383166000908152600160208190526040909120015461036f9190611192565b92915050565b600061037f6104dd565b33600090815260016020819052604090912001549091508211156103b657604051633999656760e01b815260040160405180910390fd5b6103bf336108cb565b5033600090815260016020819052604082200180548492906103e290849061117f565b909155505060405163a9059cbb60e01b8152336004820152602481018390526001600160a01b0382169063a9059cbb906044016020604051808303816000875af1158015610434573d6000803e3d6000fd5b505050506040513d601f19601f8201168201806040525081019061045891906111a9565b5060405162c30fb560e31b8152336004820152602481018390527f00000000000000000000000000000000000000000000000000000000000000006001600160a01b0316906306187da8906044015b600060405180830381600087803b1580156104c157600080fd5b505af11580156104d5573d6000803e3d6000fd5b505050505050565b604051632458b07d60e11b81526001600160a01b037f0000000000000000000000000000000000000000000000000000000000000000811660048301526000917f0000000000000000000000000000000000000000000000000000000000000000909116906348b160fa90602401608060405180830381865afa158015610568573d6000803e3d6000fd5b505050506040513d601f19601f8201168201806040525081019061058c91906111cb565b51919050565b600061059c6104dd565b6040516370a0823160e01b815233600482015290915082906001600160a01b038316906370a0823190602401602060405180830381865afa1580156105e5573d6000803e3d6000fd5b505050506040513d601f19601f82011682018060405250810190610609919061124e565b101561062857604051633999656760e01b815260040160405180910390fd5b610631336108cb565b503360009081526001602081905260408220018054849290610654908490611267565b9091555061066f90506001600160a01b038216333085610903565b60405162c30fb560e31b8152336004820152602481018390527f00000000000000000000000000000000000000000000000000000000000000006001600160a01b0316906306187da8906044016104a7565b6000806106cd42610963565b9250505060058111156106f3576040516358672be160e01b815260040160405180910390fd5b600080610709610704426001610982565b610963565b506000828152600360209081526040808320848452909152902054919350915060ff1661075a5760008281526003602081815260408084208585529091528220479181019190915590546001909101555b600082815260036020818152604080842085855290915282206001810154910154610786908890611192565b6107909190611290565b60008481526003602090815260408083208684529091528120600401805492935083929091906107c1908490611267565b90915550506001600160a01b038716600090815260016020526040812060030180548392906107f1908490611267565b90915550506040516001600160a01b0388169082156108fc029083906000818181858888f1935050505015801561082c573d6000803e3d6000fd5b506108378787610a5b565b60405163232911a760e11b81526001600160a01b03888116600483015260248201889052604482018390527f00000000000000000000000000000000000000000000000000000000000000001690634652234e90606401600060405180830381600087803b1580156108a857600080fd5b505af11580156108bc573d6000803e3d6000fd5b50929998505050505050505050565b6000806108d783610325565b90506108e38382610b4a565b6001600160a01b0390921660009081526001602052604090204290555090565b604080516001600160a01b0385811660248301528416604482015260648082018490528251808303909101815260849091019091526020810180516001600160e01b03166323b872dd60e01b17905261095d908590610c55565b50505050565b60008080610975620151808504610cc2565b9196909550909350915050565b600080808061099c6109976201518088611290565b610cc2565b919450925090506000856109b160018561117f565b6109bc86600c611192565b6109c69190611267565b6109d0919061117f565b90506109dd600c82611290565b93506109ea600c826112a4565b6109f5906001611267565b92506000610a038585610d5e565b905080831115610a11578092505b610a1e62015180896112a4565b62015180610a2d878787610de4565b610a379190611192565b610a419190611267565b955087861115610a5057600080fd5b505050505092915050565b6000610a68426001610982565b9050600080610a7683610963565b50600082815260026020908152604080832084845282528083203384529091529020549193509150841115610abe576040516356e16dff60e11b815260040160405180910390fd5b83600080828254610acf919061117f565b9091555050600082815260026020908152604080832084845282528083206001600160a01b038916845290915281208054869290610b0e90849061117f565b90915550506001600160a01b03851660009081526001602052604081206002018054869290610b3e90849061117f565b90915550505050505050565b600080610b5642610963565b50600082815260026020908152604080832084845282528083206001600160a01b038a16845290915281205492945090925003610bca576001600160a01b03841660008181526001602090815260408083206002908101548785529083528184208685528352818420948452939091529020555b82600080828254610bdb9190611267565b9091555050600082815260026020908152604080832084845282528083206001600160a01b038816845290915281208054859290610c1a908490611267565b90915550506001600160a01b03841660009081526001602052604081206002018054859290610c4a908490611267565b909155505050505050565b6000610c6a6001600160a01b03841683610f21565b90508051600014158015610c8f575080806020019051810190610c8d91906111a9565b155b15610cbd57604051635274afe760e01b81526001600160a01b03841660048201526024015b60405180910390fd5b505050565b60008080836226496581018262023ab1600483020590506004600362023ab18302010590910390600062164b09610fa0600185010205905060046105b58202058303601f019250600061098f8460500281610d1f57610d1f61127a565b0590506000605061098f83020585039050600b820560301994909401606402929092018301996002600c90940290910392909201975095509350505050565b60008160011480610d6f5750816003145b80610d7a5750816005145b80610d855750816007145b80610d905750816008145b80610d9b575081600a145b80610da6575081600c145b15610db35750601f61036f565b81600214610dc35750601e61036f565b610dcc83610f36565b610dd757601c610dda565b601d5b60ff169392505050565b60006107b2841015610df557600080fd5b838383600062253d8c60046064600c610e0f600e886112b8565b610e1991906112df565b610e258861132461130d565b610e2f919061130d565b610e3991906112df565b610e44906003611335565b610e4e91906112df565b600c80610e5c600e886112b8565b610e6691906112df565b610e7190600c611335565b610e7c6002886112b8565b610e8691906112b8565b610e929061016f611335565b610e9c91906112df565b6004600c610eab600e896112b8565b610eb591906112df565b610ec1896112c061130d565b610ecb919061130d565b610ed7906105b5611335565b610ee191906112df565b610eed617d4b876112b8565b610ef7919061130d565b610f01919061130d565b610f0b91906112b8565b610f1591906112b8565b98975050505050505050565b6060610f2f83836000610f72565b9392505050565b6000610f436004836112a4565b158015610f595750610f566064836112a4565b15155b8061036f5750610f6b610190836112a4565b1592915050565b606081471015610f975760405163cd78605960e01b8152306004820152602401610cb4565b600080856001600160a01b03168486604051610fb39190611365565b60006040518083038185875af1925050503d8060008114610ff0576040519150601f19603f3d011682016040523d82523d6000602084013e610ff5565b606091505b509150915061100586838361100f565b9695505050505050565b6060826110245761101f8261106b565b610f2f565b815115801561103b57506001600160a01b0384163b155b1561106457604051639996b31560e01b81526001600160a01b0385166004820152602401610cb4565b5080610f2f565b80511561107b5780518082602001fd5b604051630a12f52160e11b815260040160405180910390fd5b50565b6001600160a01b038116811461109457600080fd5b6000602082840312156110be57600080fd5b8135610f2f81611097565b6000602082840312156110db57600080fd5b5035919050565b6000806000606084860312156110f757600080fd5b8335925060208401359150604084013561111081611097565b809150509250925092565b6000806040838503121561112e57600080fd5b50508035926020909101359150565b6000806040838503121561115057600080fd5b823561115b81611097565b946020939093013593505050565b634e487b7160e01b600052601160045260246000fd5b8181038181111561036f5761036f611169565b808202811582820484141761036f5761036f611169565b6000602082840312156111bb57600080fd5b81518015158114610f2f57600080fd5b6000608082840312156111dd57600080fd5b6040516080810181811067ffffffffffffffff8211171561120e57634e487b7160e01b600052604160045260246000fd5b604052825161121c81611097565b8152602083015161122c81611097565b6020820152604083810151908201526060928301519281019290925250919050565b60006020828403121561126057600080fd5b5051919050565b8082018082111561036f5761036f611169565b634e487b7160e01b600052601260045260246000fd5b60008261129f5761129f61127a565b500490565b6000826112b3576112b361127a565b500690565b81810360008312801583831316838312821617156112d8576112d8611169565b5092915050565b6000826112ee576112ee61127a565b600160ff1b82146000198414161561130857611308611169565b500590565b808201828112600083128015821682158216171561132d5761132d611169565b505092915050565b80820260008212600160ff1b8414161561135157611351611169565b818105831482151761036f5761036f611169565b6000825160005b81811015611386576020818601810151858301520161136c565b50600092019182525091905056fea2646970667358221220c6cae1b875621f2f01b96f4565db7bfa8a111cae5d70db8aaaa9869c8d77749b64736f6c63430008150033a2646970667358221220ada8c69c1256ed612532d83474069b4659000444bec192ee09922f2e05dd13ef64736f6c63430008150033",
    "linkReferences": {}
  },
  "methodIdentifiers": {
    "BASE_FEE_POINT()": "61218525",
    "CREATOR_PREMINT()": "7ffb25ac",
    "PROTOCOL_FEE_POINT()": "65c3c981",
    "PROTOCOL_TREASURY()": "6352cf24",
    "buyShares(address,uint256)": "6945b123",
    "createShare(string,string,uint256)": "cdb8f5b9",
    "emitRewardsClaimed(address,uint256)": "7649a441",
    "emitRewardsDistributed(address,uint256,uint256)": "4652234e",
    "emitSharesStaked(address,uint256)": "06187da8",
    "emitSharesUnstaked(address,uint256)": "aa4e67cf",
    "getBuyPrice(address,uint256)": "4635256e",
    "getBuyPriceAfterFee(address,uint256)": "0f026f6d",
    "getPrice(uint256,uint256)": "5cf4ee91",
    "getSellPrice(address,uint256)": "9ae71781",
    "getSellPriceAfterFee(address,uint256)": "2267a89c",
    "getShareInfo(address)": "48b160fa",
    "sellShares(address,uint256)": "b51d0534"
  },
  "id": 0
}