{
  "abi": [
    {
      "inputs": [
        {
          "internalType": "address",
          "name": "pyraMarket",
          "type": "address"
        },
        {
          "internalType": "address",
          "name": "protocolTreasury",
          "type": "address"
        }
      ],
      "stateMutability": "nonpayable",
      "type": "constructor"
    },
    {
      "inputs": [],
      "name": "ActionAlreadyExists",
      "type": "error"
    },
    {
      "inputs": [],
      "name": "ActionInvalid",
      "type": "error"
    },
    {
      "inputs": [],
      "name": "ActionNotExists",
      "type": "error"
    },
    {
      "inputs": [],
      "name": "ArrayLengthNotEqual",
      "type": "error"
    },
    {
      "inputs": [],
      "name": "ERC721EnumerableForbiddenBatchMint",
      "type": "error"
    },
    {
      "inputs": [
        {
          "internalType": "address",
          "name": "sender",
          "type": "address"
        },
        {
          "internalType": "uint256",
          "name": "tokenId",
          "type": "uint256"
        },
        {
          "internalType": "address",
          "name": "owner",
          "type": "address"
        }
      ],
      "name": "ERC721IncorrectOwner",
      "type": "error"
    },
    {
      "inputs": [
        {
          "internalType": "address",
          "name": "operator",
          "type": "address"
        },
        {
          "internalType": "uint256",
          "name": "tokenId",
          "type": "uint256"
        }
      ],
      "name": "ERC721InsufficientApproval",
      "type": "error"
    },
    {
      "inputs": [
        {
          "internalType": "address",
          "name": "approver",
          "type": "address"
        }
      ],
      "name": "ERC721InvalidApprover",
      "type": "error"
    },
    {
      "inputs": [
        {
          "internalType": "address",
          "name": "operator",
          "type": "address"
        }
      ],
      "name": "ERC721InvalidOperator",
      "type": "error"
    },
    {
      "inputs": [
        {
          "internalType": "address",
          "name": "owner",
          "type": "address"
        }
      ],
      "name": "ERC721InvalidOwner",
      "type": "error"
    },
    {
      "inputs": [
        {
          "internalType": "address",
          "name": "receiver",
          "type": "address"
        }
      ],
      "name": "ERC721InvalidReceiver",
      "type": "error"
    },
    {
      "inputs": [
        {
          "internalType": "address",
          "name": "sender",
          "type": "address"
        }
      ],
      "name": "ERC721InvalidSender",
      "type": "error"
    },
    {
      "inputs": [
        {
          "internalType": "uint256",
          "name": "tokenId",
          "type": "uint256"
        }
      ],
      "name": "ERC721NonexistentToken",
      "type": "error"
    },
    {
      "inputs": [
        {
          "internalType": "address",
          "name": "owner",
          "type": "address"
        },
        {
          "internalType": "uint256",
          "name": "index",
          "type": "uint256"
        }
      ],
      "name": "ERC721OutOfBoundsIndex",
      "type": "error"
    },
    {
      "inputs": [],
      "name": "InitializeActionFailed",
      "type": "error"
    },
    {
      "inputs": [],
      "name": "InsufficientPayment",
      "type": "error"
    },
    {
      "inputs": [],
      "name": "InvalidShortString",
      "type": "error"
    },
    {
      "inputs": [],
      "name": "InvalidTier",
      "type": "error"
    },
    {
      "inputs": [],
      "name": "NotAssetOwner",
      "type": "error"
    },
    {
      "inputs": [],
      "name": "NotZoneOwner",
      "type": "error"
    },
    {
      "inputs": [],
      "name": "ProcessActionFailed",
      "type": "error"
    },
    {
      "inputs": [],
      "name": "ReentrancyGuardReentrantCall",
      "type": "error"
    },
    {
      "inputs": [],
      "name": "ResourceNotExists",
      "type": "error"
    },
    {
      "inputs": [],
      "name": "SignatureExpired",
      "type": "error"
    },
    {
      "inputs": [],
      "name": "SignatureMismatch",
      "type": "error"
    },
    {
      "inputs": [
        {
          "internalType": "string",
          "name": "str",
          "type": "string"
        }
      ],
      "name": "StringTooLong",
      "type": "error"
    },
    {
      "inputs": [],
      "name": "TierkeyNotExpired",
      "type": "error"
    },
    {
      "inputs": [],
      "name": "TierkeyNotOwned",
      "type": "error"
    },
    {
      "inputs": [],
      "name": "ZoneAlreadyPublished",
      "type": "error"
    },
    {
      "inputs": [],
      "name": "ZoneNotTransferable",
      "type": "error"
    },
    {
      "anonymous": false,
      "inputs": [
        {
          "indexed": true,
          "internalType": "address",
          "name": "owner",
          "type": "address"
        },
        {
          "indexed": true,
          "internalType": "address",
          "name": "approved",
          "type": "address"
        },
        {
          "indexed": true,
          "internalType": "uint256",
          "name": "tokenId",
          "type": "uint256"
        }
      ],
      "name": "Approval",
      "type": "event"
    },
    {
      "anonymous": false,
      "inputs": [
        {
          "indexed": true,
          "internalType": "address",
          "name": "owner",
          "type": "address"
        },
        {
          "indexed": true,
          "internalType": "address",
          "name": "operator",
          "type": "address"
        },
        {
          "indexed": false,
          "internalType": "bool",
          "name": "approved",
          "type": "bool"
        }
      ],
      "name": "ApprovalForAll",
      "type": "event"
    },
    {
      "anonymous": false,
      "inputs": [
        {
          "indexed": true,
          "internalType": "bytes32",
          "name": "assetId",
          "type": "bytes32"
        },
        {
          "indexed": true,
          "internalType": "address",
          "name": "actor",
          "type": "address"
        },
        {
          "indexed": false,
          "internalType": "uint256",
          "name": "actAt",
          "type": "uint256"
        },
        {
          "indexed": false,
          "internalType": "address[]",
          "name": "actions",
          "type": "address[]"
        },
        {
          "indexed": false,
          "internalType": "bytes[]",
          "name": "actionProcessDatas",
          "type": "bytes[]"
        },
        {
          "indexed": false,
          "internalType": "bytes[]",
          "name": "actionReturnDatas",
          "type": "bytes[]"
        }
      ],
      "name": "AssetActed",
      "type": "event"
    },
    {
      "anonymous": false,
      "inputs": [
        {
          "indexed": true,
          "internalType": "bytes32",
          "name": "assetId",
          "type": "bytes32"
        },
        {
          "indexed": false,
          "internalType": "address[]",
          "name": "actions",
          "type": "address[]"
        },
        {
          "indexed": false,
          "internalType": "bytes[]",
          "name": "actionInitDatas",
          "type": "bytes[]"
        }
      ],
      "name": "AssetActionsAdded",
      "type": "event"
    },
    {
      "anonymous": false,
      "inputs": [
        {
          "indexed": true,
          "internalType": "bytes32",
          "name": "assetId",
          "type": "bytes32"
        },
        {
          "indexed": true,
          "internalType": "address",
          "name": "publisher",
          "type": "address"
        },
        {
          "indexed": true,
          "internalType": "uint256",
          "name": "publicationId",
          "type": "uint256"
        },
        {
          "indexed": false,
          "internalType": "uint256",
          "name": "publishAt",
          "type": "uint256"
        },
        {
          "indexed": false,
          "internalType": "bytes",
          "name": "data",
          "type": "bytes"
        },
        {
          "indexed": false,
          "internalType": "address[]",
          "name": "actions",
          "type": "address[]"
        },
        {
          "indexed": false,
          "internalType": "bytes[]",
          "name": "actionInitDatas",
          "type": "bytes[]"
        }
      ],
      "name": "AssetPublished",
      "type": "event"
    },
    {
      "anonymous": false,
      "inputs": [],
      "name": "EIP712DomainChanged",
      "type": "event"
    },
    {
      "anonymous": false,
      "inputs": [
        {
          "indexed": true,
          "internalType": "bytes32",
          "name": "assetId",
          "type": "bytes32"
        },
        {
          "indexed": true,
          "internalType": "uint256",
          "name": "tier",
          "type": "uint256"
        },
        {
          "indexed": true,
          "internalType": "uint256",
          "name": "keyId",
          "type": "uint256"
        },
        {
          "indexed": false,
          "internalType": "uint256",
          "name": "buyAt",
          "type": "uint256"
        },
        {
          "indexed": false,
          "internalType": "address",
          "name": "trader",
          "type": "address"
        },
        {
          "indexed": false,
          "internalType": "uint256",
          "name": "keyPrice",
          "type": "uint256"
        }
      ],
      "name": "TierkeyBought",
      "type": "event"
    },
    {
      "anonymous": false,
      "inputs": [
        {
          "indexed": true,
          "internalType": "bytes32",
          "name": "assetId",
          "type": "bytes32"
        },
        {
          "indexed": true,
          "internalType": "uint256",
          "name": "tier",
          "type": "uint256"
        },
        {
          "indexed": true,
          "internalType": "address",
          "name": "tierkey",
          "type": "address"
        },
        {
          "indexed": false,
          "internalType": "uint256",
          "name": "expiration",
          "type": "uint256"
        }
      ],
      "name": "TierkeyCreated",
      "type": "event"
    },
    {
      "anonymous": false,
      "inputs": [
        {
          "indexed": true,
          "internalType": "bytes32",
          "name": "assetId",
          "type": "bytes32"
        },
        {
          "indexed": true,
          "internalType": "uint256",
          "name": "tier",
          "type": "uint256"
        },
        {
          "indexed": true,
          "internalType": "uint256",
          "name": "keyId",
          "type": "uint256"
        },
        {
          "indexed": false,
          "internalType": "uint256",
          "name": "liquidateAt",
          "type": "uint256"
        },
        {
          "indexed": false,
          "internalType": "address",
          "name": "liquidator",
          "type": "address"
        },
        {
          "indexed": false,
          "internalType": "uint256",
          "name": "keyPrice",
          "type": "uint256"
        }
      ],
      "name": "TierkeyLiquidated",
      "type": "event"
    },
    {
      "anonymous": false,
      "inputs": [
        {
          "indexed": true,
          "internalType": "bytes32",
          "name": "assetId",
          "type": "bytes32"
        },
        {
          "indexed": true,
          "internalType": "uint256",
          "name": "tier",
          "type": "uint256"
        },
        {
          "indexed": true,
          "internalType": "uint256",
          "name": "keyId",
          "type": "uint256"
        },
        {
          "indexed": false,
          "internalType": "uint256",
          "name": "sellAt",
          "type": "uint256"
        },
        {
          "indexed": false,
          "internalType": "address",
          "name": "trader",
          "type": "address"
        },
        {
          "indexed": false,
          "internalType": "uint256",
          "name": "keyPrice",
          "type": "uint256"
        },
        {
          "indexed": false,
          "internalType": "uint256",
          "name": "depreciatedKeyPrice",
          "type": "uint256"
        }
      ],
      "name": "TierkeySold",
      "type": "event"
    },
    {
      "anonymous": false,
      "inputs": [
        {
          "indexed": true,
          "internalType": "address",
          "name": "from",
          "type": "address"
        },
        {
          "indexed": true,
          "internalType": "address",
          "name": "to",
          "type": "address"
        },
        {
          "indexed": true,
          "internalType": "uint256",
          "name": "tokenId",
          "type": "uint256"
        }
      ],
      "name": "Transfer",
      "type": "event"
    },
    {
      "inputs": [],
      "name": "BASE_FEE_POINT",
      "outputs": [
        {
          "internalType": "uint256",
          "name": "",
          "type": "uint256"
        }
      ],
      "stateMutability": "view",
      "type": "function"
    },
    {
      "inputs": [],
      "name": "OWNER_FEE_POINT",
      "outputs": [
        {
          "internalType": "uint256",
          "name": "",
          "type": "uint256"
        }
      ],
      "stateMutability": "view",
      "type": "function"
    },
    {
      "inputs": [],
      "name": "PROTOCOL_FEE_POINT",
      "outputs": [
        {
          "internalType": "uint256",
          "name": "",
          "type": "uint256"
        }
      ],
      "stateMutability": "view",
      "type": "function"
    },
    {
      "inputs": [],
      "name": "PROTOCOL_TREASURY",
      "outputs": [
        {
          "internalType": "address",
          "name": "",
          "type": "address"
        }
      ],
      "stateMutability": "view",
      "type": "function"
    },
    {
      "inputs": [],
      "name": "PYRA_MARKET",
      "outputs": [
        {
          "internalType": "contract PyraMarket",
          "name": "",
          "type": "address"
        }
      ],
      "stateMutability": "view",
      "type": "function"
    },
    {
      "inputs": [
        {
          "components": [
            {
              "internalType": "bytes32",
              "name": "assetId",
              "type": "bytes32"
            },
            {
              "internalType": "address[]",
              "name": "actions",
              "type": "address[]"
            },
            {
              "internalType": "bytes[]",
              "name": "actionProcessDatas",
              "type": "bytes[]"
            }
          ],
          "internalType": "struct IDataMonetizer.ActParams",
          "name": "actParams",
          "type": "tuple"
        }
      ],
      "name": "act",
      "outputs": [
        {
          "internalType": "bytes[]",
          "name": "",
          "type": "bytes[]"
        }
      ],
      "stateMutability": "payable",
      "type": "function"
    },
    {
      "inputs": [
        {
          "components": [
            {
              "internalType": "bytes32",
              "name": "assetId",
              "type": "bytes32"
            },
            {
              "internalType": "address[]",
              "name": "actions",
              "type": "address[]"
            },
            {
              "internalType": "bytes[]",
              "name": "actionProcessDatas",
              "type": "bytes[]"
            }
          ],
          "internalType": "struct IDataMonetizer.ActParams",
          "name": "actParams",
          "type": "tuple"
        },
        {
          "components": [
            {
              "internalType": "address",
              "name": "signer",
              "type": "address"
            },
            {
              "internalType": "uint8",
              "name": "v",
              "type": "uint8"
            },
            {
              "internalType": "bytes32",
              "name": "r",
              "type": "bytes32"
            },
            {
              "internalType": "bytes32",
              "name": "s",
              "type": "bytes32"
            },
            {
              "internalType": "uint256",
              "name": "deadline",
              "type": "uint256"
            }
          ],
          "internalType": "struct IDataMonetizer.EIP712Signature",
          "name": "signature",
          "type": "tuple"
        }
      ],
      "name": "actWithSig",
      "outputs": [
        {
          "internalType": "bytes[]",
          "name": "",
          "type": "bytes[]"
        }
      ],
      "stateMutability": "payable",
      "type": "function"
    },
    {
      "inputs": [
        {
          "components": [
            {
              "internalType": "bytes32",
              "name": "assetId",
              "type": "bytes32"
            },
            {
              "internalType": "address[]",
              "name": "actions",
              "type": "address[]"
            },
            {
              "internalType": "bytes[]",
              "name": "actionInitDatas",
              "type": "bytes[]"
            }
          ],
          "internalType": "struct IDataMonetizer.AddActionsParams",
          "name": "addActionsParams",
          "type": "tuple"
        }
      ],
      "name": "addActions",
      "outputs": [],
      "stateMutability": "nonpayable",
      "type": "function"
    },
    {
      "inputs": [
        {
          "components": [
            {
              "internalType": "bytes32",
              "name": "assetId",
              "type": "bytes32"
            },
            {
              "internalType": "address[]",
              "name": "actions",
              "type": "address[]"
            },
            {
              "internalType": "bytes[]",
              "name": "actionInitDatas",
              "type": "bytes[]"
            }
          ],
          "internalType": "struct IDataMonetizer.AddActionsParams",
          "name": "addActionsParams",
          "type": "tuple"
        },
        {
          "components": [
            {
              "internalType": "address",
              "name": "signer",
              "type": "address"
            },
            {
              "internalType": "uint8",
              "name": "v",
              "type": "uint8"
            },
            {
              "internalType": "bytes32",
              "name": "r",
              "type": "bytes32"
            },
            {
              "internalType": "bytes32",
              "name": "s",
              "type": "bytes32"
            },
            {
              "internalType": "uint256",
              "name": "deadline",
              "type": "uint256"
            }
          ],
          "internalType": "struct IDataMonetizer.EIP712Signature",
          "name": "signature",
          "type": "tuple"
        }
      ],
      "name": "addActionsWithSig",
      "outputs": [],
      "stateMutability": "nonpayable",
      "type": "function"
    },
    {
      "inputs": [
        {
          "internalType": "address",
          "name": "to",
          "type": "address"
        },
        {
          "internalType": "uint256",
          "name": "tokenId",
          "type": "uint256"
        }
      ],
      "name": "approve",
      "outputs": [],
      "stateMutability": "nonpayable",
      "type": "function"
    },
    {
      "inputs": [
        {
          "internalType": "address",
          "name": "",
          "type": "address"
        }
      ],
      "name": "assetIdByPublisher",
      "outputs": [
        {
          "internalType": "bytes32",
          "name": "",
          "type": "bytes32"
        }
      ],
      "stateMutability": "view",
      "type": "function"
    },
    {
      "inputs": [
        {
          "internalType": "address",
          "name": "owner",
          "type": "address"
        }
      ],
      "name": "balanceOf",
      "outputs": [
        {
          "internalType": "uint256",
          "name": "",
          "type": "uint256"
        }
      ],
      "stateMutability": "view",
      "type": "function"
    },
    {
      "inputs": [
        {
          "internalType": "bytes32",
          "name": "assetId",
          "type": "bytes32"
        },
        {
          "internalType": "uint256",
          "name": "tier",
          "type": "uint256"
        }
      ],
      "name": "buyTierkey",
      "outputs": [
        {
          "internalType": "uint256",
          "name": "",
          "type": "uint256"
        }
      ],
      "stateMutability": "payable",
      "type": "function"
    },
    {
      "inputs": [
        {
          "internalType": "bytes32",
          "name": "assetId",
          "type": "bytes32"
        },
        {
          "internalType": "uint256",
          "name": "expiration",
          "type": "uint256"
        }
      ],
      "name": "createTierkey",
      "outputs": [
        {
          "internalType": "address",
          "name": "",
          "type": "address"
        }
      ],
      "stateMutability": "nonpayable",
      "type": "function"
    },
    {
      "inputs": [],
      "name": "eip712Domain",
      "outputs": [
        {
          "internalType": "bytes1",
          "name": "fields",
          "type": "bytes1"
        },
        {
          "internalType": "string",
          "name": "name",
          "type": "string"
        },
        {
          "internalType": "string",
          "name": "version",
          "type": "string"
        },
        {
          "internalType": "uint256",
          "name": "chainId",
          "type": "uint256"
        },
        {
          "internalType": "address",
          "name": "verifyingContract",
          "type": "address"
        },
        {
          "internalType": "bytes32",
          "name": "salt",
          "type": "bytes32"
        },
        {
          "internalType": "uint256[]",
          "name": "extensions",
          "type": "uint256[]"
        }
      ],
      "stateMutability": "view",
      "type": "function"
    },
    {
      "inputs": [
        {
          "internalType": "uint256",
          "name": "tokenId",
          "type": "uint256"
        }
      ],
      "name": "getApproved",
      "outputs": [
        {
          "internalType": "address",
          "name": "",
          "type": "address"
        }
      ],
      "stateMutability": "view",
      "type": "function"
    },
    {
      "inputs": [
        {
          "internalType": "bytes32",
          "name": "assetId",
          "type": "bytes32"
        }
      ],
      "name": "getAsset",
      "outputs": [
        {
          "components": [
            {
              "internalType": "bytes",
              "name": "data",
              "type": "bytes"
            },
            {
              "internalType": "uint256",
              "name": "publishAt",
              "type": "uint256"
            },
            {
              "internalType": "uint256",
              "name": "publicationId",
              "type": "uint256"
            },
            {
              "internalType": "address[]",
              "name": "actions",
              "type": "address[]"
            }
          ],
          "internalType": "struct IDataMonetizer.Asset",
          "name": "",
          "type": "tuple"
        }
      ],
      "stateMutability": "view",
      "type": "function"
    },
    {
      "inputs": [
        {
          "internalType": "bytes32",
          "name": "assetId",
          "type": "bytes32"
        }
      ],
      "name": "getAssetOwner",
      "outputs": [
        {
          "internalType": "address",
          "name": "",
          "type": "address"
        }
      ],
      "stateMutability": "view",
      "type": "function"
    },
    {
      "inputs": [],
      "name": "getDomainSeparator",
      "outputs": [
        {
          "internalType": "bytes32",
          "name": "",
          "type": "bytes32"
        }
      ],
      "stateMutability": "view",
      "type": "function"
    },
    {
      "inputs": [
        {
          "internalType": "address",
          "name": "signer",
          "type": "address"
        }
      ],
      "name": "getSigNonce",
      "outputs": [
        {
          "internalType": "uint256",
          "name": "",
          "type": "uint256"
        }
      ],
      "stateMutability": "view",
      "type": "function"
    },
    {
      "inputs": [
        {
          "internalType": "bytes32",
          "name": "assetId",
          "type": "bytes32"
        },
        {
          "internalType": "uint256",
          "name": "tier",
          "type": "uint256"
        },
        {
          "internalType": "enum IPyraZone.TradeType",
          "name": "tradeType",
          "type": "uint8"
        }
      ],
      "name": "getTierkeyPrice",
      "outputs": [
        {
          "internalType": "uint256",
          "name": "",
          "type": "uint256"
        }
      ],
      "stateMutability": "view",
      "type": "function"
    },
    {
      "inputs": [
        {
          "internalType": "bytes32",
          "name": "assetId",
          "type": "bytes32"
        },
        {
          "internalType": "uint256",
          "name": "tier",
          "type": "uint256"
        },
        {
          "internalType": "enum IPyraZone.TradeType",
          "name": "tradeType",
          "type": "uint8"
        }
      ],
      "name": "getTierkeyPriceAfterFee",
      "outputs": [
        {
          "internalType": "uint256",
          "name": "",
          "type": "uint256"
        }
      ],
      "stateMutability": "view",
      "type": "function"
    },
    {
      "inputs": [
        {
          "internalType": "bytes32",
          "name": "assetId",
          "type": "bytes32"
        }
      ],
      "name": "getZoneAsset",
      "outputs": [
        {
          "components": [
            {
              "internalType": "uint256",
              "name": "publishAt",
              "type": "uint256"
            },
            {
              "internalType": "uint256",
              "name": "publicationId",
              "type": "uint256"
            },
            {
              "internalType": "address[]",
              "name": "actions",
              "type": "address[]"
            },
            {
              "internalType": "address[]",
              "name": "tierkeys",
              "type": "address[]"
            },
            {
              "internalType": "uint256[]",
              "name": "expirations",
              "type": "uint256[]"
            },
            {
              "internalType": "uint256[]",
              "name": "totalValues",
              "type": "uint256[]"
            }
          ],
          "internalType": "struct IPyraZone.ZoneAsset",
          "name": "",
          "type": "tuple"
        }
      ],
      "stateMutability": "view",
      "type": "function"
    },
    {
      "inputs": [
        {
          "internalType": "bytes32",
          "name": "assetId",
          "type": "bytes32"
        },
        {
          "internalType": "address",
          "name": "account",
          "type": "address"
        },
        {
          "internalType": "uint256",
          "name": "tier",
          "type": "uint256"
        }
      ],
      "name": "isAccessible",
      "outputs": [
        {
          "internalType": "bool",
          "name": "",
          "type": "bool"
        }
      ],
      "stateMutability": "view",
      "type": "function"
    },
    {
      "inputs": [
        {
          "internalType": "address",
          "name": "owner",
          "type": "address"
        },
        {
          "internalType": "address",
          "name": "operator",
          "type": "address"
        }
      ],
      "name": "isApprovedForAll",
      "outputs": [
        {
          "internalType": "bool",
          "name": "",
          "type": "bool"
        }
      ],
      "stateMutability": "view",
      "type": "function"
    },
    {
      "inputs": [
        {
          "internalType": "bytes32",
          "name": "assetId",
          "type": "bytes32"
        },
        {
          "internalType": "uint256",
          "name": "tier",
          "type": "uint256"
        },
        {
          "internalType": "uint256",
          "name": "keyId",
          "type": "uint256"
        }
      ],
      "name": "isTierkeyExpired",
      "outputs": [
        {
          "internalType": "bool",
          "name": "",
          "type": "bool"
        }
      ],
      "stateMutability": "view",
      "type": "function"
    },
    {
      "inputs": [
        {
          "internalType": "bytes32",
          "name": "assetId",
          "type": "bytes32"
        },
        {
          "internalType": "uint256",
          "name": "tier",
          "type": "uint256"
        },
        {
          "internalType": "uint256",
          "name": "keyId",
          "type": "uint256"
        }
      ],
      "name": "liquidateTierkey",
      "outputs": [],
      "stateMutability": "nonpayable",
      "type": "function"
    },
    {
      "inputs": [],
      "name": "name",
      "outputs": [
        {
          "internalType": "string",
          "name": "",
          "type": "string"
        }
      ],
      "stateMutability": "view",
      "type": "function"
    },
    {
      "inputs": [
        {
          "internalType": "uint256",
          "name": "tokenId",
          "type": "uint256"
        }
      ],
      "name": "ownerOf",
      "outputs": [
        {
          "internalType": "address",
          "name": "",
          "type": "address"
        }
      ],
      "stateMutability": "view",
      "type": "function"
    },
    {
      "inputs": [
        {
          "components": [
            {
              "internalType": "bytes",
              "name": "data",
              "type": "bytes"
            },
            {
              "internalType": "address[]",
              "name": "actions",
              "type": "address[]"
            },
            {
              "internalType": "bytes[]",
              "name": "actionInitDatas",
              "type": "bytes[]"
            }
          ],
          "internalType": "struct IDataMonetizer.PublishParams",
          "name": "publishParams",
          "type": "tuple"
        }
      ],
      "name": "publish",
      "outputs": [
        {
          "internalType": "bytes32",
          "name": "",
          "type": "bytes32"
        }
      ],
      "stateMutability": "payable",
      "type": "function"
    },
    {
      "inputs": [
        {
          "components": [
            {
              "internalType": "bytes",
              "name": "data",
              "type": "bytes"
            },
            {
              "internalType": "address[]",
              "name": "actions",
              "type": "address[]"
            },
            {
              "internalType": "bytes[]",
              "name": "actionInitDatas",
              "type": "bytes[]"
            }
          ],
          "internalType": "struct IDataMonetizer.PublishParams",
          "name": "publishParams",
          "type": "tuple"
        },
        {
          "components": [
            {
              "internalType": "address",
              "name": "signer",
              "type": "address"
            },
            {
              "internalType": "uint8",
              "name": "v",
              "type": "uint8"
            },
            {
              "internalType": "bytes32",
              "name": "r",
              "type": "bytes32"
            },
            {
              "internalType": "bytes32",
              "name": "s",
              "type": "bytes32"
            },
            {
              "internalType": "uint256",
              "name": "deadline",
              "type": "uint256"
            }
          ],
          "internalType": "struct IDataMonetizer.EIP712Signature",
          "name": "signature",
          "type": "tuple"
        }
      ],
      "name": "publishWithSig",
      "outputs": [
        {
          "internalType": "bytes32",
          "name": "",
          "type": "bytes32"
        }
      ],
      "stateMutability": "payable",
      "type": "function"
    },
    {
      "inputs": [
        {
          "internalType": "address",
          "name": "from",
          "type": "address"
        },
        {
          "internalType": "address",
          "name": "to",
          "type": "address"
        },
        {
          "internalType": "uint256",
          "name": "tokenId",
          "type": "uint256"
        }
      ],
      "name": "safeTransferFrom",
      "outputs": [],
      "stateMutability": "nonpayable",
      "type": "function"
    },
    {
      "inputs": [
        {
          "internalType": "address",
          "name": "from",
          "type": "address"
        },
        {
          "internalType": "address",
          "name": "to",
          "type": "address"
        },
        {
          "internalType": "uint256",
          "name": "tokenId",
          "type": "uint256"
        },
        {
          "internalType": "bytes",
          "name": "data",
          "type": "bytes"
        }
      ],
      "name": "safeTransferFrom",
      "outputs": [],
      "stateMutability": "nonpayable",
      "type": "function"
    },
    {
      "inputs": [
        {
          "internalType": "bytes32",
          "name": "assetId",
          "type": "bytes32"
        },
        {
          "internalType": "uint256",
          "name": "tier",
          "type": "uint256"
        },
        {
          "internalType": "uint256",
          "name": "keyId",
          "type": "uint256"
        }
      ],
      "name": "sellTierkey",
      "outputs": [],
      "stateMutability": "nonpayable",
      "type": "function"
    },
    {
      "inputs": [
        {
          "internalType": "address",
          "name": "operator",
          "type": "address"
        },
        {
          "internalType": "bool",
          "name": "approved",
          "type": "bool"
        }
      ],
      "name": "setApprovalForAll",
      "outputs": [],
      "stateMutability": "nonpayable",
      "type": "function"
    },
    {
      "inputs": [
        {
          "internalType": "bytes4",
          "name": "interfaceId",
          "type": "bytes4"
        }
      ],
      "name": "supportsInterface",
      "outputs": [
        {
          "internalType": "bool",
          "name": "",
          "type": "bool"
        }
      ],
      "stateMutability": "view",
      "type": "function"
    },
    {
      "inputs": [],
      "name": "symbol",
      "outputs": [
        {
          "internalType": "string",
          "name": "",
          "type": "string"
        }
      ],
      "stateMutability": "view",
      "type": "function"
    },
    {
      "inputs": [
        {
          "internalType": "uint256",
          "name": "index",
          "type": "uint256"
        }
      ],
      "name": "tokenByIndex",
      "outputs": [
        {
          "internalType": "uint256",
          "name": "",
          "type": "uint256"
        }
      ],
      "stateMutability": "view",
      "type": "function"
    },
    {
      "inputs": [
        {
          "internalType": "address",
          "name": "owner",
          "type": "address"
        },
        {
          "internalType": "uint256",
          "name": "index",
          "type": "uint256"
        }
      ],
      "name": "tokenOfOwnerByIndex",
      "outputs": [
        {
          "internalType": "uint256",
          "name": "",
          "type": "uint256"
        }
      ],
      "stateMutability": "view",
      "type": "function"
    },
    {
      "inputs": [
        {
          "internalType": "uint256",
          "name": "tokenId",
          "type": "uint256"
        }
      ],
      "name": "tokenURI",
      "outputs": [
        {
          "internalType": "string",
          "name": "",
          "type": "string"
        }
      ],
      "stateMutability": "view",
      "type": "function"
    },
    {
      "inputs": [],
      "name": "totalSupply",
      "outputs": [
        {
          "internalType": "uint256",
          "name": "",
          "type": "uint256"
        }
      ],
      "stateMutability": "view",
      "type": "function"
    },
    {
      "inputs": [
        {
          "internalType": "address",
          "name": "",
          "type": "address"
        },
        {
          "internalType": "address",
          "name": "",
          "type": "address"
        },
        {
          "internalType": "uint256",
          "name": "",
          "type": "uint256"
        }
      ],
      "name": "transferFrom",
      "outputs": [],
      "stateMutability": "pure",
      "type": "function"
    }
  ],
  "bytecode": {
    "object": "0x6101a06040526000600d553480156200001757600080fd5b5060405162006280380380620062808339810160408190526200003a9162000257565b60405180604001604052806008815260200167507972615a6f6e6560c01b815250604051806040016040528060018152602001603160f81b81525081816040518060400160405280600f81526020016e141d589b1a58d85d1a5bdb88139195608a1b81525060405180604001604052806002815260200161282760f11b8152508160009081620000cb919062000334565b506001620000da828262000334565b50620000ec9150839050600a620001b5565b61012052620000fd81600b620001b5565b61014052815160208084019190912060e052815190820120610100524660a0526200018b60e05161010051604080517f8b73c3c69bb8fe3d512ecc4cf759cc79239f7b179b0ffacaa9a75d522b39400f60208201529081019290925260608201524660808201523060a082015260009060c00160405160208183030381529060405280519060200120905090565b60805250503060c05250506001600c556001600160a01b0391821661016052166101805262000475565b6000602083511015620001d557620001cd83620001ee565b9050620001e8565b81620001e2848262000334565b5060ff90505b92915050565b600080829050601f8151111562000225578260405163305a27a960e01b81526004016200021c919062000400565b60405180910390fd5b8051620002328262000450565b179392505050565b80516001600160a01b03811681146200025257600080fd5b919050565b600080604083850312156200026b57600080fd5b62000276836200023a565b915062000286602084016200023a565b90509250929050565b634e487b7160e01b600052604160045260246000fd5b600181811c90821680620002ba57607f821691505b602082108103620002db57634e487b7160e01b600052602260045260246000fd5b50919050565b601f8211156200032f57600081815260208120601f850160051c810160208610156200030a5750805b601f850160051c820191505b818110156200032b5782815560010162000316565b5050505b505050565b81516001600160401b038111156200035057620003506200028f565b6200036881620003618454620002a5565b84620002e1565b602080601f831160018114620003a05760008415620003875750858301515b600019600386901b1c1916600185901b1785556200032b565b600085815260208120601f198616915b82811015620003d157888601518255948401946001909101908401620003b0565b5085821015620003f05787850151600019600388901b60f8161c191681555b5050505050600190811b01905550565b600060208083528351808285015260005b818110156200042f5785810183015185820160400152820162000411565b506000604082860101526040601f19601f8301168501019250505092915050565b80516020808301519190811015620002db5760001960209190910360031b1b16919050565b60805160a05160c05160e0516101005161012051610140516101605161018051615d776200050960003960008181610592015281816116df01528181611ba201526122540152600081816104b00152818161172c0152611bef01526000612ec201526000612e930152600061363d015260006136150152600061356d01526000613598015260006135c30152615d776000f3fe608060405260043610620002835760003560e01c806377c3b02d1162000153578063b88d4fde11620000c5578063c87b56dd1162000084578063c87b56dd14620007f1578063c97bdc6a1462000816578063d26fef7e146200082d578063e03e01631462000852578063e985e9c51462000869578063ed24911d146200088e57600080fd5b8063b88d4fde146200076b578063bb9bc62a1462000790578063bca1d01b14620005b4578063c0e26b4e14620007a7578063c2bb05a714620007cc57600080fd5b806395d89b41116200011257806395d89b4114620006b25780639bbbcfd414620006ca578063a22cb46514620006fb578063a7caaa251462000720578063adcec4a0146200075457600080fd5b806377c3b02d14620005f157806384b0196e1462000616578063888294a5146200064357806390f99162146200066857806393dfe6e2146200068d57600080fd5b806335d8c2b711620001f95780636121852511620001b857806361218525146200051c5780636157fec314620005345780636352211e14620005595780636352cf24146200057e57806365c3c98114620005b457806370a0823114620005cc57600080fd5b806335d8c2b7146200045257806342842e0e1462000477578063474a04d7146200049c5780634f6ccce714620004d25780635b88200614620004f757600080fd5b806318160ddd116200024657806318160ddd146200039757806323b872dd14620003ae5780632629758414620003d35780632cc3ce8014620003f95780632f745c59146200042d57600080fd5b806301ffc9a7146200028857806305ac0ab414620002c257806306fdde03146200030b578063081812fc1462000332578063095ea7b31462000370575b600080fd5b3480156200029557600080fd5b50620002ad620002a736600462004243565b620008a6565b60405190151581526020015b60405180910390f35b348015620002cf57600080fd5b50620002fc620002e136600462004279565b6001600160a01b03166000908152600e602052604090205490565b604051908152602001620002b9565b3480156200031857600080fd5b5062000323620008d4565b604051620002b99190620042ed565b3480156200033f57600080fd5b50620003576200035136600462004302565b6200096e565b6040516001600160a01b039091168152602001620002b9565b3480156200037d57600080fd5b50620003956200038f3660046200431c565b6200099a565b005b348015620003a457600080fd5b50600854620002fc565b348015620003bb57600080fd5b5062000395620003cd3660046200434b565b620009ab565b620003ea620003e4366004620043bd565b620009c4565b604051620002b991906200446d565b3480156200040657600080fd5b506200041e6200041836600462004302565b62000c37565b604051620002b99190620044c8565b3480156200043a57600080fd5b50620002fc6200044c3660046200431c565b62000d94565b3480156200045f57600080fd5b50620003576200047136600462004302565b62000e01565b3480156200048457600080fd5b5062000395620004963660046200434b565b62000e1e565b348015620004a957600080fd5b50620003577f000000000000000000000000000000000000000000000000000000000000000081565b348015620004df57600080fd5b50620002fc620004f136600462004302565b62000e40565b3480156200050457600080fd5b506200039562000516366004620043bd565b62000e9f565b3480156200052957600080fd5b50620002fc61271081565b3480156200054157600080fd5b50620003576200055336600462004522565b620010f6565b3480156200056657600080fd5b50620003576200057836600462004302565b6200121f565b3480156200058b57600080fd5b50620003577f000000000000000000000000000000000000000000000000000000000000000081565b348015620005c157600080fd5b50620002fc6101f481565b348015620005d957600080fd5b50620002fc620005eb36600462004279565b6200122c565b348015620005fe57600080fd5b50620002ad6200061036600462004545565b62001276565b3480156200062357600080fd5b506200062e62001371565b604051620002b99796959493929190620045a4565b3480156200065057600080fd5b50620002fc620006623660046200461a565b620013bb565b3480156200067557600080fd5b50620003956200068736600462004545565b62001581565b3480156200069a57600080fd5b5062000395620006ac36600462004545565b620018cd565b348015620006bf57600080fd5b506200032362001d83565b348015620006d757600080fd5b50620002fc620006e936600462004279565b60106020526000908152604090205481565b3480156200070857600080fd5b50620003956200071a36600462004668565b62001d94565b3480156200072d57600080fd5b50620007456200073f36600462004302565b62001da1565b604051620002b99190620046a6565b620002fc62000765366004620043bd565b62001fb4565b3480156200077857600080fd5b50620003956200078a36600462004831565b620020fb565b620002fc620007a136600462004522565b6200211c565b348015620007b457600080fd5b50620002ad620007c6366004620048a4565b62002392565b348015620007d957600080fd5b5062000395620007eb366004620048ce565b62002505565b348015620007fe57600080fd5b50620003236200081036600462004302565b62002533565b620002fc62000827366004620048ce565b620025b0565b3480156200083a57600080fd5b50620002fc6200084c3660046200461a565b620025da565b620003ea62000863366004620048ce565b62002688565b3480156200087657600080fd5b50620002ad6200088836600462004906565b620026a0565b3480156200089b57600080fd5b50620002fc620026ce565b60006001600160e01b031982166365016f0960e11b1480620008ce5750620008ce82620026df565b92915050565b606060008054620008e59062004939565b80601f0160208091040260200160405190810160405280929190818152602001828054620009139062004939565b8015620009645780601f10620009385761010080835404028352916020019162000964565b820191906000526020600020905b8154815290600101906020018083116200094657829003601f168201915b5050505050905090565b60006200097b8262002707565b506000828152600460205260409020546001600160a01b0316620008ce565b620009a782823362002742565b5050565b604051637224b66d60e11b815260040160405180910390fd5b6060620009d062002751565b600062000bcc62000bb56040518060a001604052806067815260200162005cdb6067913980519060200120866000013573__$aea9d1025abe8dd1cc7c323cf94e56b058$__6333983acb89806020019062000a2c91906200496f565b6040518363ffffffff1660e01b815260040162000a4b929190620049c2565b602060405180830381865af415801562000a69573d6000803e3d6000fd5b505050506040513d601f19601f8201168201806040525081019062000a8f919062004a14565b73__$aea9d1025abe8dd1cc7c323cf94e56b058$__639e22d70d62000ab860408c018c6200496f565b6040518363ffffffff1660e01b815260040162000ad792919062004a9f565b602060405180830381865af415801562000af5573d6000803e3d6000fd5b505050506040513d601f19601f8201168201806040525081019062000b1b919062004a14565b600e600062000b2e60208c018c62004279565b6001600160a01b031681526020810191909152604001600090812080549162000b578362004b21565b91905055896080013560405160200162000b9996959493929190958652602086019490945260408501929092526060840152608083015260a082015260c00190565b604051602081830303815290604052805190602001206200277c565b62000bc63686900386018662004b3d565b620027ac565b90506001600160a01b03811662000be7602085018562004279565b6001600160a01b03161462000c0f57604051630e751dc360e31b815260040160405180910390fd5b62000c298462000c23602086018662004279565b62002846565b915050620008ce6001600c55565b62000c636040518060800160405280606081526020016000815260200160008152602001606081525090565b6000828152600f60205260409081902081516080810190925280548290829062000c8d9062004939565b80601f016020809104026020016040519081016040528092919081815260200182805462000cbb9062004939565b801562000d0c5780601f1062000ce05761010080835404028352916020019162000d0c565b820191906000526020600020905b81548152906001019060200180831162000cee57829003601f168201915b5050505050815260200160018201548152602001600282015481526020016003820180548060200260200160405190810160405280929190818152602001828054801562000d8457602002820191906000526020600020905b81546001600160a01b0316815260019091019060200180831162000d65575b5050505050815250509050919050565b600062000da1836200122c565b821062000dd85760405163295f44f760e21b81526001600160a01b0384166004820152602481018390526044015b60405180910390fd5b506001600160a01b03919091166000908152600660209081526040808320938352929052205490565b6000818152600f6020526040812060020154620008ce906200121f565b62000e3b83838360405180602001604052806000815250620020fb565b505050565b600062000e4c60085490565b821062000e775760405163295f44f760e21b8152600060048201526024810183905260440162000dcf565b6008828154811062000e8d5762000e8d62004bcb565b90600052602060002001549050919050565b62000ea962002751565b600062001083620010726040518060a00160405280606b815260200162005c70606b913980519060200120856000013573__$aea9d1025abe8dd1cc7c323cf94e56b058$__6333983acb88806020019062000f0591906200496f565b6040518363ffffffff1660e01b815260040162000f24929190620049c2565b602060405180830381865af415801562000f42573d6000803e3d6000fd5b505050506040513d601f19601f8201168201806040525081019062000f68919062004a14565b73__$aea9d1025abe8dd1cc7c323cf94e56b058$__639e22d70d62000f9160408b018b6200496f565b6040518363ffffffff1660e01b815260040162000fb092919062004a9f565b602060405180830381865af415801562000fce573d6000803e3d6000fd5b505050506040513d601f19601f8201168201806040525081019062000ff4919062004a14565b600e60006200100760208b018b62004279565b6001600160a01b0316815260208101919091526040016000908120805491620010308362004b21565b91905055886080013560405160200162000b9996959493929190958652602086019490945260408501929092526060840152608083015260a082015260c00190565b62000bc63685900385018562004b3d565b90506001600160a01b0381166200109e602084018462004279565b6001600160a01b031614620010c657604051630e751dc360e31b815260040160405180910390fd5b620010ea620010d58462004cfd565b620010e4602085018562004279565b62002c17565b50620009a76001600c55565b600080620011048462000e01565b9050336001600160a01b038216146200113057604051631f9079cb60e31b815260040160405180910390fd5b600060405162001140906200419d565b604051809103906000f0801580156200115d573d6000803e3d6000fd5b506000868152601160209081526040822080546001808201835582855283852090910180546001600160a01b0319166001600160a01b03871690811790915581830180548084018255908652848620018a90556002830180548084018255908652938520909301849055928990525492935091620011dc919062004d7c565b867f1c1811af3000be792d212cc3a6197c9dd78517ca933bca7638dc6dda1842a825876040516200120f91815260200190565b60405180910390a4949350505050565b6000620008ce8262002707565b60006001600160a01b0382166200125a576040516322718ad960e21b81526000600482015260240162000dcf565b506001600160a01b031660009081526003602052604090205490565b600062001284848462002e4f565b6000848152601160205260408120600101805485908110620012aa57620012aa62004bcb565b9060005260206000200154601160008781526020019081526020016000206000018581548110620012df57620012df62004bcb565b6000918252602090912001546040516393769ef560e01b8152600481018690526001600160a01b03909116906393769ef590602401602060405180830381865afa15801562001332573d6000803e3d6000fd5b505050506040513d601f19601f8201168201806040525081019062001358919062004a14565b62001364919062004d92565b42119150505b9392505050565b6000606080600080600060606200138762002e8b565b6200139162002eba565b60408051600080825260208201909252600f60f81b9b939a50919850469750309650945092509050565b6000620013c9848462002e4f565b600080836001811115620013e157620013e162004da8565b03620014875760008581526011602052604090208054859081106200140a576200140a62004bcb565b600091825260209182902001546040805163727b13ff60e11b815290516001600160a01b039092169263e4f627fe926004808401938290030181865afa15801562001459573d6000803e3d6000fd5b505050506040513d601f19601f820116820180604052508101906200147f919062004a14565b905062001532565b600085815260116020526040902080546001919086908110620014ae57620014ae62004bcb565b600091825260209182902001546040805163727b13ff60e11b815290516001600160a01b039092169263e4f627fe926004808401938290030181865afa158015620014fd573d6000803e3d6000fd5b505050506040513d601f19601f8201168201806040525081019062001523919062004a14565b6200152f919062004d7c565b90505b60006200154b6200154583600262004d92565b62002ee9565b6200155886600162004d92565b62001564919062004dbe565b620015779066038d7ea4c6800062004dbe565b9695505050505050565b6200158d838362002e4f565b6200159a83838362001276565b620015b85760405163fc8df69560e01b815260040160405180910390fd5b6000838152601160205260408120805484908110620015db57620015db62004bcb565b60009182526020822001546001600160a01b03169150620015ff85856001620013bb565b90506000612710620016146101f48462004dbe565b62001620919062004dd8565b90506000612710620016356101f48562004dbe565b62001641919062004dd8565b600088815260116020526040902060020180549192508491889081106200166c576200166c62004bcb565b90600052602060002001600082825462001687919062004d7c565b909155506200169890508762000e01565b6001600160a01b03166108fc839081150290604051600060405180830381858888f19350505050158015620016d1573d6000803e3d6000fd5b506040516001600160a01b037f0000000000000000000000000000000000000000000000000000000000000000169082156108fc029083906000818181858888f1935050505015801562001729573d6000803e3d6000fd5b507f00000000000000000000000000000000000000000000000000000000000000006001600160a01b03166348b160fa620017648962000e01565b6040516001600160e01b031960e084901b1681526001600160a01b039091166004820152602401608060405180830381865afa158015620017a9573d6000803e3d6000fd5b505050506040513d601f19601f82011682018060405250810190620017cf919062004dfb565b602001516001600160a01b03166108fc82620017ec858762004d7c565b620017f8919062004d7c565b6040518115909202916000818181858888f1935050505015801562001821573d6000803e3d6000fd5b50604051630852cd8d60e31b8152600481018690526001600160a01b038516906342966c6890602401600060405180830381600087803b1580156200186557600080fd5b505af11580156200187a573d6000803e3d6000fd5b50506040805142815233602082015290810186905287925088915089907f830d8305a866c5ff4f9de153d8be9ad44696281b659ed7483f3b7741ab033b939060600160405180910390a450505050505050565b620018d9838362002e4f565b6000838152601160205260408120805484908110620018fc57620018fc62004bcb565b6000918252602090912001546040516331a9108f60e11b8152600481018490526001600160a01b03909116915033908290636352211e90602401602060405180830381865afa15801562001954573d6000803e3d6000fd5b505050506040513d601f19601f820116820180604052508101906200197a919062004e77565b6001600160a01b031614620019a25760405163baea711960e01b815260040160405180910390fd5b6000620019b285856001620013bb565b90506000612710620019c76101f48462004dbe565b620019d3919062004dd8565b90506000612710620019e86101f48562004dbe565b620019f4919062004dd8565b9050600062001a0588888862001276565b62001aeb57600088815260116020526040902060010180548890811062001a305762001a3062004bcb565b6000918252602090912001546040516393769ef560e01b8152600481018890526001600160a01b038716906393769ef590602401602060405180830381865afa15801562001a82573d6000803e3d6000fd5b505050506040513d601f19601f8201168201806040525081019062001aa8919062004a14565b62001ab4904262004d7c565b8362001ac1868862004d7c565b62001acd919062004d7c565b62001ad9919062004dbe565b62001ae5919062004dd8565b62001b04565b8162001af8848662004d7c565b62001b04919062004d7c565b6000898152601160205260409020600201805491925085918990811062001b2f5762001b2f62004bcb565b90600052602060002001600082825462001b4a919062004d7c565b9091555062001b5b90508862000e01565b6001600160a01b03166108fc849081150290604051600060405180830381858888f1935050505015801562001b94573d6000803e3d6000fd5b506040516001600160a01b037f0000000000000000000000000000000000000000000000000000000000000000169083156108fc029084906000818181858888f1935050505015801562001bec573d6000803e3d6000fd5b507f00000000000000000000000000000000000000000000000000000000000000006001600160a01b03166348b160fa62001c278a62000e01565b6040516001600160e01b031960e084901b1681526001600160a01b039091166004820152602401608060405180830381865afa15801562001c6c573d6000803e3d6000fd5b505050506040513d601f19601f8201168201806040525081019062001c92919062004dfb565b602001516001600160a01b03166108fc829081150290604051600060405180830381858888f1935050505015801562001ccf573d6000803e3d6000fd5b50604051630852cd8d60e31b8152600481018790526001600160a01b038616906342966c6890602401600060405180830381600087803b15801562001d1357600080fd5b505af115801562001d28573d6000803e3d6000fd5b505060408051428152336020820152908101879052606081018490528892508991508a907f4c08e79f50b327929b928c804b39381859dfced6109fff8e6fb98d65a70cbd679060800160405180910390a45050505050505050565b606060018054620008e59062004939565b620009a733838362002f85565b62001ddb6040518060c001604052806000815260200160008152602001606081526020016060815260200160608152602001606081525090565b6040805160c0810182526000848152600f6020818152848320600181015485526002810154828601529287905290815260039091018054845181840281018401865281815293948501939283018282801562001e6157602002820191906000526020600020905b81546001600160a01b0316815260019091019060200180831162001e42575b5050509183525050600084815260116020908152604091829020805483518184028101840190945280845293820193909183018282801562001ecd57602002820191906000526020600020905b81546001600160a01b0316815260019091019060200180831162001eae575b505050505081526020016011600085815260200190815260200160002060010180548060200260200160405190810160405280929190818152602001828054801562001f3957602002820191906000526020600020905b81548152602001906001019080831162001f24575b505050505081526020016011600085815260200190815260200160002060020180548060200260200160405190810160405280929190818152602001828054801562001fa557602002820191906000526020600020905b81548152602001906001019080831162001f90575b50505050508152509050919050565b600062001fc062002751565b60006200209e62000bb56040518060a001604052806063815260200162005c0d60639139805160209091012073__$aea9d1025abe8dd1cc7c323cf94e56b058$__638d849f4362002012898062004e97565b6040518363ffffffff1660e01b81526004016200203192919062004ee0565b602060405180830381865af41580156200204f573d6000803e3d6000fd5b505050506040513d601f19601f8201168201806040525081019062002075919062004a14565b73__$aea9d1025abe8dd1cc7c323cf94e56b058$__6333983acb62000a2c60208b018b6200496f565b90506001600160a01b038116620020b9602085018562004279565b6001600160a01b031614620020e157604051630e751dc360e31b815260040160405180910390fd5b62000c2984620020f5602086018662004279565b62003026565b62002108848484620009ab565b620021168484848462003391565b50505050565b60006200212a838362002e4f565b60006200213a84846000620013bb565b905060006127106200214f6101f48462004dbe565b6200215b919062004dd8565b90506000612710620021706101f48562004dbe565b6200217c919062004dd8565b9050806200218b838562004d92565b62002197919062004d92565b341015620021b85760405163cd1c886760e01b815260040160405180910390fd5b6000868152601160205260409020600201805484919087908110620021e157620021e162004bcb565b906000526020600020016000828254620021fc919062004d92565b909155506200220d90508662000e01565b6001600160a01b03166108fc839081150290604051600060405180830381858888f1935050505015801562002246573d6000803e3d6000fd5b506040516001600160a01b037f0000000000000000000000000000000000000000000000000000000000000000169082156108fc029083906000818181858888f193505050501580156200229e573d6000803e3d6000fd5b506000868152601160205260408120805487908110620022c257620022c262004bcb565b60009182526020822001546040516335313c2160e11b81523360048201526001600160a01b0390911692508290636a627842906024016020604051808303816000875af115801562002318573d6000803e3d6000fd5b505050506040513d601f19601f820116820180604052508101906200233e919062004a14565b60408051428152336020820152908101879052909150819088908a907f16db3a681573777272d1618adb8d07cec5fb3eafe79e0559ee0bf408cb6c43c39060600160405180910390a4979650505050505050565b6000620023a0848362002e4f565b620023ab8462000e01565b6001600160a01b0316836001600160a01b031603620023cd575060016200136a565b6000805b838111620024ee576000868152601160205260408120805483908110620023fc57620023fc62004bcb565b6000918252602090912001546040516333868a5960e11b81526001600160a01b0388811660048301529091169063670d14b290602401600060405180830381865afa15801562002450573d6000803e3d6000fd5b505050506040513d6000823e601f3d908101601f191682016040526200247a919081019062004ef6565b905060005b8151811015620024d857620024b28887848481518110620024a457620024a462004bcb565b602002602001015162001276565b620024c557620024c28462004b21565b93505b620024d08162004b21565b90506200247f565b505080620024e69062004b21565b9050620023d1565b50620024fc83600162004d92565b14949350505050565b6200250f62002751565b620025256200251e8262004cfd565b3362002c17565b620025306001600c55565b50565b6060620025408262002707565b5060006200255960408051602081019091526000815290565b905060008151116200257b57604051806020016040528060008152506200136a565b806200258784620034c7565b6040516020016200259a92919062004f8f565b6040516020818303038152906040529392505050565b6000620025bc62002751565b620025c8823362003026565b9050620025d56001600c55565b919050565b600080620025ea858585620013bb565b90506000612710620025ff6101f48462004dbe565b6200260b919062004dd8565b90506000612710620026206101f48562004dbe565b6200262c919062004dd8565b9050600085600181111562002645576200264562004da8565b036200266f578062002658838562004d92565b62002664919062004d92565b93505050506200136a565b806200267c838562004d7c565b62002664919062004d7c565b60606200269462002751565b620025c8823362002846565b6001600160a01b03918216600090815260056020908152604080832093909416825291909152205460ff1690565b6000620026da62003560565b905090565b60006001600160e01b0319821663780e9d6360e01b1480620008ce5750620008ce826200368e565b6000818152600260205260408120546001600160a01b031680620008ce57604051637e27328960e01b81526004810184905260240162000dcf565b62000e3b8383836001620036e1565b6002600c54036200277557604051633ee5aeb560e01b815260040160405180910390fd5b6002600c55565b6000620008ce6200278c62003560565b8360405161190160f01b8152600281019290925260228201526042902090565b60004282608001511015620027d457604051630819bdcd60e01b815260040160405180910390fd5b602080830151604080850151606080870151835160008082529681018086528a905260ff90951693850193909352830152608082015260019060a0016020604051602081039080840390855afa15801562002833573d6000803e3d6000fd5b5050604051601f19015195945050505050565b60606200285760408401846200496f565b90506200286860208501856200496f565b90501462002889576040516318c2d3e960e31b815260040160405180910390fd5b60005b6200289b60208501856200496f565b905081101562002997576000805b85356000908152600f6020526040902060030154811015620029635785356000908152600f60205260409020600301805482908110620028ed57620028ed62004bcb565b600091825260209182902001546001600160a01b03169062002912908801886200496f565b8581811062002925576200292562004bcb565b90506020020160208101906200293c919062004279565b6001600160a01b0316036200295057600191505b6200295b8162004b21565b9050620028a9565b50806200298357604051632b52c85160e21b815260040160405180910390fd5b506200298f8162004b21565b90506200288c565b50620029a760208401846200496f565b90506001600160401b03811115620029c357620029c362004737565b604051908082528060200260200182016040528015620029f857816020015b6060815260200190600190039081620029e25790505b50905060005b62002a0d60208501856200496f565b905081101562002ba75760008062002a2960208701876200496f565b8481811062002a3c5762002a3c62004bcb565b905060200201602081019062002a53919062004279565b6001600160a01b03163463ce79d4bd60e01b88358862002a7760408c018c6200496f565b8981811062002a8a5762002a8a62004bcb565b905060200281019062002a9e919062004e97565b60405160240162002ab3949392919062004fc2565b60408051601f198184030181529181526020820180516001600160e01b03166001600160e01b031990941693909317909252905162002af3919062004fef565b60006040518083038185875af1925050503d806000811462002b32576040519150601f19603f3d011682016040523d82523d6000602084013e62002b37565b606091505b50915091508162002b5b5760405163d0a0e22560e01b815260040160405180910390fd5b8080602001905181019062002b7191906200500d565b84848151811062002b865762002b8662004bcb565b602002602001018190525050508062002b9f9062004b21565b9050620029fe565b506001600160a01b03821683357f08811d58bb5109a088c920f90db784a88b462bcbcb7cc7aa359a38cf9d377ca34262002be560208801886200496f565b62002bf460408a018a6200496f565b8860405162002c099695949392919062005118565b60405180910390a392915050565b815162002c259082620037f2565b62002c3482602001516200382f565b8160400151518260200151511462002c5f576040516318c2d3e960e31b815260040160405180910390fd5b60005b82602001515181101562002e0357600f6000846000015181526020019081526020016000206003018360200151828151811062002ca35762002ca362004bcb565b602090810291909101810151825460018101845560009384528284200180546001600160a01b0319166001600160a01b0390921691909117905584015180518390811062002cf55762002cf562004bcb565b60200260200101516001600160a01b03163463db86aeea60e01b86600001518760400151868151811062002d2d5762002d2d62004bcb565b602002602001015160405160240162002d489291906200516c565b60408051601f198184030181529181526020820180516001600160e01b03166001600160e01b031990941693909317909252905162002d88919062004fef565b60006040518083038185875af1925050503d806000811462002dc7576040519150601f19603f3d011682016040523d82523d6000602084013e62002dcc565b606091505b505090508062002def5760405163d840c6d960e01b815260040160405180910390fd5b5062002dfb8162004b21565b905062002c62565b5081600001517e67ace43f65e366bebbd59b5a6037e773324300314768487976539a2c5e78f48360200151846040015160405162002e4392919062005187565b60405180910390a25050565b60008281526011602052604090205462002e6b82600162004d92565b1115620009a75760405163e142361760e01b815260040160405180910390fd5b6060620026da7f0000000000000000000000000000000000000000000000000000000000000000600a62003900565b6060620026da7f0000000000000000000000000000000000000000000000000000000000000000600b62003900565b600080608083901c1562002eff57608092831c92015b604083901c1562002f1257604092831c92015b602083901c1562002f2557602092831c92015b601083901c1562002f3857601092831c92015b600883901c1562002f4b57600892831c92015b600483901c1562002f5e57600492831c92015b600283901c1562002f7157600292831c92015b600183901c15620008ce5760010192915050565b6001600160a01b03821662002fb957604051630b61174360e31b81526001600160a01b038316600482015260240162000dcf565b6001600160a01b03838116600081815260056020908152604080832094871680845294825291829020805460ff191686151590811790915591519182527f17307eab39ab6107e8899845ad3d59bd9653f200f220920489ca2b5937696c31910160405180910390a3505050565b6000620030736200303b60208501856200496f565b808060200260200160405190810160405280939291908181526020018383602002808284376000920191909152506200382f92505050565b60006200308b6200308485620051b0565b84620039b8565b905060006200309a84620039f1565b604080516080810190915290915080620030b5878062004e97565b8080601f016020809104026020016040519081016040528093929190818152602001838380828437600092019190915250505090825250426020808301919091526040820184905260609091019062003111908801886200496f565b808060200260200160405190810160405280939291908181526020018383602002808284376000920182905250939094525050848152600f60205260409020825190915081906200316390826200525c565b5060208281015160018301556040830151600283015560608301518051620031929260038501920190620041ab565b5090505060005b620031a860208701876200496f565b905081101562003305576000620031c360208801886200496f565b83818110620031d657620031d662004bcb565b9050602002016020810190620031ed919062004279565b6001600160a01b031634636dc3577560e11b866200320f60408c018c6200496f565b8781811062003222576200322262004bcb565b905060200281019062003236919062004e97565b6040516024016200324a9392919062005328565b60408051601f198184030181529181526020820180516001600160e01b03166001600160e01b03199094169390931790925290516200328a919062004fef565b60006040518083038185875af1925050503d8060008114620032c9576040519150601f19603f3d011682016040523d82523d6000602084013e620032ce565b606091505b5050905080620032f15760405163d840c6d960e01b815260040160405180910390fd5b50620032fd8162004b21565b905062003199565b50806001600160a01b038516837f9330feff209cec97e87601ad923fb4697bba4ea3f409d9a21114b589a5c93c6142620033408a8062004e97565b6200334f60208d018d6200496f565b6200335e60408f018f6200496f565b60405162003373979695949392919062005344565b60405180910390a4620033898585838562003a16565b509392505050565b6001600160a01b0383163b156200211657604051630a85bd0160e11b81526001600160a01b0384169063150b7a0290620033d69033908890879087906004016200538c565b6020604051808303816000875af192505050801562003414575060408051601f3d908101601f191682019092526200341191810190620053c1565b60015b62003482573d80801562003445576040519150601f19603f3d011682016040523d82523d6000602084013e6200344a565b606091505b5080516000036200347a57604051633250574960e11b81526001600160a01b038516600482015260240162000dcf565b805181602001fd5b6001600160e01b03198116630a85bd0160e11b14620034c057604051633250574960e11b81526001600160a01b038516600482015260240162000dcf565b5050505050565b60606000620034d68362003b5a565b60010190506000816001600160401b03811115620034f857620034f862004737565b6040519080825280601f01601f19166020018201604052801562003523576020820181803683370190505b5090508181016020015b600019016f181899199a1a9b1b9c1cb0b131b232b360811b600a86061a8153600a85049450846200352d57509392505050565b6000306001600160a01b037f000000000000000000000000000000000000000000000000000000000000000016148015620035ba57507f000000000000000000000000000000000000000000000000000000000000000046145b15620035e557507f000000000000000000000000000000000000000000000000000000000000000090565b620026da604080517f8b73c3c69bb8fe3d512ecc4cf759cc79239f7b179b0ffacaa9a75d522b39400f60208201527f0000000000000000000000000000000000000000000000000000000000000000918101919091527f000000000000000000000000000000000000000000000000000000000000000060608201524660808201523060a082015260009060c00160405160208183030381529060405280519060200120905090565b60006001600160e01b031982166380ac58cd60e01b1480620036c057506001600160e01b03198216635b5e139f60e01b145b80620008ce57506301ffc9a760e01b6001600160e01b0319831614620008ce565b8080620036f657506001600160a01b03821615155b15620037c2576000620037098462002707565b90506001600160a01b03831615801590620037365750826001600160a01b0316816001600160a01b031614155b80156200374c57506200374a8184620026a0565b155b15620037775760405163a9fbf51f60e01b81526001600160a01b038416600482015260240162000dcf565b8115620037c05783856001600160a01b0316826001600160a01b03167f8c5be1e5ebec7d5bd14f71427d1e84f3dd0314c0f7b2291e5b200ac8c7c3b92560405160405180910390a45b505b5050600090815260046020526040902080546001600160a01b0319166001600160a01b0392909216919091179055565b806001600160a01b0316620038078362000e01565b6001600160a01b031614620009a757604051637d387f3960e01b815260040160405180910390fd5b60005b8151811015620009a75781818151811062003851576200385162004bcb565b60209081029190910101516040516301ffc9a760e01b8152631066d55960e11b60048201526001600160a01b03909116906301ffc9a790602401602060405180830381865afa158015620038a9573d6000803e3d6000fd5b505050506040513d601f19601f82011682018060405250810190620038cf9190620053e1565b620038ed5760405163251cb21f60e01b815260040160405180910390fd5b620038f88162004b21565b905062003832565b606060ff83146200391e57620039168362003c39565b9050620008ce565b8180546200392c9062004939565b80601f01602080910402602001604051908101604052809291908181526020018280546200395a9062004939565b8015620039ab5780601f106200397f57610100808354040283529160200191620039ab565b820191906000526020600020905b8154815290600101906020018083116200398d57829003601f168201915b50505050509050620008ce565b600082823042604051602001620039d3949392919062005401565b60405160208183030381529060405280519060200120905092915050565b600d805490620025d59083908390600062003a0c8362004b21565b9190505562003c7a565b6001600160a01b0383166000908152601060205260409020541562003a4e5760405163cc4071c960e01b815260040160405180910390fd5b6001600160a01b038316600090815260106020526040812082905562003a75858062004e97565b81019062003a84919062004302565b9050600060405162003a96906200419d565b604051809103906000f08015801562003ab3573d6000803e3d6000fd5b50600084815260116020908152604080832080546001808201835582865284862090910180546001600160a01b0319166001600160a01b038816908117909155818301805480840182559087528587200189905560029092018054918201815585528385200184905590518681529394509286917f1c1811af3000be792d212cc3a6197c9dd78517ca933bca7638dc6dda1842a825910160405180910390a4505050505050565b60008072184f03e93ff9f4daa797ed6e38ed64bf6a1f0160401b831062003b9a5772184f03e93ff9f4daa797ed6e38ed64bf6a1f0160401b830492506040015b6d04ee2d6d415b85acef8100000000831062003bc7576d04ee2d6d415b85acef8100000000830492506020015b662386f26fc10000831062003be657662386f26fc10000830492506010015b6305f5e100831062003bff576305f5e100830492506008015b612710831062003c1457612710830492506004015b6064831062003c27576064830492506002015b600a8310620008ce5760010192915050565b6060600062003c488362003c96565b604080516020808252818301909252919250600091906020820181803683375050509182525060208101929092525090565b620009a782826040518060200160405280600081525062003cbf565b600060ff8216601f811115620008ce57604051632cd44ac360e21b815260040160405180910390fd5b62003ccb838362003cda565b62000e3b600084848462003391565b6001600160a01b03821662003d0657604051633250574960e11b81526000600482015260240162000dcf565b600062003d168383600062003d45565b90506001600160a01b0381161562000e3b576040516339e3563760e11b81526000600482015260240162000dcf565b60008062003d5585858562003e29565b90506001600160a01b03811662003db55762003daf84600880546000838152600960205260408120829055600182018355919091527ff3f7a9fe364faab93b216da50a3214154f22a0a2b415b23a84c8169e8b636ee30155565b62003ddb565b846001600160a01b0316816001600160a01b03161462003ddb5762003ddb818562003f29565b6001600160a01b03851662003dfb5762003df58462003fbd565b62003e21565b846001600160a01b0316816001600160a01b03161462003e215762003e21858562004077565b949350505050565b6000828152600260205260408120546001600160a01b039081169083161562003e595762003e59818486620040cb565b6001600160a01b0381161562003e9a5762003e79600085600080620036e1565b6001600160a01b038116600090815260036020526040902080546000190190555b6001600160a01b0385161562003eca576001600160a01b0385166000908152600360205260409020805460010190555b60008481526002602052604080822080546001600160a01b0319166001600160a01b0389811691821790925591518793918516917fddf252ad1be2c89b69c2b068fc378daa952ba7f163c4a11628f55a4df523b3ef91a4949350505050565b600062003f36836200122c565b60008381526007602052604090205490915080821462003f8a576001600160a01b03841660009081526006602090815260408083208584528252808320548484528184208190558352600790915290208190555b5060009182526007602090815260408084208490556001600160a01b039094168352600681528383209183525290812055565b60085460009062003fd19060019062004d7c565b6000838152600960205260408120546008805493945090928490811062003ffc5762003ffc62004bcb565b90600052602060002001549050806008838154811062004020576200402062004bcb565b60009182526020808320909101929092558281526009909152604080822084905585825281205560088054806200405b576200405b620054d7565b6001900381819060005260206000200160009055905550505050565b6000600162004086846200122c565b62004092919062004d7c565b6001600160a01b039093166000908152600660209081526040808320868452825280832085905593825260079052919091209190915550565b620040d883838362004135565b62000e3b576001600160a01b0383166200410957604051637e27328960e01b81526004810182905260240162000dcf565b60405163177e802f60e01b81526001600160a01b03831660048201526024810182905260440162000dcf565b60006001600160a01b0383161580159062003e215750826001600160a01b0316846001600160a01b03161480620041735750620041738484620026a0565b8062003e215750506000908152600460205260409020546001600160a01b03908116911614919050565b61071f80620054ee83390190565b82805482825590600052602060002090810192821562004203579160200282015b828111156200420357825182546001600160a01b0319166001600160a01b03909116178255602090920191600190910190620041cc565b506200421192915062004215565b5090565b5b8082111562004211576000815560010162004216565b6001600160e01b0319811681146200253057600080fd5b6000602082840312156200425657600080fd5b81356200136a816200422c565b6001600160a01b03811681146200253057600080fd5b6000602082840312156200428c57600080fd5b81356200136a8162004263565b60005b83811015620042b65781810151838201526020016200429c565b50506000910152565b60008151808452620042d981602086016020860162004299565b601f01601f19169290920160200192915050565b6020815260006200136a6020830184620042bf565b6000602082840312156200431557600080fd5b5035919050565b600080604083850312156200433057600080fd5b82356200433d8162004263565b946020939093013593505050565b6000806000606084860312156200436157600080fd5b83356200436e8162004263565b92506020840135620043808162004263565b929592945050506040919091013590565b600060608284031215620043a457600080fd5b50919050565b600060a08284031215620043a457600080fd5b60008060c08385031215620043d157600080fd5b82356001600160401b03811115620043e857600080fd5b620043f68582860162004391565b925050620044088460208501620043aa565b90509250929050565b600082825180855260208086019550808260051b84010181860160005b848110156200446057601f198684030189526200444d838351620042bf565b988401989250908301906001016200442e565b5090979650505050505050565b6020815260006200136a602083018462004411565b600081518084526020808501945080840160005b83811015620044bd5781516001600160a01b03168752958201959082019060010162004496565b509495945050505050565b602081526000825160806020840152620044e660a0840182620042bf565b905060208401516040840152604084015160608401526060840151601f1984830301608085015262004519828262004482565b95945050505050565b600080604083850312156200453657600080fd5b50508035926020909101359150565b6000806000606084860312156200455b57600080fd5b505081359360208301359350604090920135919050565b600081518084526020808501945080840160005b83811015620044bd5781518752958201959082019060010162004586565b60ff60f81b8816815260e060208201526000620045c560e0830189620042bf565b8281036040840152620045d98189620042bf565b606084018890526001600160a01b038716608085015260a0840186905283810360c085015290506200460c818562004572565b9a9950505050505050505050565b6000806000606084860312156200463057600080fd5b83359250602084013591506040840135600281106200464e57600080fd5b809150509250925092565b80151581146200253057600080fd5b600080604083850312156200467c57600080fd5b8235620046898162004263565b915060208301356200469b8162004659565b809150509250929050565b6020815281516020820152602082015160408201526000604083015160c06060840152620046d860e084018262004482565b90506060840151601f1980858403016080860152620046f8838362004482565b925060808601519150808584030160a086015262004717838362004572565b925060a08601519150808584030160c08601525062004519828262004572565b634e487b7160e01b600052604160045260246000fd5b604051606081016001600160401b038111828210171562004772576200477262004737565b60405290565b604051601f8201601f191681016001600160401b0381118282101715620047a357620047a362004737565b604052919050565b60006001600160401b03821115620047c757620047c762004737565b50601f01601f191660200190565b600082601f830112620047e757600080fd5b8135620047fe620047f882620047ab565b62004778565b8181528460208386010111156200481457600080fd5b816020850160208301376000918101602001919091529392505050565b600080600080608085870312156200484857600080fd5b8435620048558162004263565b93506020850135620048678162004263565b92506040850135915060608501356001600160401b038111156200488a57600080fd5b6200489887828801620047d5565b91505092959194509250565b600080600060608486031215620048ba57600080fd5b833592506020840135620043808162004263565b600060208284031215620048e157600080fd5b81356001600160401b03811115620048f857600080fd5b62003e218482850162004391565b600080604083850312156200491a57600080fd5b8235620049278162004263565b915060208301356200469b8162004263565b600181811c908216806200494e57607f821691505b602082108103620043a457634e487b7160e01b600052602260045260246000fd5b6000808335601e198436030181126200498757600080fd5b8301803591506001600160401b03821115620049a257600080fd5b6020019150600581901b3603821315620049bb57600080fd5b9250929050565b60208082528181018390526000908460408401835b8681101562004a09578235620049ed8162004263565b6001600160a01b031682529183019190830190600101620049d7565b509695505050505050565b60006020828403121562004a2757600080fd5b5051919050565b81835281816020850137506000828201602090810191909152601f909101601f19169091010190565b6000808335601e1984360301811262004a6f57600080fd5b83016020810192503590506001600160401b0381111562004a8f57600080fd5b803603821315620049bb57600080fd5b60208082528181018390526000906040600585901b8401810190840186845b8781101562004afe57868403603f1901835262004adc828a62004a57565b62004ae986828462004a2e565b95505050918401919084019060010162004abe565b5091979650505050505050565b634e487b7160e01b600052601160045260246000fd5b60006001820162004b365762004b3662004b0b565b5060010190565b600060a0828403121562004b5057600080fd5b60405160a081018181106001600160401b038211171562004b755762004b7562004737565b604052823562004b858162004263565b8152602083013560ff8116811462004b9c57600080fd5b806020830152506040830135604082015260608301356060820152608083013560808201528091505092915050565b634e487b7160e01b600052603260045260246000fd5b60006001600160401b0382111562004bfd5762004bfd62004737565b5060051b60200190565b600082601f83011262004c1957600080fd5b8135602062004c2c620047f88362004be1565b82815260059290921b8401810191818101908684111562004c4c57600080fd5b8286015b8481101562004a0957803562004c668162004263565b835291830191830162004c50565b600082601f83011262004c8657600080fd5b8135602062004c99620047f88362004be1565b82815260059290921b8401810191818101908684111562004cb957600080fd5b8286015b8481101562004a095780356001600160401b0381111562004cde5760008081fd5b62004cee8986838b0101620047d5565b84525091830191830162004cbd565b60006060823603121562004d1057600080fd5b62004d1a6200474d565b8235815260208301356001600160401b038082111562004d3957600080fd5b62004d473683870162004c07565b6020840152604085013591508082111562004d6157600080fd5b5062004d703682860162004c74565b60408301525092915050565b81810381811115620008ce57620008ce62004b0b565b80820180821115620008ce57620008ce62004b0b565b634e487b7160e01b600052602160045260246000fd5b8082028115828204841417620008ce57620008ce62004b0b565b60008262004df657634e487b7160e01b600052601260045260246000fd5b500490565b60006080828403121562004e0e57600080fd5b604051608081018181106001600160401b038211171562004e335762004e3362004737565b604052825162004e438162004263565b8152602083015162004e558162004263565b6020820152604083810151908201526060928301519281019290925250919050565b60006020828403121562004e8a57600080fd5b81516200136a8162004263565b6000808335601e1984360301811262004eaf57600080fd5b8301803591506001600160401b0382111562004eca57600080fd5b602001915036819003821315620049bb57600080fd5b60208152600062003e2160208301848662004a2e565b6000602080838503121562004f0a57600080fd5b82516001600160401b0381111562004f2157600080fd5b8301601f8101851362004f3357600080fd5b805162004f44620047f88262004be1565b81815260059190911b8201830190838101908783111562004f6457600080fd5b928401925b8284101562004f845783518252928401929084019062004f69565b979650505050505050565b6000835162004fa381846020880162004299565b83519083019062004fb981836020880162004299565b01949350505050565b8481526001600160a01b038416602082015260606040820181905260009062001577908301848662004a2e565b600082516200500381846020870162004299565b9190910192915050565b6000602082840312156200502057600080fd5b81516001600160401b038111156200503757600080fd5b8201601f810184136200504957600080fd5b80516200505a620047f882620047ab565b8181528560208385010111156200507057600080fd5b6200451982602083016020860162004299565b8183526000602080850194508260005b85811015620044bd578135620050a98162004263565b6001600160a01b03168752958201959082019060010162005093565b818352600060208085019450848460051b86018460005b8781101562004460578383038952620050f6828862004a57565b6200510385828462004a2e565b9a87019a9450505090840190600101620050dc565b8681526080602082015260006200513460808301878962005083565b828103604084015262005149818688620050c5565b905082810360608401526200515f818562004411565b9998505050505050505050565b82815260406020820152600062003e216040830184620042bf565b6040815260006200519c604083018562004482565b828103602084015262004519818562004411565b600060608236031215620051c357600080fd5b620051cd6200474d565b82356001600160401b0380821115620051e557600080fd5b620051f336838701620047d5565b8352602085013591508082111562004d3957600080fd5b601f82111562000e3b57600081815260208120601f850160051c81016020861015620052335750805b601f850160051c820191505b8181101562005254578281556001016200523f565b505050505050565b81516001600160401b0381111562005278576200527862004737565b620052908162005289845462004939565b846200520a565b602080601f831160018114620052c85760008415620052af5750858301515b600019600386901b1c1916600185901b17855562005254565b600085815260208120601f198616915b82811015620052f957888601518255948401946001909101908401620052d8565b5085821015620053185787850151600019600388901b60f8161c191681555b5050505050600190811b01905550565b8381526040602082015260006200451960408301848662004a2e565b8781526080602082015260006200536060808301888a62004a2e565b82810360408401526200537581878962005083565b905082810360608401526200460c818587620050c5565b6001600160a01b03858116825284166020820152604081018390526080606082018190526000906200157790830184620042bf565b600060208284031215620053d457600080fd5b81516200136a816200422c565b600060208284031215620053f457600080fd5b81516200136a8162004659565b6080815260008551606060808401526200541f60e0840182620042bf565b9050602080880151607f19808685030160a087015262005440848362004482565b60408b015187820390920160c08801528151808252909450908301915082840190600581901b8501840160005b828110156200549f57601f198783030184526200548c828651620042bf565b948601949386019391506001016200546d565b506001600160a01b038b16858901529550620054ba92505050565b50506001600160a01b039390931660408201526060015292915050565b634e487b7160e01b600052603160045260246000fdfe6080604052600060015534801561001557600080fd5b50338061003c57604051631e4fbdf760e01b81526000600482015260240160405180910390fd5b6100458161004b565b5061009b565b600080546001600160a01b038381166001600160a01b0319831681178455604051919092169283917f8be0079c531659141344cd1fd0a4f28419497f9722a3daafe3b4186f6b6457e09190a35050565b610675806100aa6000396000f3fe608060405234801561001057600080fd5b50600436106100935760003560e01c8063715018a611610066578063715018a6146101345780638da5cb5b1461013c57806393769ef51461014d578063e4f627fe1461016d578063f2fde38b1461017557600080fd5b806342966c68146100985780636352211e146100ad578063670d14b2146100f35780636a62784214610113575b600080fd5b6100ab6100a6366004610527565b610188565b005b6100d66100bb366004610527565b6000908152600360205260409020546001600160a01b031690565b6040516001600160a01b0390911681526020015b60405180910390f35b610106610101366004610540565b61033b565b6040516100ea9190610570565b610126610121366004610540565b6103a7565b6040519081526020016100ea565b6100ab610453565b6000546001600160a01b03166100d6565b61012661015b366004610527565b60009081526002602052604090205490565b600154610126565b6100ab610183366004610540565b610467565b6101906104aa565b600081815260036020526040812080546001600160a01b031981169091556001600160a01b0316905b6001600160a01b0382166000908152600460205260409020548110156102ed576001600160a01b0382166000908152600460205260409020805484919083908110610206576102066105b4565b9060005260206000200154036102dd576001600160a01b0382166000908152600460205260409020805461023c906001906105e0565b8154811061024c5761024c6105b4565b906000526020600020015460046000846001600160a01b03166001600160a01b03168152602001908152602001600020828154811061028d5761028d6105b4565b60009182526020808320909101929092556001600160a01b03841681526004909152604090208054806102c2576102c26105f9565b600190038181906000526020600020016000905590556102ed565b6102e68161060f565b90506101b9565b506001600081546102fd90610628565b909155506040516001600160a01b0382169083907fb9a0b6984bcbf102b729279a2ce79b7362e8528b60293cbb9715691901a020a090600090a35050565b6001600160a01b03811660009081526004602090815260409182902080548351818402810184019094528084526060939283018282801561039b57602002820191906000526020600020905b815481526020019060010190808311610387575b50505050509050919050565b60006103b16104aa565b5060018054600081815260036020908152604080832080546001600160a01b0319166001600160a01b038816908117909155600283528184204290558352600482528220805480860182559083529082200182905582549192916104149061060f565b909155506040516001600160a01b0383169082907f9786f663ce370aa6ea4e3df1ed975799cb222a2527b8e3f96cf76b592644b4cc90600090a3919050565b61045b6104aa565b61046560006104d7565b565b61046f6104aa565b6001600160a01b03811661049e57604051631e4fbdf760e01b8152600060048201526024015b60405180910390fd5b6104a7816104d7565b50565b6000546001600160a01b031633146104655760405163118cdaa760e01b8152336004820152602401610495565b600080546001600160a01b038381166001600160a01b0319831681178455604051919092169283917f8be0079c531659141344cd1fd0a4f28419497f9722a3daafe3b4186f6b6457e09190a35050565b60006020828403121561053957600080fd5b5035919050565b60006020828403121561055257600080fd5b81356001600160a01b038116811461056957600080fd5b9392505050565b6020808252825182820181905260009190848201906040850190845b818110156105a85783518352928401929184019160010161058c565b50909695505050505050565b634e487b7160e01b600052603260045260246000fd5b634e487b7160e01b600052601160045260246000fd5b818103818111156105f3576105f36105ca565b92915050565b634e487b7160e01b600052603160045260246000fd5b600060018201610621576106216105ca565b5060010190565b600081610637576106376105ca565b50600019019056fea26469706673582212209bde5b8dd5e473aedbb0082380d38da884d526dfa1786c5566091609eefa74f064736f6c634300081500335075626c6973685769746853696728627974657320646174612c616464726573735b5d20616374696f6e732c62797465735b5d20616374696f6e496e697444617461732c75696e74323536206e6f6e63652c75696e7432353620646561646c696e6529416464416374696f6e7357697468536967286279746573333220617373657449642c616464726573735b5d20616374696f6e732c62797465735b5d20616374696f6e496e697444617461732c75696e74323536206e6f6e63652c75696e7432353620646561646c696e652941637457697468536967286279746573333220617373657449642c616464726573735b5d20616374696f6e732c62797465735b5d20616374696f6e50726f6365737344617461732c75696e74323536206e6f6e63652c75696e7432353620646561646c696e6529a26469706673582212206e124e3061fc9d36d77534f4fe06fcf9474cf8625d2adf3380dc38c35045918164736f6c63430008150033",
    "linkReferences": {
      "node_modules/@pyra-marketplace/assets-core/contracts/libraries/EIP712Encoder.sol": {
        "EIP712Encoder": [
          {
            "start": 3851,
            "length": 20
          },
          {
            "start": 3994,
            "length": 20
          },
          {
            "start": 5092,
            "length": 20
          },
          {
            "start": 5235,
            "length": 20
          },
          {
            "start": 9463,
            "length": 20
          },
          {
            "start": 9600,
            "length": 20
          }
        ]
      }
    }
  },
  "methodIdentifiers": {
    "BASE_FEE_POINT()": "61218525",
    "OWNER_FEE_POINT()": "bca1d01b",
    "PROTOCOL_FEE_POINT()": "65c3c981",
    "PROTOCOL_TREASURY()": "6352cf24",
    "PYRA_MARKET()": "474a04d7",
    "act((bytes32,address[],bytes[]))": "e03e0163",
    "actWithSig((bytes32,address[],bytes[]),(address,uint8,bytes32,bytes32,uint256))": "26297584",
    "addActions((bytes32,address[],bytes[]))": "c2bb05a7",
    "addActionsWithSig((bytes32,address[],bytes[]),(address,uint8,bytes32,bytes32,uint256))": "5b882006",
    "approve(address,uint256)": "095ea7b3",
    "assetIdByPublisher(address)": "9bbbcfd4",
    "balanceOf(address)": "70a08231",
    "buyTierkey(bytes32,uint256)": "bb9bc62a",
    "createTierkey(bytes32,uint256)": "6157fec3",
    "eip712Domain()": "84b0196e",
    "getApproved(uint256)": "081812fc",
    "getAsset(bytes32)": "2cc3ce80",
    "getAssetOwner(bytes32)": "35d8c2b7",
    "getDomainSeparator()": "ed24911d",
    "getSigNonce(address)": "05ac0ab4",
    "getTierkeyPrice(bytes32,uint256,uint8)": "888294a5",
    "getTierkeyPriceAfterFee(bytes32,uint256,uint8)": "d26fef7e",
    "getZoneAsset(bytes32)": "a7caaa25",
    "isAccessible(bytes32,address,uint256)": "c0e26b4e",
    "isApprovedForAll(address,address)": "e985e9c5",
    "isTierkeyExpired(bytes32,uint256,uint256)": "77c3b02d",
    "liquidateTierkey(bytes32,uint256,uint256)": "90f99162",
    "name()": "06fdde03",
    "ownerOf(uint256)": "6352211e",
    "publish((bytes,address[],bytes[]))": "c97bdc6a",
    "publishWithSig((bytes,address[],bytes[]),(address,uint8,bytes32,bytes32,uint256))": "adcec4a0",
    "safeTransferFrom(address,address,uint256)": "42842e0e",
    "safeTransferFrom(address,address,uint256,bytes)": "b88d4fde",
    "sellTierkey(bytes32,uint256,uint256)": "93dfe6e2",
    "setApprovalForAll(address,bool)": "a22cb465",
    "supportsInterface(bytes4)": "01ffc9a7",
    "symbol()": "95d89b41",
    "tokenByIndex(uint256)": "4f6ccce7",
    "tokenOfOwnerByIndex(address,uint256)": "2f745c59",
    "tokenURI(uint256)": "c87b56dd",
    "totalSupply()": "18160ddd",
    "transferFrom(address,address,uint256)": "23b872dd"
  },
  "id": 1
}