{
  "abi": [
    {
      "inputs": [
        {
          "internalType": "address",
          "name": "pyraMarket",
          "type": "address"
        }
      ],
      "stateMutability": "nonpayable",
      "type": "constructor"
    },
    {
      "inputs": [],
      "name": "ActionAlreadyExists",
      "type": "error"
    },
    {
      "inputs": [],
      "name": "ActionInvalid",
      "type": "error"
    },
    {
      "inputs": [],
      "name": "ActionNotExists",
      "type": "error"
    },
    {
      "inputs": [],
      "name": "ArrayLengthNotEqual",
      "type": "error"
    },
    {
      "inputs": [],
      "name": "ERC721EnumerableForbiddenBatchMint",
      "type": "error"
    },
    {
      "inputs": [
        {
          "internalType": "address",
          "name": "sender",
          "type": "address"
        },
        {
          "internalType": "uint256",
          "name": "tokenId",
          "type": "uint256"
        },
        {
          "internalType": "address",
          "name": "owner",
          "type": "address"
        }
      ],
      "name": "ERC721IncorrectOwner",
      "type": "error"
    },
    {
      "inputs": [
        {
          "internalType": "address",
          "name": "operator",
          "type": "address"
        },
        {
          "internalType": "uint256",
          "name": "tokenId",
          "type": "uint256"
        }
      ],
      "name": "ERC721InsufficientApproval",
      "type": "error"
    },
    {
      "inputs": [
        {
          "internalType": "address",
          "name": "approver",
          "type": "address"
        }
      ],
      "name": "ERC721InvalidApprover",
      "type": "error"
    },
    {
      "inputs": [
        {
          "internalType": "address",
          "name": "operator",
          "type": "address"
        }
      ],
      "name": "ERC721InvalidOperator",
      "type": "error"
    },
    {
      "inputs": [
        {
          "internalType": "address",
          "name": "owner",
          "type": "address"
        }
      ],
      "name": "ERC721InvalidOwner",
      "type": "error"
    },
    {
      "inputs": [
        {
          "internalType": "address",
          "name": "receiver",
          "type": "address"
        }
      ],
      "name": "ERC721InvalidReceiver",
      "type": "error"
    },
    {
      "inputs": [
        {
          "internalType": "address",
          "name": "sender",
          "type": "address"
        }
      ],
      "name": "ERC721InvalidSender",
      "type": "error"
    },
    {
      "inputs": [
        {
          "internalType": "uint256",
          "name": "tokenId",
          "type": "uint256"
        }
      ],
      "name": "ERC721NonexistentToken",
      "type": "error"
    },
    {
      "inputs": [
        {
          "internalType": "address",
          "name": "owner",
          "type": "address"
        },
        {
          "internalType": "uint256",
          "name": "index",
          "type": "uint256"
        }
      ],
      "name": "ERC721OutOfBoundsIndex",
      "type": "error"
    },
    {
      "inputs": [],
      "name": "InitializeActionFailed",
      "type": "error"
    },
    {
      "inputs": [],
      "name": "InsufficientPayment",
      "type": "error"
    },
    {
      "inputs": [],
      "name": "InvalidShortString",
      "type": "error"
    },
    {
      "inputs": [],
      "name": "InvalidTier",
      "type": "error"
    },
    {
      "inputs": [],
      "name": "NotAssetOwner",
      "type": "error"
    },
    {
      "inputs": [],
      "name": "NotOwner",
      "type": "error"
    },
    {
      "inputs": [],
      "name": "NotZoneOwner",
      "type": "error"
    },
    {
      "inputs": [],
      "name": "ProcessActionFailed",
      "type": "error"
    },
    {
      "inputs": [],
      "name": "PyraMarketShareNotCreated",
      "type": "error"
    },
    {
      "inputs": [],
      "name": "ReentrancyGuardReentrantCall",
      "type": "error"
    },
    {
      "inputs": [],
      "name": "ResourceNotExists",
      "type": "error"
    },
    {
      "inputs": [],
      "name": "SignatureExpired",
      "type": "error"
    },
    {
      "inputs": [],
      "name": "SignatureMismatch",
      "type": "error"
    },
    {
      "inputs": [
        {
          "internalType": "string",
          "name": "str",
          "type": "string"
        }
      ],
      "name": "StringTooLong",
      "type": "error"
    },
    {
      "inputs": [],
      "name": "TierkeyNotExpired",
      "type": "error"
    },
    {
      "inputs": [],
      "name": "TierkeyNotOwned",
      "type": "error"
    },
    {
      "inputs": [],
      "name": "UnableTransferToRevenuePool",
      "type": "error"
    },
    {
      "inputs": [],
      "name": "ZoneAlreadyPublished",
      "type": "error"
    },
    {
      "inputs": [],
      "name": "ZoneNotTransferable",
      "type": "error"
    },
    {
      "anonymous": false,
      "inputs": [
        {
          "indexed": true,
          "internalType": "address",
          "name": "owner",
          "type": "address"
        },
        {
          "indexed": true,
          "internalType": "address",
          "name": "approved",
          "type": "address"
        },
        {
          "indexed": true,
          "internalType": "uint256",
          "name": "tokenId",
          "type": "uint256"
        }
      ],
      "name": "Approval",
      "type": "event"
    },
    {
      "anonymous": false,
      "inputs": [
        {
          "indexed": true,
          "internalType": "address",
          "name": "owner",
          "type": "address"
        },
        {
          "indexed": true,
          "internalType": "address",
          "name": "operator",
          "type": "address"
        },
        {
          "indexed": false,
          "internalType": "bool",
          "name": "approved",
          "type": "bool"
        }
      ],
      "name": "ApprovalForAll",
      "type": "event"
    },
    {
      "anonymous": false,
      "inputs": [
        {
          "indexed": true,
          "internalType": "bytes32",
          "name": "assetId",
          "type": "bytes32"
        },
        {
          "indexed": true,
          "internalType": "address",
          "name": "actor",
          "type": "address"
        },
        {
          "indexed": false,
          "internalType": "uint256",
          "name": "actAt",
          "type": "uint256"
        },
        {
          "indexed": false,
          "internalType": "address[]",
          "name": "actions",
          "type": "address[]"
        },
        {
          "indexed": false,
          "internalType": "bytes[]",
          "name": "actionProcessDatas",
          "type": "bytes[]"
        },
        {
          "indexed": false,
          "internalType": "bytes[]",
          "name": "actionReturnDatas",
          "type": "bytes[]"
        }
      ],
      "name": "AssetActed",
      "type": "event"
    },
    {
      "anonymous": false,
      "inputs": [
        {
          "indexed": true,
          "internalType": "bytes32",
          "name": "assetId",
          "type": "bytes32"
        },
        {
          "indexed": false,
          "internalType": "address[]",
          "name": "actions",
          "type": "address[]"
        },
        {
          "indexed": false,
          "internalType": "bytes[]",
          "name": "actionInitDatas",
          "type": "bytes[]"
        }
      ],
      "name": "AssetActionsAdded",
      "type": "event"
    },
    {
      "anonymous": false,
      "inputs": [
        {
          "indexed": true,
          "internalType": "bytes32",
          "name": "assetId",
          "type": "bytes32"
        },
        {
          "indexed": true,
          "internalType": "address",
          "name": "publisher",
          "type": "address"
        },
        {
          "indexed": true,
          "internalType": "uint256",
          "name": "publicationId",
          "type": "uint256"
        },
        {
          "indexed": false,
          "internalType": "uint256",
          "name": "publishAt",
          "type": "uint256"
        },
        {
          "indexed": false,
          "internalType": "bytes",
          "name": "data",
          "type": "bytes"
        },
        {
          "indexed": false,
          "internalType": "address[]",
          "name": "actions",
          "type": "address[]"
        },
        {
          "indexed": false,
          "internalType": "bytes[]",
          "name": "actionInitDatas",
          "type": "bytes[]"
        }
      ],
      "name": "AssetPublished",
      "type": "event"
    },
    {
      "anonymous": false,
      "inputs": [],
      "name": "EIP712DomainChanged",
      "type": "event"
    },
    {
      "anonymous": false,
      "inputs": [
        {
          "indexed": true,
          "internalType": "bytes32",
          "name": "assetId",
          "type": "bytes32"
        },
        {
          "indexed": true,
          "internalType": "address",
          "name": "revenuePool",
          "type": "address"
        },
        {
          "indexed": false,
          "internalType": "uint256",
          "name": "skimAt",
          "type": "uint256"
        },
        {
          "indexed": false,
          "internalType": "address",
          "name": "skimmer",
          "type": "address"
        },
        {
          "indexed": false,
          "internalType": "uint256",
          "name": "skimAmount",
          "type": "uint256"
        }
      ],
      "name": "Skimed",
      "type": "event"
    },
    {
      "anonymous": false,
      "inputs": [
        {
          "indexed": true,
          "internalType": "bytes32",
          "name": "assetId",
          "type": "bytes32"
        },
        {
          "indexed": true,
          "internalType": "uint256",
          "name": "tier",
          "type": "uint256"
        },
        {
          "indexed": true,
          "internalType": "uint256",
          "name": "keyId",
          "type": "uint256"
        },
        {
          "indexed": false,
          "internalType": "uint256",
          "name": "buyAt",
          "type": "uint256"
        },
        {
          "indexed": false,
          "internalType": "address",
          "name": "trader",
          "type": "address"
        },
        {
          "indexed": false,
          "internalType": "uint256",
          "name": "keyPrice",
          "type": "uint256"
        }
      ],
      "name": "TierkeyBought",
      "type": "event"
    },
    {
      "anonymous": false,
      "inputs": [
        {
          "indexed": true,
          "internalType": "bytes32",
          "name": "assetId",
          "type": "bytes32"
        },
        {
          "indexed": true,
          "internalType": "uint256",
          "name": "tier",
          "type": "uint256"
        },
        {
          "indexed": true,
          "internalType": "address",
          "name": "tierkey",
          "type": "address"
        },
        {
          "indexed": false,
          "internalType": "uint256",
          "name": "expiration",
          "type": "uint256"
        }
      ],
      "name": "TierkeyCreated",
      "type": "event"
    },
    {
      "anonymous": false,
      "inputs": [
        {
          "indexed": true,
          "internalType": "bytes32",
          "name": "assetId",
          "type": "bytes32"
        },
        {
          "indexed": true,
          "internalType": "uint256",
          "name": "tier",
          "type": "uint256"
        },
        {
          "indexed": true,
          "internalType": "uint256",
          "name": "keyId",
          "type": "uint256"
        },
        {
          "indexed": false,
          "internalType": "uint256",
          "name": "liquidateAt",
          "type": "uint256"
        },
        {
          "indexed": false,
          "internalType": "address",
          "name": "liquidator",
          "type": "address"
        },
        {
          "indexed": false,
          "internalType": "uint256",
          "name": "keyPrice",
          "type": "uint256"
        }
      ],
      "name": "TierkeyLiquidated",
      "type": "event"
    },
    {
      "anonymous": false,
      "inputs": [
        {
          "indexed": true,
          "internalType": "bytes32",
          "name": "assetId",
          "type": "bytes32"
        },
        {
          "indexed": true,
          "internalType": "uint256",
          "name": "tier",
          "type": "uint256"
        },
        {
          "indexed": true,
          "internalType": "uint256",
          "name": "keyId",
          "type": "uint256"
        },
        {
          "indexed": false,
          "internalType": "uint256",
          "name": "sellAt",
          "type": "uint256"
        },
        {
          "indexed": false,
          "internalType": "address",
          "name": "trader",
          "type": "address"
        },
        {
          "indexed": false,
          "internalType": "uint256",
          "name": "keyPrice",
          "type": "uint256"
        },
        {
          "indexed": false,
          "internalType": "uint256",
          "name": "depreciatedKeyPrice",
          "type": "uint256"
        }
      ],
      "name": "TierkeySold",
      "type": "event"
    },
    {
      "anonymous": false,
      "inputs": [
        {
          "indexed": true,
          "internalType": "address",
          "name": "from",
          "type": "address"
        },
        {
          "indexed": true,
          "internalType": "address",
          "name": "to",
          "type": "address"
        },
        {
          "indexed": true,
          "internalType": "uint256",
          "name": "tokenId",
          "type": "uint256"
        }
      ],
      "name": "Transfer",
      "type": "event"
    },
    {
      "inputs": [],
      "name": "PYRA_MARKET",
      "outputs": [
        {
          "internalType": "contract PyraMarket",
          "name": "",
          "type": "address"
        }
      ],
      "stateMutability": "view",
      "type": "function"
    },
    {
      "inputs": [],
      "name": "TIERKEY_EXPIRATION",
      "outputs": [
        {
          "internalType": "uint256",
          "name": "",
          "type": "uint256"
        }
      ],
      "stateMutability": "view",
      "type": "function"
    },
    {
      "inputs": [
        {
          "components": [
            {
              "internalType": "bytes32",
              "name": "assetId",
              "type": "bytes32"
            },
            {
              "internalType": "address[]",
              "name": "actions",
              "type": "address[]"
            },
            {
              "internalType": "bytes[]",
              "name": "actionProcessDatas",
              "type": "bytes[]"
            }
          ],
          "internalType": "struct IDataMonetizer.ActParams",
          "name": "actParams",
          "type": "tuple"
        }
      ],
      "name": "act",
      "outputs": [
        {
          "internalType": "bytes[]",
          "name": "",
          "type": "bytes[]"
        }
      ],
      "stateMutability": "payable",
      "type": "function"
    },
    {
      "inputs": [
        {
          "components": [
            {
              "internalType": "bytes32",
              "name": "assetId",
              "type": "bytes32"
            },
            {
              "internalType": "address[]",
              "name": "actions",
              "type": "address[]"
            },
            {
              "internalType": "bytes[]",
              "name": "actionProcessDatas",
              "type": "bytes[]"
            }
          ],
          "internalType": "struct IDataMonetizer.ActParams",
          "name": "actParams",
          "type": "tuple"
        },
        {
          "components": [
            {
              "internalType": "address",
              "name": "signer",
              "type": "address"
            },
            {
              "internalType": "uint8",
              "name": "v",
              "type": "uint8"
            },
            {
              "internalType": "bytes32",
              "name": "r",
              "type": "bytes32"
            },
            {
              "internalType": "bytes32",
              "name": "s",
              "type": "bytes32"
            },
            {
              "internalType": "uint256",
              "name": "deadline",
              "type": "uint256"
            }
          ],
          "internalType": "struct IDataMonetizer.EIP712Signature",
          "name": "signature",
          "type": "tuple"
        }
      ],
      "name": "actWithSig",
      "outputs": [
        {
          "internalType": "bytes[]",
          "name": "",
          "type": "bytes[]"
        }
      ],
      "stateMutability": "payable",
      "type": "function"
    },
    {
      "inputs": [
        {
          "components": [
            {
              "internalType": "bytes32",
              "name": "assetId",
              "type": "bytes32"
            },
            {
              "internalType": "address[]",
              "name": "actions",
              "type": "address[]"
            },
            {
              "internalType": "bytes[]",
              "name": "actionInitDatas",
              "type": "bytes[]"
            }
          ],
          "internalType": "struct IDataMonetizer.AddActionsParams",
          "name": "addActionsParams",
          "type": "tuple"
        }
      ],
      "name": "addActions",
      "outputs": [],
      "stateMutability": "nonpayable",
      "type": "function"
    },
    {
      "inputs": [
        {
          "components": [
            {
              "internalType": "bytes32",
              "name": "assetId",
              "type": "bytes32"
            },
            {
              "internalType": "address[]",
              "name": "actions",
              "type": "address[]"
            },
            {
              "internalType": "bytes[]",
              "name": "actionInitDatas",
              "type": "bytes[]"
            }
          ],
          "internalType": "struct IDataMonetizer.AddActionsParams",
          "name": "addActionsParams",
          "type": "tuple"
        },
        {
          "components": [
            {
              "internalType": "address",
              "name": "signer",
              "type": "address"
            },
            {
              "internalType": "uint8",
              "name": "v",
              "type": "uint8"
            },
            {
              "internalType": "bytes32",
              "name": "r",
              "type": "bytes32"
            },
            {
              "internalType": "bytes32",
              "name": "s",
              "type": "bytes32"
            },
            {
              "internalType": "uint256",
              "name": "deadline",
              "type": "uint256"
            }
          ],
          "internalType": "struct IDataMonetizer.EIP712Signature",
          "name": "signature",
          "type": "tuple"
        }
      ],
      "name": "addActionsWithSig",
      "outputs": [],
      "stateMutability": "nonpayable",
      "type": "function"
    },
    {
      "inputs": [
        {
          "internalType": "address",
          "name": "to",
          "type": "address"
        },
        {
          "internalType": "uint256",
          "name": "tokenId",
          "type": "uint256"
        }
      ],
      "name": "approve",
      "outputs": [],
      "stateMutability": "nonpayable",
      "type": "function"
    },
    {
      "inputs": [
        {
          "internalType": "address",
          "name": "",
          "type": "address"
        }
      ],
      "name": "assetIdByPublisher",
      "outputs": [
        {
          "internalType": "bytes32",
          "name": "",
          "type": "bytes32"
        }
      ],
      "stateMutability": "view",
      "type": "function"
    },
    {
      "inputs": [
        {
          "internalType": "address",
          "name": "owner",
          "type": "address"
        }
      ],
      "name": "balanceOf",
      "outputs": [
        {
          "internalType": "uint256",
          "name": "",
          "type": "uint256"
        }
      ],
      "stateMutability": "view",
      "type": "function"
    },
    {
      "inputs": [
        {
          "internalType": "bytes32",
          "name": "assetId",
          "type": "bytes32"
        },
        {
          "internalType": "uint256",
          "name": "tier",
          "type": "uint256"
        }
      ],
      "name": "buyTierkey",
      "outputs": [
        {
          "internalType": "uint256",
          "name": "",
          "type": "uint256"
        }
      ],
      "stateMutability": "payable",
      "type": "function"
    },
    {
      "inputs": [
        {
          "internalType": "bytes32",
          "name": "assetId",
          "type": "bytes32"
        }
      ],
      "name": "createTierkey",
      "outputs": [
        {
          "internalType": "address",
          "name": "",
          "type": "address"
        }
      ],
      "stateMutability": "nonpayable",
      "type": "function"
    },
    {
      "inputs": [],
      "name": "eip712Domain",
      "outputs": [
        {
          "internalType": "bytes1",
          "name": "fields",
          "type": "bytes1"
        },
        {
          "internalType": "string",
          "name": "name",
          "type": "string"
        },
        {
          "internalType": "string",
          "name": "version",
          "type": "string"
        },
        {
          "internalType": "uint256",
          "name": "chainId",
          "type": "uint256"
        },
        {
          "internalType": "address",
          "name": "verifyingContract",
          "type": "address"
        },
        {
          "internalType": "bytes32",
          "name": "salt",
          "type": "bytes32"
        },
        {
          "internalType": "uint256[]",
          "name": "extensions",
          "type": "uint256[]"
        }
      ],
      "stateMutability": "view",
      "type": "function"
    },
    {
      "inputs": [
        {
          "internalType": "uint256",
          "name": "tokenId",
          "type": "uint256"
        }
      ],
      "name": "getApproved",
      "outputs": [
        {
          "internalType": "address",
          "name": "",
          "type": "address"
        }
      ],
      "stateMutability": "view",
      "type": "function"
    },
    {
      "inputs": [
        {
          "internalType": "bytes32",
          "name": "assetId",
          "type": "bytes32"
        }
      ],
      "name": "getAsset",
      "outputs": [
        {
          "components": [
            {
              "internalType": "bytes",
              "name": "data",
              "type": "bytes"
            },
            {
              "internalType": "uint256",
              "name": "publishAt",
              "type": "uint256"
            },
            {
              "internalType": "uint256",
              "name": "publicationId",
              "type": "uint256"
            },
            {
              "internalType": "address[]",
              "name": "actions",
              "type": "address[]"
            }
          ],
          "internalType": "struct IDataMonetizer.Asset",
          "name": "",
          "type": "tuple"
        }
      ],
      "stateMutability": "view",
      "type": "function"
    },
    {
      "inputs": [
        {
          "internalType": "bytes32",
          "name": "assetId",
          "type": "bytes32"
        }
      ],
      "name": "getAssetOwner",
      "outputs": [
        {
          "internalType": "address",
          "name": "",
          "type": "address"
        }
      ],
      "stateMutability": "view",
      "type": "function"
    },
    {
      "inputs": [],
      "name": "getDomainSeparator",
      "outputs": [
        {
          "internalType": "bytes32",
          "name": "",
          "type": "bytes32"
        }
      ],
      "stateMutability": "view",
      "type": "function"
    },
    {
      "inputs": [
        {
          "internalType": "address",
          "name": "signer",
          "type": "address"
        }
      ],
      "name": "getSigNonce",
      "outputs": [
        {
          "internalType": "uint256",
          "name": "",
          "type": "uint256"
        }
      ],
      "stateMutability": "view",
      "type": "function"
    },
    {
      "inputs": [
        {
          "internalType": "bytes32",
          "name": "assetId",
          "type": "bytes32"
        }
      ],
      "name": "getSkimStatus",
      "outputs": [
        {
          "components": [
            {
              "internalType": "uint256",
              "name": "balance",
              "type": "uint256"
            },
            {
              "internalType": "uint256",
              "name": "lastSkimAt",
              "type": "uint256"
            }
          ],
          "internalType": "struct IPyraZone.SkimStatus",
          "name": "",
          "type": "tuple"
        }
      ],
      "stateMutability": "view",
      "type": "function"
    },
    {
      "inputs": [
        {
          "internalType": "bytes32",
          "name": "assetId",
          "type": "bytes32"
        },
        {
          "internalType": "uint256",
          "name": "tier",
          "type": "uint256"
        },
        {
          "internalType": "enum IPyraZone.TradeType",
          "name": "tradeType",
          "type": "uint8"
        }
      ],
      "name": "getTierkeyPrice",
      "outputs": [
        {
          "internalType": "uint256",
          "name": "",
          "type": "uint256"
        }
      ],
      "stateMutability": "view",
      "type": "function"
    },
    {
      "inputs": [
        {
          "internalType": "bytes32",
          "name": "assetId",
          "type": "bytes32"
        },
        {
          "internalType": "uint256",
          "name": "tier",
          "type": "uint256"
        },
        {
          "internalType": "enum IPyraZone.TradeType",
          "name": "tradeType",
          "type": "uint8"
        }
      ],
      "name": "getTierkeyPriceAfterFee",
      "outputs": [
        {
          "internalType": "uint256",
          "name": "",
          "type": "uint256"
        }
      ],
      "stateMutability": "view",
      "type": "function"
    },
    {
      "inputs": [
        {
          "internalType": "bytes32",
          "name": "assetId",
          "type": "bytes32"
        }
      ],
      "name": "getZoneAsset",
      "outputs": [
        {
          "components": [
            {
              "internalType": "uint256",
              "name": "publishAt",
              "type": "uint256"
            },
            {
              "internalType": "uint256",
              "name": "publicationId",
              "type": "uint256"
            },
            {
              "internalType": "address[]",
              "name": "actions",
              "type": "address[]"
            },
            {
              "internalType": "address[]",
              "name": "tierkeys",
              "type": "address[]"
            }
          ],
          "internalType": "struct IPyraZone.ZoneAsset",
          "name": "",
          "type": "tuple"
        }
      ],
      "stateMutability": "view",
      "type": "function"
    },
    {
      "inputs": [
        {
          "internalType": "bytes32",
          "name": "assetId",
          "type": "bytes32"
        },
        {
          "internalType": "address",
          "name": "account",
          "type": "address"
        },
        {
          "internalType": "uint256",
          "name": "tier",
          "type": "uint256"
        }
      ],
      "name": "isAccessible",
      "outputs": [
        {
          "internalType": "bool",
          "name": "",
          "type": "bool"
        }
      ],
      "stateMutability": "view",
      "type": "function"
    },
    {
      "inputs": [
        {
          "internalType": "address",
          "name": "owner",
          "type": "address"
        },
        {
          "internalType": "address",
          "name": "operator",
          "type": "address"
        }
      ],
      "name": "isApprovedForAll",
      "outputs": [
        {
          "internalType": "bool",
          "name": "",
          "type": "bool"
        }
      ],
      "stateMutability": "view",
      "type": "function"
    },
    {
      "inputs": [
        {
          "internalType": "bytes32",
          "name": "assetId",
          "type": "bytes32"
        },
        {
          "internalType": "uint256",
          "name": "tier",
          "type": "uint256"
        },
        {
          "internalType": "uint256",
          "name": "keyId",
          "type": "uint256"
        }
      ],
      "name": "isTierkeyExpired",
      "outputs": [
        {
          "internalType": "bool",
          "name": "",
          "type": "bool"
        }
      ],
      "stateMutability": "view",
      "type": "function"
    },
    {
      "inputs": [
        {
          "internalType": "bytes32",
          "name": "assetId",
          "type": "bytes32"
        },
        {
          "internalType": "uint256",
          "name": "tier",
          "type": "uint256"
        },
        {
          "internalType": "uint256",
          "name": "keyId",
          "type": "uint256"
        }
      ],
      "name": "liquidateTierkey",
      "outputs": [],
      "stateMutability": "nonpayable",
      "type": "function"
    },
    {
      "inputs": [],
      "name": "name",
      "outputs": [
        {
          "internalType": "string",
          "name": "",
          "type": "string"
        }
      ],
      "stateMutability": "view",
      "type": "function"
    },
    {
      "inputs": [
        {
          "internalType": "uint256",
          "name": "tokenId",
          "type": "uint256"
        }
      ],
      "name": "ownerOf",
      "outputs": [
        {
          "internalType": "address",
          "name": "",
          "type": "address"
        }
      ],
      "stateMutability": "view",
      "type": "function"
    },
    {
      "inputs": [
        {
          "components": [
            {
              "internalType": "bytes",
              "name": "data",
              "type": "bytes"
            },
            {
              "internalType": "address[]",
              "name": "actions",
              "type": "address[]"
            },
            {
              "internalType": "bytes[]",
              "name": "actionInitDatas",
              "type": "bytes[]"
            }
          ],
          "internalType": "struct IDataMonetizer.PublishParams",
          "name": "publishParams",
          "type": "tuple"
        }
      ],
      "name": "publish",
      "outputs": [
        {
          "internalType": "bytes32",
          "name": "",
          "type": "bytes32"
        }
      ],
      "stateMutability": "payable",
      "type": "function"
    },
    {
      "inputs": [
        {
          "components": [
            {
              "internalType": "bytes",
              "name": "data",
              "type": "bytes"
            },
            {
              "internalType": "address[]",
              "name": "actions",
              "type": "address[]"
            },
            {
              "internalType": "bytes[]",
              "name": "actionInitDatas",
              "type": "bytes[]"
            }
          ],
          "internalType": "struct IDataMonetizer.PublishParams",
          "name": "publishParams",
          "type": "tuple"
        },
        {
          "components": [
            {
              "internalType": "address",
              "name": "signer",
              "type": "address"
            },
            {
              "internalType": "uint8",
              "name": "v",
              "type": "uint8"
            },
            {
              "internalType": "bytes32",
              "name": "r",
              "type": "bytes32"
            },
            {
              "internalType": "bytes32",
              "name": "s",
              "type": "bytes32"
            },
            {
              "internalType": "uint256",
              "name": "deadline",
              "type": "uint256"
            }
          ],
          "internalType": "struct IDataMonetizer.EIP712Signature",
          "name": "signature",
          "type": "tuple"
        }
      ],
      "name": "publishWithSig",
      "outputs": [
        {
          "internalType": "bytes32",
          "name": "",
          "type": "bytes32"
        }
      ],
      "stateMutability": "payable",
      "type": "function"
    },
    {
      "inputs": [
        {
          "internalType": "address",
          "name": "from",
          "type": "address"
        },
        {
          "internalType": "address",
          "name": "to",
          "type": "address"
        },
        {
          "internalType": "uint256",
          "name": "tokenId",
          "type": "uint256"
        }
      ],
      "name": "safeTransferFrom",
      "outputs": [],
      "stateMutability": "nonpayable",
      "type": "function"
    },
    {
      "inputs": [
        {
          "internalType": "address",
          "name": "from",
          "type": "address"
        },
        {
          "internalType": "address",
          "name": "to",
          "type": "address"
        },
        {
          "internalType": "uint256",
          "name": "tokenId",
          "type": "uint256"
        },
        {
          "internalType": "bytes",
          "name": "data",
          "type": "bytes"
        }
      ],
      "name": "safeTransferFrom",
      "outputs": [],
      "stateMutability": "nonpayable",
      "type": "function"
    },
    {
      "inputs": [
        {
          "internalType": "bytes32",
          "name": "assetId",
          "type": "bytes32"
        },
        {
          "internalType": "uint256",
          "name": "tier",
          "type": "uint256"
        },
        {
          "internalType": "uint256",
          "name": "keyId",
          "type": "uint256"
        }
      ],
      "name": "sellTierkey",
      "outputs": [],
      "stateMutability": "nonpayable",
      "type": "function"
    },
    {
      "inputs": [
        {
          "internalType": "address",
          "name": "operator",
          "type": "address"
        },
        {
          "internalType": "bool",
          "name": "approved",
          "type": "bool"
        }
      ],
      "name": "setApprovalForAll",
      "outputs": [],
      "stateMutability": "nonpayable",
      "type": "function"
    },
    {
      "inputs": [
        {
          "internalType": "bytes32",
          "name": "assetId",
          "type": "bytes32"
        }
      ],
      "name": "skim",
      "outputs": [],
      "stateMutability": "nonpayable",
      "type": "function"
    },
    {
      "inputs": [
        {
          "internalType": "bytes4",
          "name": "interfaceId",
          "type": "bytes4"
        }
      ],
      "name": "supportsInterface",
      "outputs": [
        {
          "internalType": "bool",
          "name": "",
          "type": "bool"
        }
      ],
      "stateMutability": "view",
      "type": "function"
    },
    {
      "inputs": [],
      "name": "symbol",
      "outputs": [
        {
          "internalType": "string",
          "name": "",
          "type": "string"
        }
      ],
      "stateMutability": "view",
      "type": "function"
    },
    {
      "inputs": [
        {
          "internalType": "uint256",
          "name": "index",
          "type": "uint256"
        }
      ],
      "name": "tokenByIndex",
      "outputs": [
        {
          "internalType": "uint256",
          "name": "",
          "type": "uint256"
        }
      ],
      "stateMutability": "view",
      "type": "function"
    },
    {
      "inputs": [
        {
          "internalType": "address",
          "name": "owner",
          "type": "address"
        },
        {
          "internalType": "uint256",
          "name": "index",
          "type": "uint256"
        }
      ],
      "name": "tokenOfOwnerByIndex",
      "outputs": [
        {
          "internalType": "uint256",
          "name": "",
          "type": "uint256"
        }
      ],
      "stateMutability": "view",
      "type": "function"
    },
    {
      "inputs": [
        {
          "internalType": "uint256",
          "name": "tokenId",
          "type": "uint256"
        }
      ],
      "name": "tokenURI",
      "outputs": [
        {
          "internalType": "string",
          "name": "",
          "type": "string"
        }
      ],
      "stateMutability": "view",
      "type": "function"
    },
    {
      "inputs": [],
      "name": "totalSupply",
      "outputs": [
        {
          "internalType": "uint256",
          "name": "",
          "type": "uint256"
        }
      ],
      "stateMutability": "view",
      "type": "function"
    },
    {
      "inputs": [
        {
          "internalType": "address",
          "name": "",
          "type": "address"
        },
        {
          "internalType": "address",
          "name": "",
          "type": "address"
        },
        {
          "internalType": "uint256",
          "name": "",
          "type": "uint256"
        }
      ],
      "name": "transferFrom",
      "outputs": [],
      "stateMutability": "pure",
      "type": "function"
    }
  ],
  "bytecode": {
    "object": "0x6101606040526000600d556301e133806011553480156200001f57600080fd5b50604051620052af380380620052af83398101604081905262000042916200024e565b60405180604001604052806008815260200167507972615a6f6e6560c01b815250604051806040016040528060018152602001603160f81b81525081816040518060400160405280600f81526020016e141d589b1a58d85d1a5bdb88139195608a1b81525060405180604001604052806002815260200161282760f11b8152508160009081620000d3919062000325565b506001620000e2828262000325565b50620000f49150839050600a620001c9565b610120526200010581600b620001c9565b61014052815160208084019190912060e052815190820120610100524660a0526200019360e05161010051604080517f8b73c3c69bb8fe3d512ecc4cf759cc79239f7b179b0ffacaa9a75d522b39400f60208201529081019290925260608201524660808201523060a082015260009060c00160405160208183030381529060405280519060200120905090565b60805250503060c05250506001600c55601080546001600160a01b0319166001600160a01b039290921691909117905562000466565b6000602083511015620001e957620001e18362000202565b9050620001fc565b81620001f6848262000325565b5060ff90505b92915050565b600080829050601f8151111562000239578260405163305a27a960e01b8152600401620002309190620003f1565b60405180910390fd5b8051620002468262000441565b179392505050565b6000602082840312156200026157600080fd5b81516001600160a01b03811681146200027957600080fd5b9392505050565b634e487b7160e01b600052604160045260246000fd5b600181811c90821680620002ab57607f821691505b602082108103620002cc57634e487b7160e01b600052602260045260246000fd5b50919050565b601f8211156200032057600081815260208120601f850160051c81016020861015620002fb5750805b601f850160051c820191505b818110156200031c5782815560010162000307565b5050505b505050565b81516001600160401b0381111562000341576200034162000280565b620003598162000352845462000296565b84620002d2565b602080601f831160018114620003915760008415620003785750858301515b600019600386901b1c1916600185901b1785556200031c565b600085815260208120601f198616915b82811015620003c257888601518255948401946001909101908401620003a1565b5085821015620003e15787850151600019600388901b60f8161c191681555b5050505050600190811b01905550565b600060208083528351808285015260005b81811015620004205785810183015185820160400152820162000402565b506000604082860101526040601f19601f8301168501019250505092915050565b80516020808301519190811015620002cc5760001960209190910360031b1b16919050565b60805160a05160c05160e051610100516101205161014051614dee620004c160003960006128670152600061283a01526000612f5b01526000612f3301526000612e8e01526000612eb801526000612ee20152614dee6000f3fe6080604052600436106102465760003560e01c8063888294a511610139578063b26459d1116100b6578063c87b56dd1161007a578063c87b56dd14610749578063c97bdc6a14610769578063d26fef7e1461077c578063e03e01631461079c578063e985e9c5146107af578063ed24911d146107cf57600080fd5b8063b26459d1146106b6578063b88d4fde146106d6578063bb9bc62a146106f6578063c0e26b4e14610709578063c2bb05a71461072957600080fd5b80639bbbcfd4116100fd5780639bbbcfd4146105b5578063a22cb465146105e2578063a7caaa2514610602578063a7d0973f1461062f578063adcec4a0146106a357600080fd5b8063888294a5146105205780638bb015541461054057806390f991621461056057806393dfe6e21461058057806395d89b41146105a057600080fd5b80632f745c59116101c75780635b8820061161018b5780635b882006146104785780636352211e1461049857806370a08231146104b857806377c3b02d146104d857806384b0196e146104f857600080fd5b80632f745c59146103d857806335d8c2b7146103f857806342842e0e14610418578063474a04d7146104385780634f6ccce71461045857600080fd5b806318160ddd1161020e57806318160ddd1461034057806321aeb89e1461035557806323b872dd1461036b578063262975841461038b5780632cc3ce80146103ab57600080fd5b806301ffc9a71461024b57806305ac0ab41461028057806306fdde03146102c4578063081812fc146102e6578063095ea7b31461031e575b600080fd5b34801561025757600080fd5b5061026b610266366004613b70565b6107e4565b60405190151581526020015b60405180910390f35b34801561028c57600080fd5b506102b661029b366004613ba2565b6001600160a01b03166000908152600e602052604090205490565b604051908152602001610277565b3480156102d057600080fd5b506102d961080f565b6040516102779190613c0f565b3480156102f257600080fd5b50610306610301366004613c22565b6108a1565b6040516001600160a01b039091168152602001610277565b34801561032a57600080fd5b5061033e610339366004613c3b565b6108ca565b005b34801561034c57600080fd5b506008546102b6565b34801561036157600080fd5b506102b660115481565b34801561037757600080fd5b5061033e610386366004613c67565b6108d9565b61039e610399366004613cd2565b6108f2565b6040516102779190613d78565b3480156103b757600080fd5b506103cb6103c6366004613c22565b610b41565b6040516102779190613dcf565b3480156103e457600080fd5b506102b66103f3366004613c3b565b610c93565b34801561040457600080fd5b50610306610413366004613c22565b610cfd565b34801561042457600080fd5b5061033e610433366004613c67565b610d18565b34801561044457600080fd5b50601054610306906001600160a01b031681565b34801561046457600080fd5b506102b6610473366004613c22565b610d38565b34801561048457600080fd5b5061033e610493366004613cd2565b610d91565b3480156104a457600080fd5b506103066104b3366004613c22565b610fc4565b3480156104c457600080fd5b506102b66104d3366004613ba2565b610fcf565b3480156104e457600080fd5b5061026b6104f3366004613e25565b611017565b34801561050457600080fd5b5061050d6110ae565b6040516102779796959493929190613e51565b34801561052c57600080fd5b506102b661053b366004613ee7565b6110f4565b34801561054c57600080fd5b5061030661055b366004613c22565b611176565b34801561056c57600080fd5b5061033e61057b366004613e25565b6112b2565b34801561058c57600080fd5b5061033e61059b366004613e25565b611437565b3480156105ac57600080fd5b506102d9611827565b3480156105c157600080fd5b506102b66105d0366004613ba2565b60126020526000908152604090205481565b3480156105ee57600080fd5b5061033e6105fd366004613f32565b611836565b34801561060e57600080fd5b5061062261061d366004613c22565b611841565b6040516102779190613f6b565b34801561063b57600080fd5b5061068861064a366004613c22565b604080518082019091526000808252602082015250600090815260146020908152604091829020825180840190935280548352600101549082015290565b60408051825181526020928301519281019290925201610277565b6102b66106b1366004613cd2565b611970565b3480156106c257600080fd5b5061033e6106d1366004613c22565b611aa2565b3480156106e257600080fd5b5061033e6106f13660046140a3565b611caa565b6102b661070436600461410e565b611cc7565b34801561071557600080fd5b5061026b610724366004614130565b611f61565b34801561073557600080fd5b5061033e610744366004614157565b611fe1565b34801561075557600080fd5b506102d9610764366004613c22565b612008565b6102b6610777366004614157565b61207c565b34801561078857600080fd5b506102b6610797366004613ee7565b6120a1565b61039e6107aa366004614157565b6120e2565b3480156107bb57600080fd5b5061026b6107ca366004614193565b6120f6565b3480156107db57600080fd5b506102b6612124565b60006001600160e01b031982166365016f0960e11b1480610809575061080982612133565b92915050565b60606000805461081e906141c1565b80601f016020809104026020016040519081016040528092919081815260200182805461084a906141c1565b80156108975780601f1061086c57610100808354040283529160200191610897565b820191906000526020600020905b81548152906001019060200180831161087a57829003601f168201915b5050505050905090565b60006108ac82612158565b506000828152600460205260409020546001600160a01b0316610809565b6108d5828233612191565b5050565b604051637224b66d60e11b815260040160405180910390fd5b60606108fc61219e565b6000610ade610aca6040518060a0016040528060678152602001614d526067913980519060200120866000013573__$aea9d1025abe8dd1cc7c323cf94e56b058$__6333983acb89806020019061095391906141f5565b6040518363ffffffff1660e01b8152600401610970929190614245565b602060405180830381865af415801561098d573d6000803e3d6000fd5b505050506040513d601f19601f820116820180604052508101906109b19190614293565b73__$aea9d1025abe8dd1cc7c323cf94e56b058$__639e22d70d6109d860408c018c6141f5565b6040518363ffffffff1660e01b81526004016109f592919061431a565b602060405180830381865af4158015610a12573d6000803e3d6000fd5b505050506040513d601f19601f82011682018060405250810190610a369190614293565b600e6000610a4760208c018c613ba2565b6001600160a01b0316815260208101919091526040016000908120805491610a6e83614396565b919050558960800135604051602001610aaf96959493929190958652602086019490945260408501929092526060840152608083015260a082015260c00190565b604051602081830303815290604052805190602001206121c8565b610ad9368690038601866143af565b6121f5565b90506001600160a01b038116610af76020850185613ba2565b6001600160a01b031614610b1e57604051630e751dc360e31b815260040160405180910390fd5b610b3484610b2f6020860186613ba2565b61228d565b9150506108096001600c55565b610b6c6040518060800160405280606081526020016000815260200160008152602001606081525090565b6000828152600f602052604090819020815160808101909252805482908290610b94906141c1565b80601f0160208091040260200160405190810160405280929190818152602001828054610bc0906141c1565b8015610c0d5780601f10610be257610100808354040283529160200191610c0d565b820191906000526020600020905b815481529060010190602001808311610bf057829003601f168201915b50505050508152602001600182015481526020016002820154815260200160038201805480602002602001604051908101604052809291908181526020018280548015610c8357602002820191906000526020600020905b81546001600160a01b03168152600190910190602001808311610c65575b5050505050815250509050919050565b6000610c9e83610fcf565b8210610cd45760405163295f44f760e21b81526001600160a01b0384166004820152602481018390526044015b60405180910390fd5b506001600160a01b03919091166000908152600660209081526040808320938352929052205490565b6000818152600f602052604081206002015461080990610fc4565b610d3383838360405180602001604052806000815250611caa565b505050565b6000610d4360085490565b8210610d6c5760405163295f44f760e21b81526000600482015260248101839052604401610ccb565b60088281548110610d7f57610d7f614436565b90600052602060002001549050919050565b610d9961219e565b6000610f5b610f4c6040518060a00160405280606b8152602001614ce7606b913980519060200120856000013573__$aea9d1025abe8dd1cc7c323cf94e56b058$__6333983acb888060200190610df091906141f5565b6040518363ffffffff1660e01b8152600401610e0d929190614245565b602060405180830381865af4158015610e2a573d6000803e3d6000fd5b505050506040513d601f19601f82011682018060405250810190610e4e9190614293565b73__$aea9d1025abe8dd1cc7c323cf94e56b058$__639e22d70d610e7560408b018b6141f5565b6040518363ffffffff1660e01b8152600401610e9292919061431a565b602060405180830381865af4158015610eaf573d6000803e3d6000fd5b505050506040513d601f19601f82011682018060405250810190610ed39190614293565b600e6000610ee460208b018b613ba2565b6001600160a01b0316815260208101919091526040016000908120805491610f0b83614396565b919050558860800135604051602001610aaf96959493929190958652602086019490945260408501929092526060840152608083015260a082015260c00190565b610ad9368590038501856143af565b90506001600160a01b038116610f746020840184613ba2565b6001600160a01b031614610f9b57604051630e751dc360e31b815260040160405180910390fd5b610fb9610fa784614552565b610fb46020850185613ba2565b612616565b506108d56001600c55565b600061080982612158565b60006001600160a01b038216610ffb576040516322718ad960e21b815260006004820152602401610ccb565b506001600160a01b031660009081526003602052604090205490565b604051636a4ea5c360e01b81526013600482015260248101849052604481018390526064810182905260009073__$dd49bfc565e991ec6280aabfed7babecee$__90636a4ea5c3906084015b602060405180830381865af4158015611080573d6000803e3d6000fd5b505050506040513d601f19601f820116820180604052508101906110a491906145c8565b90505b9392505050565b6000606080600080600060606110c2612833565b6110ca612860565b60408051600080825260208201909252600f60f81b9b939a50919850469750309650945092509050565b604051630156165760e11b815260009073__$dd49bfc565e991ec6280aabfed7babecee$__906302ac2cae90611135906013908890889088906004016145e5565b602060405180830381865af4158015611152573d6000803e3d6000fd5b505050506040513d601f19601f820116820180604052508101906110a49190614293565b60008061118283610cfd565b9050336001600160a01b038216146111ad57604051631f9079cb60e31b815260040160405180910390fd5b6010546040516336a5b50f60e01b815260136004820152602481018590526001600160a01b038084166044830152909116606482015260009073__$dd49bfc565e991ec6280aabfed7babecee$__906336a5b50f90608401602060405180830381865af4158015611222573d6000803e3d6000fd5b505050506040513d601f19601f820116820180604052508101906112469190614627565b6000858152601360205260409020549091506001600160a01b0382169061126f90600190614644565b857f1c1811af3000be792d212cc3a6197c9dd78517ca933bca7638dc6dda1842a8256011546040516112a391815260200190565b60405180910390a49392505050565b604051634e67cb4760e01b815260136004820152602481018490526044810183905273__$dd49bfc565e991ec6280aabfed7babecee$__90634e67cb479060640160006040518083038186803b15801561130b57600080fd5b505af415801561131f573d6000803e3d6000fd5b5050505061132e838383611017565b61134b5760405163fc8df69560e01b815260040160405180910390fd5b6000611359848460016110f4565b905061136484611aa2565b600084815260136020526040902080548490811061138457611384614436565b600091825260209091200154604051630852cd8d60e31b8152600481018490526001600160a01b03909116906342966c6890602401600060405180830381600087803b1580156113d357600080fd5b505af11580156113e7573d6000803e3d6000fd5b50506040805142815233602082015290810184905284925085915086907f830d8305a866c5ff4f9de153d8be9ad44696281b659ed7483f3b7741ab033b939060600160405180910390a450505050565b604051634e67cb4760e01b815260136004820152602481018490526044810183905273__$dd49bfc565e991ec6280aabfed7babecee$__90634e67cb479060640160006040518083038186803b15801561149057600080fd5b505af41580156114a4573d6000803e3d6000fd5b5050506000848152601360205260408120805491925090849081106114cb576114cb614436565b6000918252602090912001546040516331a9108f60e11b8152600481018490526001600160a01b03909116915033908290636352211e90602401602060405180830381865afa158015611522573d6000803e3d6000fd5b505050506040513d601f19601f820116820180604052508101906115469190614627565b6001600160a01b03161461156d5760405163baea711960e01b815260040160405180910390fd5b600061157b858560016110f4565b604051638ccccd7760e01b8152600481018590529091506000906001600160a01b03841690638ccccd7790602401606060405180830381865afa1580156115c6573d6000803e3d6000fd5b505050506040513d601f19601f820116820180604052508101906115ea9190614657565b905060006115f9878787611017565b611633578151602083015161160e9190614644565b825161161a9042614644565b6116249085614693565b61162e91906146aa565b611635565b825b905060006116438285614644565b905060006127106116566101f484614693565b61166091906146aa565b905060006127106116736101f485614693565b61167d91906146aa565b60008b8152601460205260408120805492935085929091906116a0908490614644565b909155506116af90508a610cfd565b6001600160a01b03166108fc839081150290604051600060405180830381858888f193505050501580156116e7573d6000803e3d6000fd5b506116f061288d565b6001600160a01b03166108fc829081150290604051600060405180830381858888f19350505050158015611728573d6000803e3d6000fd5b50336108fc826117388587614644565b6117429190614644565b6040518115909202916000818181858888f1935050505015801561176a573d6000803e3d6000fd5b506117748a611aa2565b604051630852cd8d60e31b8152600481018990526001600160a01b038816906342966c6890602401600060405180830381600087803b1580156117b657600080fd5b505af11580156117ca573d6000803e3d6000fd5b505060408051428152336020820152908101899052606081018790528a92508b91508c907f4c08e79f50b327929b928c804b39381859dfced6109fff8e6fb98d65a70cbd679060800160405180910390a450505050505050505050565b60606001805461081e906141c1565b6108d53383836128fb565b61186c6040518060800160405280600081526020016000815260200160608152602001606081525090565b604080516080810182526000848152600f602081815284832060018101548552600281015482860152928790529081526003909101805484518184028101840186528181529394850193928301828280156118f057602002820191906000526020600020905b81546001600160a01b031681526001909101906020018083116118d2575b505050505081526020016013600085815260200190815260200160002080548060200260200160405190810160405280929190818152602001828054801561196157602002820191906000526020600020905b81546001600160a01b03168152600190910190602001808311611943575b50505050508152509050919050565b600061197a61219e565b6000611a4c610aca6040518060a0016040528060638152602001614c8460639139805160209091012073__$aea9d1025abe8dd1cc7c323cf94e56b058$__638d849f436119c789806146cc565b6040518363ffffffff1660e01b81526004016119e4929190614712565b602060405180830381865af4158015611a01573d6000803e3d6000fd5b505050506040513d601f19601f82011682018060405250810190611a259190614293565b73__$aea9d1025abe8dd1cc7c323cf94e56b058$__6333983acb61095360208b018b6141f5565b90506001600160a01b038116611a656020850185613ba2565b6001600160a01b031614611a8c57604051630e751dc360e31b815260040160405180910390fd5b610b3484611a9d6020860186613ba2565b612992565b601154600082815260146020526040812060010154909190611ac49042614644565b600084815260146020526040902054611add9190614693565b611ae791906146aa565b6010549091506000906001600160a01b03166348b160fa611b0785610cfd565b6040516001600160e01b031960e084901b1681526001600160a01b039091166004820152602401606060405180830381865afa158015611b4b573d6000803e3d6000fd5b505050506040513d601f19601f82011682018060405250810190611b6f9190614726565b6020015190508115611c3c57600083815260146020526040902054821115611ba35760008381526014602052604090205491505b6000816001600160a01b03168360405160006040518083038185875af1925050503d8060008114611bf0576040519150601f19603f3d011682016040523d82523d6000602084013e611bf5565b606091505b5050905080611c17576040516371d49e3b60e11b815260040160405180910390fd5b60008481526014602052604081208054859290611c35908490614644565b9091555050505b600083815260146020908152604091829020426001909101819055825190815233918101919091529081018390526001600160a01b0382169084907fc1ad25adda5321ea08164479fad41abddcb8872a808ab780c5c6ea7a7b596416906060015b60405180910390a3505050565b611cb58484846108d9565b611cc184848484612cc6565b50505050565b604051634e67cb4760e01b815260136004820152602481018390526044810182905260009073__$dd49bfc565e991ec6280aabfed7babecee$__90634e67cb479060640160006040518083038186803b158015611d2357600080fd5b505af4158015611d37573d6000803e3d6000fd5b505050506000611d49848460006110f4565b90506000612710611d5c6101f484614693565b611d6691906146aa565b90506000612710611d796101f485614693565b611d8391906146aa565b905080611d908385614773565b611d9a9190614773565b341015611dba5760405163cd1c886760e01b815260040160405180910390fd5b611dc386610cfd565b6001600160a01b03166108fc839081150290604051600060405180830381858888f19350505050158015611dfb573d6000803e3d6000fd5b50611e0461288d565b6001600160a01b03166108fc829081150290604051600060405180830381858888f19350505050158015611e3c573d6000803e3d6000fd5b50611e4686611aa2565b60008681526014602052604081208054859290611e64908490614773565b90915550506000868152601360205260408120805487908110611e8957611e89614436565b60009182526020822001546011546040516340c10f1960e01b815233600482015260248101919091526001600160a01b03909116925082906340c10f19906044016020604051808303816000875af1158015611ee9573d6000803e3d6000fd5b505050506040513d601f19601f82011682018060405250810190611f0d9190614293565b60408051428152336020820152908101879052909150819088908a907f16db3a681573777272d1618adb8d07cec5fb3eafe79e0559ee0bf408cb6c43c39060600160405180910390a4979650505050505050565b6000611f6c84610cfd565b6001600160a01b0316836001600160a01b031603611f8c575060016110a7565b604051631ba74c3f60e11b815260136004820152602481018590526001600160a01b03841660448201526064810183905273__$dd49bfc565e991ec6280aabfed7babecee$__9063374e987e90608401611063565b611fe961219e565b611ffb611ff582614552565b33612616565b6120056001600c55565b50565b606061201382612158565b50600061202b60408051602081019091526000815290565b9050600081511161204b57604051806020016040528060008152506110a7565b8061205584612def565b604051602001612066929190614786565b6040516020818303038152906040529392505050565b600061208661219e565b6120908233612992565b905061209c6001600c55565b919050565b604051631392ca9360e21b815260009073__$dd49bfc565e991ec6280aabfed7babecee$__90634e4b2a4c90611135906013908890889088906004016145e5565b60606120ec61219e565b612090823361228d565b6001600160a01b03918216600090815260056020908152604080832093909416825291909152205460ff1690565b600061212e612e81565b905090565b60006001600160e01b0319821663780e9d6360e01b1480610809575061080982612fac565b6000818152600260205260408120546001600160a01b03168061080957604051637e27328960e01b815260048101849052602401610ccb565b610d338383836001612ffc565b6002600c54036121c157604051633ee5aeb560e01b815260040160405180910390fd5b6002600c55565b60006108096121d5612e81565b8360405161190160f01b8152600281019290925260228201526042902090565b6000428260800151101561221c57604051630819bdcd60e01b815260040160405180910390fd5b602080830151604080850151606080870151835160008082529681018086528a905260ff90951693850193909352830152608082015260019060a0016020604051602081039080840390855afa15801561227a573d6000803e3d6000fd5b5050604051601f19015195945050505050565b606061229c60408401846141f5565b90506122ab60208501856141f5565b9050146122cb576040516318c2d3e960e31b815260040160405180910390fd5b60005b6122db60208501856141f5565b90508110156123c3576000805b85356000908152600f60205260409020600301548110156123935785356000908152600f6020526040902060030180548290811061232857612328614436565b600091825260209182902001546001600160a01b03169061234b908801886141f5565b8581811061235b5761235b614436565b90506020020160208101906123709190613ba2565b6001600160a01b03160361238357600191505b61238c81614396565b90506122e8565b50806123b257604051632b52c85160e21b815260040160405180910390fd5b506123bc81614396565b90506122ce565b506123d160208401846141f5565b90506001600160401b038111156123ea576123ea613fb8565b60405190808252806020026020018201604052801561241d57816020015b60608152602001906001900390816124085790505b50905060005b61243060208501856141f5565b90508110156125ac5760008061244960208701876141f5565b8481811061245957612459614436565b905060200201602081019061246e9190613ba2565b6001600160a01b03163463ce79d4bd60e01b88358861249060408c018c6141f5565b898181106124a0576124a0614436565b90506020028101906124b291906146cc565b6040516024016124c594939291906147b5565b60408051601f198184030181529181526020820180516001600160e01b03166001600160e01b031990941693909317909252905161250391906147ea565b60006040518083038185875af1925050503d8060008114612540576040519150601f19603f3d011682016040523d82523d6000602084013e612545565b606091505b5091509150816125685760405163d0a0e22560e01b815260040160405180910390fd5b8080602001905181019061257c9190614806565b84848151811061258e5761258e614436565b60200260200101819052505050806125a590614396565b9050612423565b506001600160a01b03821683357f08811d58bb5109a088c920f90db784a88b462bcbcb7cc7aa359a38cf9d377ca3426125e860208801886141f5565b6125f560408a018a6141f5565b8860405161260896959493929190614901565b60405180910390a392915050565b81516126229082613102565b61262f826020015161313c565b81604001515182602001515114612659576040516318c2d3e960e31b815260040160405180910390fd5b60005b8260200151518110156127e957600f6000846000015181526020019081526020016000206003018360200151828151811061269957612699614436565b602090810291909101810151825460018101845560009384528284200180546001600160a01b0319166001600160a01b039092169190911790558401518051839081106126e8576126e8614436565b60200260200101516001600160a01b03163463db86aeea60e01b86600001518760400151868151811061271d5761271d614436565b602002602001015160405160240161273692919061494f565b60408051601f198184030181529181526020820180516001600160e01b03166001600160e01b031990941693909317909252905161277491906147ea565b60006040518083038185875af1925050503d80600081146127b1576040519150601f19603f3d011682016040523d82523d6000602084013e6127b6565b606091505b50509050806127d85760405163d840c6d960e01b815260040160405180910390fd5b506127e281614396565b905061265c565b5081600001517e67ace43f65e366bebbd59b5a6037e773324300314768487976539a2c5e78f483602001518460400151604051612827929190614968565b60405180910390a25050565b606061212e7f0000000000000000000000000000000000000000000000000000000000000000600a613202565b606061212e7f0000000000000000000000000000000000000000000000000000000000000000600b613202565b6010546040805163803db96d60e01b815290516000926001600160a01b03169163803db96d9160048083019260209291908290030181865afa1580156128d7573d6000803e3d6000fd5b505050506040513d601f19601f8201168201806040525081019061212e9190614627565b6001600160a01b03821661292d57604051630b61174360e31b81526001600160a01b0383166004820152602401610ccb565b6001600160a01b03838116600081815260056020908152604080832094871680845294825291829020805460ff191686151590811790915591519182527f17307eab39ab6107e8899845ad3d59bd9653f200f220920489ca2b5937696c319101611c9d565b60006129db6129a460208501856141f5565b8080602002602001604051908101604052809392919081815260200183836020028082843760009201919091525061313c92505050565b60006129ef6129e98561498d565b846132ad565b905060006129fc846132e4565b604080516080810190915290915080612a1587806146cc565b8080601f0160208091040260200160405190810160405280939291908181526020018383808284376000920191909152505050908252504260208083019190915260408201849052606090910190612a6f908801886141f5565b808060200260200160405190810160405280939291908181526020018383602002808284376000920182905250939094525050848152600f6020526040902082519091508190612abf9082614a2e565b5060208281015160018301556040830151600283015560608301518051612aec9260038501920190613ae0565b5090505060005b612b0060208701876141f5565b9050811015612c44576000612b1860208801886141f5565b83818110612b2857612b28614436565b9050602002016020810190612b3d9190613ba2565b6001600160a01b031634636dc3577560e11b86612b5d60408c018c6141f5565b87818110612b6d57612b6d614436565b9050602002810190612b7f91906146cc565b604051602401612b9193929190614aed565b60408051601f198184030181529181526020820180516001600160e01b03166001600160e01b0319909416939093179092529051612bcf91906147ea565b60006040518083038185875af1925050503d8060008114612c0c576040519150601f19603f3d011682016040523d82523d6000602084013e612c11565b606091505b5050905080612c335760405163d840c6d960e01b815260040160405180910390fd5b50612c3d81614396565b9050612af3565b50806001600160a01b038516837f9330feff209cec97e87601ad923fb4697bba4ea3f409d9a21114b589a5c93c6142612c7d8a806146cc565b612c8a60208d018d6141f5565b612c9760408f018f6141f5565b604051612caa9796959493929190614b07565b60405180910390a4612cbe85858385613305565b509392505050565b6001600160a01b0383163b15611cc157604051630a85bd0160e11b81526001600160a01b0384169063150b7a0290612d08903390889087908790600401614b57565b6020604051808303816000875af1925050508015612d43575060408051601f3d908101601f19168201909252612d4091810190614b8a565b60015b612dac573d808015612d71576040519150601f19603f3d011682016040523d82523d6000602084013e612d76565b606091505b508051600003612da457604051633250574960e11b81526001600160a01b0385166004820152602401610ccb565b805181602001fd5b6001600160e01b03198116630a85bd0160e11b14612de857604051633250574960e11b81526001600160a01b0385166004820152602401610ccb565b5050505050565b60606000612dfc836134ee565b60010190506000816001600160401b03811115612e1b57612e1b613fb8565b6040519080825280601f01601f191660200182016040528015612e45576020820181803683370190505b5090508181016020015b600019016f181899199a1a9b1b9c1cb0b131b232b360811b600a86061a8153600a8504945084612e4f57509392505050565b6000306001600160a01b037f000000000000000000000000000000000000000000000000000000000000000016148015612eda57507f000000000000000000000000000000000000000000000000000000000000000046145b15612f0457507f000000000000000000000000000000000000000000000000000000000000000090565b61212e604080517f8b73c3c69bb8fe3d512ecc4cf759cc79239f7b179b0ffacaa9a75d522b39400f60208201527f0000000000000000000000000000000000000000000000000000000000000000918101919091527f000000000000000000000000000000000000000000000000000000000000000060608201524660808201523060a082015260009060c00160405160208183030381529060405280519060200120905090565b60006001600160e01b031982166380ac58cd60e01b1480612fdd57506001600160e01b03198216635b5e139f60e01b145b8061080957506301ffc9a760e01b6001600160e01b0319831614610809565b808061301057506001600160a01b03821615155b156130d257600061302084612158565b90506001600160a01b0383161580159061304c5750826001600160a01b0316816001600160a01b031614155b801561305f575061305d81846120f6565b155b156130885760405163a9fbf51f60e01b81526001600160a01b0384166004820152602401610ccb565b81156130d05783856001600160a01b0316826001600160a01b03167f8c5be1e5ebec7d5bd14f71427d1e84f3dd0314c0f7b2291e5b200ac8c7c3b92560405160405180910390a45b505b5050600090815260046020526040902080546001600160a01b0319166001600160a01b0392909216919091179055565b806001600160a01b031661311583610cfd565b6001600160a01b0316146108d557604051637d387f3960e01b815260040160405180910390fd5b60005b81518110156108d55781818151811061315a5761315a614436565b60209081029190910101516040516301ffc9a760e01b8152631066d55960e11b60048201526001600160a01b03909116906301ffc9a790602401602060405180830381865afa1580156131b1573d6000803e3d6000fd5b505050506040513d601f19601f820116820180604052508101906131d591906145c8565b6131f25760405163251cb21f60e01b815260040160405180910390fd5b6131fb81614396565b905061313f565b606060ff831461321c57613215836135c6565b9050610809565b818054613228906141c1565b80601f0160208091040260200160405190810160405280929190818152602001828054613254906141c1565b80156132a15780601f10613276576101008083540402835291602001916132a1565b820191906000526020600020905b81548152906001019060200180831161328457829003601f168201915b50505050509050610809565b6000828230426040516020016132c69493929190614ba7565b60405160208183030381529060405280519060200120905092915050565b600d80549061209c908390839060006132fc83614396565b91905055613605565b6001600160a01b0383166000908152601260205260409020541561333c5760405163cc4071c960e01b815260040160405180910390fd5b6001600160a01b038381166000818152601260205260408082208590556010549051632458b07d60e11b81526004810193909352909216906348b160fa90602401606060405180830381865afa15801561339a573d6000803e3d6000fd5b505050506040513d601f19601f820116820180604052508101906133be9190614726565b80519091506001600160a01b03166133e85760405162f31e0b60e81b815260040160405180910390fd5b6010546040516336a5b50f60e01b815260136004820152602481018490526001600160a01b038087166044830152909116606482015260009073__$dd49bfc565e991ec6280aabfed7babecee$__906336a5b50f90608401602060405180830381865af415801561345d573d6000803e3d6000fd5b505050506040513d601f19601f820116820180604052508101906134819190614627565b6000848152601360205260409020549091506001600160a01b038216906134aa90600190614644565b847f1c1811af3000be792d212cc3a6197c9dd78517ca933bca7638dc6dda1842a8256011546040516134de91815260200190565b60405180910390a4505050505050565b60008072184f03e93ff9f4daa797ed6e38ed64bf6a1f0160401b831061352d5772184f03e93ff9f4daa797ed6e38ed64bf6a1f0160401b830492506040015b6d04ee2d6d415b85acef81000000008310613559576d04ee2d6d415b85acef8100000000830492506020015b662386f26fc10000831061357757662386f26fc10000830492506010015b6305f5e100831061358f576305f5e100830492506008015b61271083106135a357612710830492506004015b606483106135b5576064830492506002015b600a83106108095760010192915050565b606060006135d38361361f565b604080516020808252818301909252919250600091906020820181803683375050509182525060208101929092525090565b6108d5828260405180602001604052806000815250613647565b600060ff8216601f81111561080957604051632cd44ac360e21b815260040160405180910390fd5b613651838361365e565b610d336000848484612cc6565b6001600160a01b03821661368857604051633250574960e11b815260006004820152602401610ccb565b6000613696838360006136c3565b90506001600160a01b03811615610d33576040516339e3563760e11b815260006004820152602401610ccb565b6000806136d1858585613790565b90506001600160a01b03811661372e5761372984600880546000838152600960205260408120829055600182018355919091527ff3f7a9fe364faab93b216da50a3214154f22a0a2b415b23a84c8169e8b636ee30155565b613751565b846001600160a01b0316816001600160a01b031614613751576137518185613889565b6001600160a01b03851661376d576137688461391a565b6110a4565b846001600160a01b0316816001600160a01b0316146110a4576110a485856139c9565b6000828152600260205260408120546001600160a01b03908116908316156137bd576137bd818486613a19565b6001600160a01b038116156137fb576137da600085600080612ffc565b6001600160a01b038116600090815260036020526040902080546000190190555b6001600160a01b0385161561382a576001600160a01b0385166000908152600360205260409020805460010190555b60008481526002602052604080822080546001600160a01b0319166001600160a01b0389811691821790925591518793918516917fddf252ad1be2c89b69c2b068fc378daa952ba7f163c4a11628f55a4df523b3ef91a4949350505050565b600061389483610fcf565b6000838152600760205260409020549091508082146138e7576001600160a01b03841660009081526006602090815260408083208584528252808320548484528184208190558352600790915290208190555b5060009182526007602090815260408084208490556001600160a01b039094168352600681528383209183525290812055565b60085460009061392c90600190614644565b6000838152600960205260408120546008805493945090928490811061395457613954614436565b90600052602060002001549050806008838154811061397557613975614436565b60009182526020808320909101929092558281526009909152604080822084905585825281205560088054806139ad576139ad614c6d565b6001900381819060005260206000200160009055905550505050565b600060016139d684610fcf565b6139e09190614644565b6001600160a01b039093166000908152600660209081526040808320868452825280832085905593825260079052919091209190915550565b613a24838383613a7d565b610d33576001600160a01b038316613a5257604051637e27328960e01b815260048101829052602401610ccb565b60405163177e802f60e01b81526001600160a01b038316600482015260248101829052604401610ccb565b60006001600160a01b038316158015906110a45750826001600160a01b0316846001600160a01b03161480613ab75750613ab784846120f6565b806110a45750506000908152600460205260409020546001600160a01b03908116911614919050565b828054828255906000526020600020908101928215613b35579160200282015b82811115613b3557825182546001600160a01b0319166001600160a01b03909116178255602090920191600190910190613b00565b50613b41929150613b45565b5090565b5b80821115613b415760008155600101613b46565b6001600160e01b03198116811461200557600080fd5b600060208284031215613b8257600080fd5b81356110a781613b5a565b6001600160a01b038116811461200557600080fd5b600060208284031215613bb457600080fd5b81356110a781613b8d565b60005b83811015613bda578181015183820152602001613bc2565b50506000910152565b60008151808452613bfb816020860160208601613bbf565b601f01601f19169290920160200192915050565b6020815260006110a76020830184613be3565b600060208284031215613c3457600080fd5b5035919050565b60008060408385031215613c4e57600080fd5b8235613c5981613b8d565b946020939093013593505050565b600080600060608486031215613c7c57600080fd5b8335613c8781613b8d565b92506020840135613c9781613b8d565b929592945050506040919091013590565b600060608284031215613cba57600080fd5b50919050565b600060a08284031215613cba57600080fd5b60008060c08385031215613ce557600080fd5b82356001600160401b03811115613cfb57600080fd5b613d0785828601613ca8565b925050613d178460208501613cc0565b90509250929050565b600082825180855260208086019550808260051b84010181860160005b84811015613d6b57601f19868403018952613d59838351613be3565b98840198925090830190600101613d3d565b5090979650505050505050565b6020815260006110a76020830184613d20565b600081518084526020808501945080840160005b83811015613dc45781516001600160a01b031687529582019590820190600101613d9f565b509495945050505050565b602081526000825160806020840152613deb60a0840182613be3565b905060208401516040840152604084015160608401526060840151601f19848303016080850152613e1c8282613d8b565b95945050505050565b600080600060608486031215613e3a57600080fd5b505081359360208301359350604090920135919050565b60ff60f81b881681526000602060e081840152613e7160e084018a613be3565b8381036040850152613e83818a613be3565b606085018990526001600160a01b038816608086015260a0850187905284810360c0860152855180825283870192509083019060005b81811015613ed557835183529284019291840191600101613eb9565b50909c9b505050505050505050505050565b600080600060608486031215613efc57600080fd5b8335925060208401359150604084013560028110613f1957600080fd5b809150509250925092565b801515811461200557600080fd5b60008060408385031215613f4557600080fd5b8235613f5081613b8d565b91506020830135613f6081613f24565b809150509250929050565b6020815281516020820152602082015160408201526000604083015160806060840152613f9b60a0840182613d8b565b90506060840151601f19848303016080850152613e1c8282613d8b565b634e487b7160e01b600052604160045260246000fd5b604051606081016001600160401b0381118282101715613ff057613ff0613fb8565b60405290565b604051601f8201601f191681016001600160401b038111828210171561401e5761401e613fb8565b604052919050565b60006001600160401b0382111561403f5761403f613fb8565b50601f01601f191660200190565b600082601f83011261405e57600080fd5b813561407161406c82614026565b613ff6565b81815284602083860101111561408657600080fd5b816020850160208301376000918101602001919091529392505050565b600080600080608085870312156140b957600080fd5b84356140c481613b8d565b935060208501356140d481613b8d565b92506040850135915060608501356001600160401b038111156140f657600080fd5b6141028782880161404d565b91505092959194509250565b6000806040838503121561412157600080fd5b50508035926020909101359150565b60008060006060848603121561414557600080fd5b833592506020840135613c9781613b8d565b60006020828403121561416957600080fd5b81356001600160401b0381111561417f57600080fd5b61418b84828501613ca8565b949350505050565b600080604083850312156141a657600080fd5b82356141b181613b8d565b91506020830135613f6081613b8d565b600181811c908216806141d557607f821691505b602082108103613cba57634e487b7160e01b600052602260045260246000fd5b6000808335601e1984360301811261420c57600080fd5b8301803591506001600160401b0382111561422657600080fd5b6020019150600581901b360382131561423e57600080fd5b9250929050565b60208082528181018390526000908460408401835b8681101561428857823561426d81613b8d565b6001600160a01b03168252918301919083019060010161425a565b509695505050505050565b6000602082840312156142a557600080fd5b5051919050565b81835281816020850137506000828201602090810191909152601f909101601f19169091010190565b6000808335601e198436030181126142ec57600080fd5b83016020810192503590506001600160401b0381111561430b57600080fd5b80360382131561423e57600080fd5b60208082528181018390526000906040600585901b8401810190840186845b8781101561437357868403603f19018352614354828a6142d5565b61435f8682846142ac565b955050509184019190840190600101614339565b5091979650505050505050565b634e487b7160e01b600052601160045260246000fd5b6000600182016143a8576143a8614380565b5060010190565b600060a082840312156143c157600080fd5b60405160a081018181106001600160401b03821117156143e3576143e3613fb8565b60405282356143f181613b8d565b8152602083013560ff8116811461440757600080fd5b806020830152506040830135604082015260608301356060820152608083013560808201528091505092915050565b634e487b7160e01b600052603260045260246000fd5b60006001600160401b0382111561446557614465613fb8565b5060051b60200190565b600082601f83011261448057600080fd5b8135602061449061406c8361444c565b82815260059290921b840181019181810190868411156144af57600080fd5b8286015b848110156142885780356144c681613b8d565b83529183019183016144b3565b600082601f8301126144e457600080fd5b813560206144f461406c8361444c565b82815260059290921b8401810191818101908684111561451357600080fd5b8286015b848110156142885780356001600160401b038111156145365760008081fd5b6145448986838b010161404d565b845250918301918301614517565b60006060823603121561456457600080fd5b61456c613fce565b8235815260208301356001600160401b038082111561458a57600080fd5b6145963683870161446f565b602084015260408501359150808211156145af57600080fd5b506145bc368286016144d3565b60408301525092915050565b6000602082840312156145da57600080fd5b81516110a781613f24565b8481526020810184905260408101839052608081016002831061461857634e487b7160e01b600052602160045260246000fd5b82606083015295945050505050565b60006020828403121561463957600080fd5b81516110a781613b8d565b8181038181111561080957610809614380565b60006060828403121561466957600080fd5b614671613fce565b8251815260208301516020820152604083015160408201528091505092915050565b808202811582820484141761080957610809614380565b6000826146c757634e487b7160e01b600052601260045260246000fd5b500490565b6000808335601e198436030181126146e357600080fd5b8301803591506001600160401b038211156146fd57600080fd5b60200191503681900382131561423e57600080fd5b6020815260006110a46020830184866142ac565b60006060828403121561473857600080fd5b614740613fce565b825161474b81613b8d565b8152602083015161475b81613b8d565b60208201526040928301519281019290925250919050565b8082018082111561080957610809614380565b60008351614798818460208801613bbf565b8351908301906147ac818360208801613bbf565b01949350505050565b8481526001600160a01b03841660208201526060604082018190526000906147e090830184866142ac565b9695505050505050565b600082516147fc818460208701613bbf565b9190910192915050565b60006020828403121561481857600080fd5b81516001600160401b0381111561482e57600080fd5b8201601f8101841361483f57600080fd5b805161484d61406c82614026565b81815285602083850101111561486257600080fd5b613e1c826020830160208601613bbf565b8183526000602080850194508260005b85811015613dc457813561489681613b8d565b6001600160a01b031687529582019590820190600101614883565b81835260006020808501808196508560051b810191508460005b878110156143735782840389526148e282886142d5565b6148ed8682846142ac565b9a87019a95505050908401906001016148cb565b86815260806020820152600061491b608083018789614873565b828103604084015261492e8186886148b1565b905082810360608401526149428185613d20565b9998505050505050505050565b8281526040602082015260006110a46040830184613be3565b60408152600061497b6040830185613d8b565b8281036020840152613e1c8185613d20565b60006060823603121561499f57600080fd5b6149a7613fce565b82356001600160401b03808211156149be57600080fd5b6149ca3683870161404d565b8352602085013591508082111561458a57600080fd5b601f821115610d3357600081815260208120601f850160051c81016020861015614a075750805b601f850160051c820191505b81811015614a2657828155600101614a13565b505050505050565b81516001600160401b03811115614a4757614a47613fb8565b614a5b81614a5584546141c1565b846149e0565b602080601f831160018114614a905760008415614a785750858301515b600019600386901b1c1916600185901b178555614a26565b600085815260208120601f198616915b82811015614abf57888601518255948401946001909101908401614aa0565b5085821015614add5787850151600019600388901b60f8161c191681555b5050505050600190811b01905550565b838152604060208201526000613e1c6040830184866142ac565b878152608060208201526000614b2160808301888a6142ac565b8281036040840152614b34818789614873565b90508281036060840152614b498185876148b1565b9a9950505050505050505050565b6001600160a01b03858116825284166020820152604081018390526080606082018190526000906147e090830184613be3565b600060208284031215614b9c57600080fd5b81516110a781613b5a565b608081526000855160606080840152614bc360e0840182613be3565b9050602080880151607f19808685030160a0870152614be28483613d8b565b60408b015187820390920160c08801528151808252909450908301915082840190600581901b8501840160005b82811015614c3d57601f19878303018452614c2b828651613be3565b94860194938601939150600101614c0f565b506001600160a01b038b16858901529550614c5792505050565b50506001600160a01b0384166040830152614618565b634e487b7160e01b600052603160045260246000fdfe5075626c6973685769746853696728627974657320646174612c616464726573735b5d20616374696f6e732c62797465735b5d20616374696f6e496e697444617461732c75696e74323536206e6f6e63652c75696e7432353620646561646c696e6529416464416374696f6e7357697468536967286279746573333220617373657449642c616464726573735b5d20616374696f6e732c62797465735b5d20616374696f6e496e697444617461732c75696e74323536206e6f6e63652c75696e7432353620646561646c696e652941637457697468536967286279746573333220617373657449642c616464726573735b5d20616374696f6e732c62797465735b5d20616374696f6e50726f6365737344617461732c75696e74323536206e6f6e63652c75696e7432353620646561646c696e6529a2646970667358221220e08746141c80c2bc9650626139bb0b92041d70b23eb1939709e6ffd517d1852264736f6c63430008150033",
    "linkReferences": {
      "contracts/libraries/PyraZoneLib.sol": {
        "PyraZoneLib": [
          {
            "start": 5382,
            "length": 20
          },
          {
            "start": 5575,
            "length": 20
          },
          {
            "start": 5801,
            "length": 20
          },
          {
            "start": 6039,
            "length": 20
          },
          {
            "start": 6428,
            "length": 20
          },
          {
            "start": 8623,
            "length": 20
          },
          {
            "start": 9344,
            "length": 20
          },
          {
            "start": 9588,
            "length": 20
          },
          {
            "start": 14564,
            "length": 20
          }
        ]
      },
      "node_modules/@pyra-marketplace/assets-core/contracts/libraries/EIP712Encoder.sol": {
        "EIP712Encoder": [
          {
            "start": 3564,
            "length": 20
          },
          {
            "start": 3700,
            "length": 20
          },
          {
            "start": 4745,
            "length": 20
          },
          {
            "start": 4881,
            "length": 20
          },
          {
            "start": 7782,
            "length": 20
          },
          {
            "start": 7912,
            "length": 20
          }
        ]
      }
    }
  },
  "methodIdentifiers": {
    "PYRA_MARKET()": "474a04d7",
    "TIERKEY_EXPIRATION()": "21aeb89e",
    "act((bytes32,address[],bytes[]))": "e03e0163",
    "actWithSig((bytes32,address[],bytes[]),(address,uint8,bytes32,bytes32,uint256))": "26297584",
    "addActions((bytes32,address[],bytes[]))": "c2bb05a7",
    "addActionsWithSig((bytes32,address[],bytes[]),(address,uint8,bytes32,bytes32,uint256))": "5b882006",
    "approve(address,uint256)": "095ea7b3",
    "assetIdByPublisher(address)": "9bbbcfd4",
    "balanceOf(address)": "70a08231",
    "buyTierkey(bytes32,uint256)": "bb9bc62a",
    "createTierkey(bytes32)": "8bb01554",
    "eip712Domain()": "84b0196e",
    "getApproved(uint256)": "081812fc",
    "getAsset(bytes32)": "2cc3ce80",
    "getAssetOwner(bytes32)": "35d8c2b7",
    "getDomainSeparator()": "ed24911d",
    "getSigNonce(address)": "05ac0ab4",
    "getSkimStatus(bytes32)": "a7d0973f",
    "getTierkeyPrice(bytes32,uint256,uint8)": "888294a5",
    "getTierkeyPriceAfterFee(bytes32,uint256,uint8)": "d26fef7e",
    "getZoneAsset(bytes32)": "a7caaa25",
    "isAccessible(bytes32,address,uint256)": "c0e26b4e",
    "isApprovedForAll(address,address)": "e985e9c5",
    "isTierkeyExpired(bytes32,uint256,uint256)": "77c3b02d",
    "liquidateTierkey(bytes32,uint256,uint256)": "90f99162",
    "name()": "06fdde03",
    "ownerOf(uint256)": "6352211e",
    "publish((bytes,address[],bytes[]))": "c97bdc6a",
    "publishWithSig((bytes,address[],bytes[]),(address,uint8,bytes32,bytes32,uint256))": "adcec4a0",
    "safeTransferFrom(address,address,uint256)": "42842e0e",
    "safeTransferFrom(address,address,uint256,bytes)": "b88d4fde",
    "sellTierkey(bytes32,uint256,uint256)": "93dfe6e2",
    "setApprovalForAll(address,bool)": "a22cb465",
    "skim(bytes32)": "b26459d1",
    "supportsInterface(bytes4)": "01ffc9a7",
    "symbol()": "95d89b41",
    "tokenByIndex(uint256)": "4f6ccce7",
    "tokenOfOwnerByIndex(address,uint256)": "2f745c59",
    "tokenURI(uint256)": "c87b56dd",
    "totalSupply()": "18160ddd",
    "transferFrom(address,address,uint256)": "23b872dd"
  },
  "id": 1
}