{
  "abi": [
    {
      "inputs": [
        {
          "internalType": "address",
          "name": "target",
          "type": "address"
        }
      ],
      "name": "AddressEmptyCode",
      "type": "error"
    },
    {
      "inputs": [],
      "name": "AlreadyCreated",
      "type": "error"
    },
    {
      "inputs": [
        {
          "internalType": "address",
          "name": "implementation",
          "type": "address"
        }
      ],
      "name": "ERC1967InvalidImplementation",
      "type": "error"
    },
    {
      "inputs": [],
      "name": "ERC1967NonPayable",
      "type": "error"
    },
    {
      "inputs": [],
      "name": "FailedInnerCall",
      "type": "error"
    },
    {
      "inputs": [],
      "name": "InsufficientPayment",
      "type": "error"
    },
    {
      "inputs": [],
      "name": "InvalidInitialization",
      "type": "error"
    },
    {
      "inputs": [],
      "name": "NotInitializing",
      "type": "error"
    },
    {
      "inputs": [],
      "name": "NotOwner",
      "type": "error"
    },
    {
      "inputs": [],
      "name": "RevenuePoolNotRegistered",
      "type": "error"
    },
    {
      "inputs": [],
      "name": "UUPSUnauthorizedCallContext",
      "type": "error"
    },
    {
      "inputs": [
        {
          "internalType": "bytes32",
          "name": "slot",
          "type": "bytes32"
        }
      ],
      "name": "UUPSUnsupportedProxiableUUID",
      "type": "error"
    },
    {
      "inputs": [],
      "name": "UnableTransferToRevenuePool",
      "type": "error"
    },
    {
      "anonymous": false,
      "inputs": [
        {
          "indexed": false,
          "internalType": "uint64",
          "name": "version",
          "type": "uint64"
        }
      ],
      "name": "Initialized",
      "type": "event"
    },
    {
      "anonymous": false,
      "inputs": [
        {
          "indexed": true,
          "internalType": "address",
          "name": "owner",
          "type": "address"
        }
      ],
      "name": "ProtocolOwnerSet",
      "type": "event"
    },
    {
      "anonymous": false,
      "inputs": [
        {
          "indexed": true,
          "internalType": "address",
          "name": "treasury",
          "type": "address"
        }
      ],
      "name": "ProtocolTreasurySet",
      "type": "event"
    },
    {
      "anonymous": false,
      "inputs": [
        {
          "indexed": true,
          "internalType": "address",
          "name": "creator",
          "type": "address"
        },
        {
          "indexed": true,
          "internalType": "address",
          "name": "shareholder",
          "type": "address"
        },
        {
          "indexed": false,
          "internalType": "uint256",
          "name": "claimAt",
          "type": "uint256"
        },
        {
          "indexed": false,
          "internalType": "uint256",
          "name": "revenue",
          "type": "uint256"
        }
      ],
      "name": "RevenueClaimed",
      "type": "event"
    },
    {
      "anonymous": false,
      "inputs": [
        {
          "indexed": true,
          "internalType": "address",
          "name": "creator",
          "type": "address"
        },
        {
          "indexed": true,
          "internalType": "address",
          "name": "share",
          "type": "address"
        },
        {
          "indexed": true,
          "internalType": "address",
          "name": "revenuePool",
          "type": "address"
        },
        {
          "indexed": false,
          "internalType": "string",
          "name": "shareName",
          "type": "string"
        },
        {
          "indexed": false,
          "internalType": "string",
          "name": "shareSymbol",
          "type": "string"
        }
      ],
      "name": "ShareCreated",
      "type": "event"
    },
    {
      "anonymous": false,
      "inputs": [
        {
          "indexed": true,
          "internalType": "address",
          "name": "creator",
          "type": "address"
        },
        {
          "indexed": true,
          "internalType": "address",
          "name": "trader",
          "type": "address"
        },
        {
          "indexed": false,
          "internalType": "uint256",
          "name": "buyAt",
          "type": "uint256"
        },
        {
          "indexed": false,
          "internalType": "uint256",
          "name": "amount",
          "type": "uint256"
        },
        {
          "indexed": false,
          "internalType": "uint256",
          "name": "price",
          "type": "uint256"
        }
      ],
      "name": "SharesBought",
      "type": "event"
    },
    {
      "anonymous": false,
      "inputs": [
        {
          "indexed": true,
          "internalType": "address",
          "name": "creator",
          "type": "address"
        },
        {
          "indexed": true,
          "internalType": "address",
          "name": "trader",
          "type": "address"
        },
        {
          "indexed": false,
          "internalType": "uint256",
          "name": "sellAt",
          "type": "uint256"
        },
        {
          "indexed": false,
          "internalType": "uint256",
          "name": "amount",
          "type": "uint256"
        },
        {
          "indexed": false,
          "internalType": "uint256",
          "name": "price",
          "type": "uint256"
        }
      ],
      "name": "SharesSold",
      "type": "event"
    },
    {
      "anonymous": false,
      "inputs": [
        {
          "indexed": true,
          "internalType": "address",
          "name": "creator",
          "type": "address"
        },
        {
          "indexed": true,
          "internalType": "address",
          "name": "shareholder",
          "type": "address"
        },
        {
          "indexed": false,
          "internalType": "uint256",
          "name": "stakeAt",
          "type": "uint256"
        },
        {
          "indexed": false,
          "internalType": "uint256",
          "name": "sharesAmount",
          "type": "uint256"
        }
      ],
      "name": "SharesStaked",
      "type": "event"
    },
    {
      "anonymous": false,
      "inputs": [
        {
          "indexed": true,
          "internalType": "address",
          "name": "creator",
          "type": "address"
        },
        {
          "indexed": true,
          "internalType": "address",
          "name": "shareholder",
          "type": "address"
        },
        {
          "indexed": false,
          "internalType": "uint256",
          "name": "unstakeAt",
          "type": "uint256"
        },
        {
          "indexed": false,
          "internalType": "uint256",
          "name": "sharesAmount",
          "type": "uint256"
        }
      ],
      "name": "SharesUnstaked",
      "type": "event"
    },
    {
      "anonymous": false,
      "inputs": [
        {
          "indexed": true,
          "internalType": "address",
          "name": "implementation",
          "type": "address"
        }
      ],
      "name": "Upgraded",
      "type": "event"
    },
    {
      "inputs": [],
      "name": "BASE_FEE_POINT",
      "outputs": [
        {
          "internalType": "uint256",
          "name": "",
          "type": "uint256"
        }
      ],
      "stateMutability": "view",
      "type": "function"
    },
    {
      "inputs": [],
      "name": "CREATOR_FEE_POINT",
      "outputs": [
        {
          "internalType": "uint256",
          "name": "",
          "type": "uint256"
        }
      ],
      "stateMutability": "view",
      "type": "function"
    },
    {
      "inputs": [],
      "name": "CREATOR_PREMINT",
      "outputs": [
        {
          "internalType": "uint256",
          "name": "",
          "type": "uint256"
        }
      ],
      "stateMutability": "view",
      "type": "function"
    },
    {
      "inputs": [],
      "name": "PROTOCOL_FEE_POINT",
      "outputs": [
        {
          "internalType": "uint256",
          "name": "",
          "type": "uint256"
        }
      ],
      "stateMutability": "view",
      "type": "function"
    },
    {
      "inputs": [],
      "name": "REVENUE_POOL_FEE_POINT",
      "outputs": [
        {
          "internalType": "uint256",
          "name": "",
          "type": "uint256"
        }
      ],
      "stateMutability": "view",
      "type": "function"
    },
    {
      "inputs": [],
      "name": "UPGRADE_INTERFACE_VERSION",
      "outputs": [
        {
          "internalType": "string",
          "name": "",
          "type": "string"
        }
      ],
      "stateMutability": "view",
      "type": "function"
    },
    {
      "inputs": [
        {
          "internalType": "address",
          "name": "creator",
          "type": "address"
        },
        {
          "internalType": "uint256",
          "name": "amount",
          "type": "uint256"
        }
      ],
      "name": "buyAndStakeShares",
      "outputs": [],
      "stateMutability": "payable",
      "type": "function"
    },
    {
      "inputs": [
        {
          "internalType": "address",
          "name": "creator",
          "type": "address"
        },
        {
          "internalType": "uint256",
          "name": "amount",
          "type": "uint256"
        }
      ],
      "name": "buyShares",
      "outputs": [],
      "stateMutability": "payable",
      "type": "function"
    },
    {
      "inputs": [
        {
          "internalType": "string",
          "name": "shareName",
          "type": "string"
        },
        {
          "internalType": "string",
          "name": "shareSymbol",
          "type": "string"
        }
      ],
      "name": "createShare",
      "outputs": [],
      "stateMutability": "nonpayable",
      "type": "function"
    },
    {
      "inputs": [
        {
          "internalType": "address",
          "name": "shareholder",
          "type": "address"
        },
        {
          "internalType": "uint256",
          "name": "revenue",
          "type": "uint256"
        }
      ],
      "name": "emitRevenueClaimed",
      "outputs": [],
      "stateMutability": "nonpayable",
      "type": "function"
    },
    {
      "inputs": [
        {
          "internalType": "address",
          "name": "shareholder",
          "type": "address"
        },
        {
          "internalType": "uint256",
          "name": "sharesAmount",
          "type": "uint256"
        }
      ],
      "name": "emitSharesStaked",
      "outputs": [],
      "stateMutability": "nonpayable",
      "type": "function"
    },
    {
      "inputs": [
        {
          "internalType": "address",
          "name": "shareholder",
          "type": "address"
        },
        {
          "internalType": "uint256",
          "name": "sharesAmount",
          "type": "uint256"
        }
      ],
      "name": "emitSharesUnstaked",
      "outputs": [],
      "stateMutability": "nonpayable",
      "type": "function"
    },
    {
      "inputs": [
        {
          "internalType": "address",
          "name": "creator",
          "type": "address"
        },
        {
          "internalType": "uint256",
          "name": "amount",
          "type": "uint256"
        }
      ],
      "name": "getBuyPrice",
      "outputs": [
        {
          "internalType": "uint256",
          "name": "",
          "type": "uint256"
        }
      ],
      "stateMutability": "view",
      "type": "function"
    },
    {
      "inputs": [
        {
          "internalType": "address",
          "name": "creator",
          "type": "address"
        },
        {
          "internalType": "uint256",
          "name": "amount",
          "type": "uint256"
        }
      ],
      "name": "getBuyPriceAfterFee",
      "outputs": [
        {
          "internalType": "uint256",
          "name": "",
          "type": "uint256"
        }
      ],
      "stateMutability": "view",
      "type": "function"
    },
    {
      "inputs": [
        {
          "internalType": "uint256",
          "name": "supply",
          "type": "uint256"
        },
        {
          "internalType": "uint256",
          "name": "amount",
          "type": "uint256"
        }
      ],
      "name": "getPrice",
      "outputs": [
        {
          "internalType": "uint256",
          "name": "",
          "type": "uint256"
        }
      ],
      "stateMutability": "pure",
      "type": "function"
    },
    {
      "inputs": [
        {
          "internalType": "address",
          "name": "creator",
          "type": "address"
        },
        {
          "internalType": "uint256",
          "name": "amount",
          "type": "uint256"
        }
      ],
      "name": "getSellPrice",
      "outputs": [
        {
          "internalType": "uint256",
          "name": "",
          "type": "uint256"
        }
      ],
      "stateMutability": "view",
      "type": "function"
    },
    {
      "inputs": [
        {
          "internalType": "address",
          "name": "creator",
          "type": "address"
        },
        {
          "internalType": "uint256",
          "name": "amount",
          "type": "uint256"
        }
      ],
      "name": "getSellPriceAfterFee",
      "outputs": [
        {
          "internalType": "uint256",
          "name": "",
          "type": "uint256"
        }
      ],
      "stateMutability": "view",
      "type": "function"
    },
    {
      "inputs": [
        {
          "internalType": "address",
          "name": "creator",
          "type": "address"
        }
      ],
      "name": "getShareInfo",
      "outputs": [
        {
          "components": [
            {
              "internalType": "address",
              "name": "share",
              "type": "address"
            },
            {
              "internalType": "address",
              "name": "revenuePool",
              "type": "address"
            },
            {
              "internalType": "uint256",
              "name": "totalValue",
              "type": "uint256"
            }
          ],
          "internalType": "struct IPyraMarket.ShareInfo",
          "name": "",
          "type": "tuple"
        }
      ],
      "stateMutability": "view",
      "type": "function"
    },
    {
      "inputs": [
        {
          "internalType": "address",
          "name": "protocolOwner_",
          "type": "address"
        },
        {
          "internalType": "address",
          "name": "protocolTreasury_",
          "type": "address"
        }
      ],
      "name": "initialize",
      "outputs": [],
      "stateMutability": "nonpayable",
      "type": "function"
    },
    {
      "inputs": [],
      "name": "protocolOwner",
      "outputs": [
        {
          "internalType": "address",
          "name": "",
          "type": "address"
        }
      ],
      "stateMutability": "view",
      "type": "function"
    },
    {
      "inputs": [],
      "name": "protocolTreasury",
      "outputs": [
        {
          "internalType": "address",
          "name": "",
          "type": "address"
        }
      ],
      "stateMutability": "view",
      "type": "function"
    },
    {
      "inputs": [],
      "name": "proxiableUUID",
      "outputs": [
        {
          "internalType": "bytes32",
          "name": "",
          "type": "bytes32"
        }
      ],
      "stateMutability": "view",
      "type": "function"
    },
    {
      "inputs": [
        {
          "internalType": "address",
          "name": "creator",
          "type": "address"
        },
        {
          "internalType": "uint256",
          "name": "amount",
          "type": "uint256"
        }
      ],
      "name": "sellShares",
      "outputs": [],
      "stateMutability": "nonpayable",
      "type": "function"
    },
    {
      "inputs": [
        {
          "internalType": "address",
          "name": "protocolOwner_",
          "type": "address"
        }
      ],
      "name": "setProtocolOwner",
      "outputs": [],
      "stateMutability": "nonpayable",
      "type": "function"
    },
    {
      "inputs": [
        {
          "internalType": "address",
          "name": "protocolTreasury_",
          "type": "address"
        }
      ],
      "name": "setProtocolTreasury",
      "outputs": [],
      "stateMutability": "nonpayable",
      "type": "function"
    },
    {
      "inputs": [
        {
          "internalType": "address",
          "name": "creator",
          "type": "address"
        },
        {
          "internalType": "uint256",
          "name": "amount",
          "type": "uint256"
        }
      ],
      "name": "unstakeAndSellShares",
      "outputs": [],
      "stateMutability": "nonpayable",
      "type": "function"
    },
    {
      "inputs": [
        {
          "internalType": "address",
          "name": "newImplementation",
          "type": "address"
        },
        {
          "internalType": "bytes",
          "name": "data",
          "type": "bytes"
        }
      ],
      "name": "upgradeToAndCall",
      "outputs": [],
      "stateMutability": "payable",
      "type": "function"
    }
  ],
  "bytecode": {
    "object": "0x60a06040523060805234801561001457600080fd5b50608051613bfd61003e60003960008181611b2301528181611b4d0152611ccd0152613bfd6000f3fe608060405260043610620001be5760003560e01c80636121852511620000ff578063aa4e67cf1162000095578063bd5156d2116200006c578063bd5156d21462000574578063c1d6ba691462000599578063d85fc4e614620005bb578063dc4e535b146200026c57600080fd5b8063aa4e67cf14620004e8578063ad3cb1cc146200050d578063b51d0534146200054f57600080fd5b80637050655d11620000d65780637050655d14620004455780637ffb25ac146200046a578063803db96d14620004885780639ae7178114620004c357600080fd5b806361218525146200041657806365c3c981146200026c5780636945b123146200042e57600080fd5b80632267a89c116200017557806348b160fa116200014c57806348b160fa14620003185780634f1ef28614620003c257806352d1902d14620003d95780635cf4ee9114620003f157600080fd5b80632267a89c14620002a95780634635256e14620002ce578063485cc95514620002f357600080fd5b806303b1ceb914620001c357806306187da814620001ea5780630c5a61f8146200020f5780630f026f6d146200023457806310707e18146200026c578063137fd2db1462000284575b600080fd5b348015620001d057600080fd5b50620001e8620001e236600462001fa1565b620005d2565b005b348015620001f757600080fd5b50620001e86200020936600462001fa1565b620006c8565b3480156200021c57600080fd5b50620001e86200022e36600462001fd0565b620007b1565b3480156200024157600080fd5b50620002596200025336600462001fa1565b62000827565b6040519081526020015b60405180910390f35b3480156200027957600080fd5b50620002596101f481565b3480156200029157600080fd5b50620001e8620002a336600462001fd0565b620008ce565b348015620002b657600080fd5b5062000259620002c836600462001fa1565b62000942565b348015620002db57600080fd5b5062000259620002ed36600462001fa1565b620009dc565b3480156200030057600080fd5b50620001e86200031236600462001ff0565b62000a6c565b3480156200032557600080fd5b50620003916200033736600462001fd0565b6040805160608082018352600080835260208084018290529284018190526001600160a01b039485168152600280845290849020845192830185528054861683526001810154909516928201929092529201549082015290565b6040805182516001600160a01b03908116825260208085015190911690820152918101519082015260600162000263565b620001e8620003d3366004620020c1565b62000baa565b348015620003e657600080fd5b506200025962000bcf565b348015620003fe57600080fd5b5062000259620004103660046200212c565b62000bef565b3480156200042357600080fd5b506200025961271081565b620001e86200043f36600462001fa1565b62000c4f565b3480156200045257600080fd5b50620001e86200046436600462001fa1565b62000f06565b3480156200047757600080fd5b5062000259670de0b6b3a764000081565b3480156200049557600080fd5b50600154620004aa906001600160a01b031681565b6040516001600160a01b03909116815260200162000263565b348015620004d057600080fd5b5062000259620004e236600462001fa1565b62001285565b348015620004f557600080fd5b50620001e86200050736600462001fa1565b62001318565b3480156200051a57600080fd5b5062000540604051806040016040528060058152602001640352e302e360dc1b81525081565b604051620002639190620021a3565b3480156200055c57600080fd5b50620001e86200056e36600462001fa1565b62001401565b3480156200058157600080fd5b50620001e862000593366004620021db565b620015e5565b348015620005a657600080fd5b50600054620004aa906001600160a01b031681565b620001e8620005cc36600462001fa1565b620017af565b3360009081526003602052604090205460ff166200060357604051634c909bbf60e01b815260040160405180910390fd5b6000336001600160a01b031663e4fbb6096040518163ffffffff1660e01b8152600401602060405180830381865afa15801562000644573d6000803e3d6000fd5b505050506040513d601f19601f820116820180604052508101906200066a91906200223c565b9050826001600160a01b0316816001600160a01b03167f7760b10955e083cc8077866ca2d70ddbdc006c1f4acd9dc480f6276c2158ec4b4285604051620006bb929190918252602082015260400190565b60405180910390a3505050565b3360009081526003602052604090205460ff16620006f957604051634c909bbf60e01b815260040160405180910390fd5b6000336001600160a01b031663e4fbb6096040518163ffffffff1660e01b8152600401602060405180830381865afa1580156200073a573d6000803e3d6000fd5b505050506040513d601f19601f820116820180604052508101906200076091906200223c565b9050826001600160a01b0316816001600160a01b03167f403a45c92e9b447c7f5d829a2f57faaca04a90311f436d37017ed6c3a605b1884285604051620006bb929190918252602082015260400190565b6000546001600160a01b03163314620007dd576040516330cd747160e01b815260040160405180910390fd5b600180546001600160a01b0319166001600160a01b0383169081179091556040517f6f1811d5b64d07afe73e3049cb2b17e23f84fc82374da2eb1e8ef0e6109c12d090600090a250565b600080620008368484620009dc565b905060006127106200084b6101f48462002272565b6200085791906200228c565b905060006127106200086c6101f48562002272565b6200087891906200228c565b905060006127106200088d6101f48662002272565b6200089991906200228c565b90508082620008a98587620022af565b620008b59190620022af565b620008c19190620022af565b9450505050505b92915050565b6000546001600160a01b03163314620008fa576040516330cd747160e01b815260040160405180910390fd5b600080546001600160a01b0319166001600160a01b038316908117825560405190917f0e12381de99753533de8d74265ca11de8e9aabc961dd9ca9480695041e3d123b91a250565b60008062000951848462001285565b90506000612710620009666101f48462002272565b6200097291906200228c565b90506000612710620009876101f48562002272565b6200099391906200228c565b90506000612710620009a86101f48662002272565b620009b491906200228c565b90508082620009c48587620022c5565b620009d09190620022c5565b620008c19190620022c5565b6001600160a01b0380831660009081526002602090815260408083205481516318160ddd60e01b81529151939462000a65949116926318160ddd92600480820193918290030181865afa15801562000a38573d6000803e3d6000fd5b505050506040513d601f19601f8201168201806040525081019062000a5e9190620022db565b8362000bef565b9392505050565b7ff0c57e16840df040f15088dc2f81fe391c3923bec73e23a9662efc9c229c6a008054600160401b810460ff16159067ffffffffffffffff1660008115801562000ab35750825b905060008267ffffffffffffffff16600114801562000ad15750303b155b90508115801562000ae0575080155b1562000aff5760405163f92ee8a960e01b815260040160405180910390fd5b845467ffffffffffffffff19166001178555831562000b2a57845460ff60401b1916600160401b1785555b600080546001600160a01b03808a166001600160a01b0319928316179092556001805492891692909116919091179055831562000ba157845460ff60401b19168555604051600181527fc7f505b2f371ae2175ee4913f4499e1f2633a7b5936321eed1cdaeb6115181d29060200160405180910390a15b50505050505050565b62000bb462001b18565b62000bbf8262001bc3565b62000bcb828262001bf2565b5050565b600062000bdb62001cc2565b5060008051602062003ba883398151915290565b600061c350670de0b6b3a76400008062000c098662001d0c565b62000c1f62000c198789620022af565b62001d0c565b62000c2b9190620022c5565b62000c3791906200228c565b62000c4391906200228c565b62000a6591906200228c565b600062000c5d8383620009dc565b9050600061271062000c726101f48462002272565b62000c7e91906200228c565b9050600061271062000c936101f48562002272565b62000c9f91906200228c565b9050600061271062000cb46101f48662002272565b62000cc091906200228c565b9050808262000cd08587620022af565b62000cdc9190620022af565b62000ce89190620022af565b34101562000d095760405163cd1c886760e01b815260040160405180910390fd5b6001600160a01b03868116600090815260026020526040908190205490516340c10f1960e01b81523360048201526024810188905291169081906340c10f1990604401600060405180830381600087803b15801562000d6757600080fd5b505af115801562000d7c573d6000803e3d6000fd5b50506040516001600160a01b038a16925086156108fc02915086906000818181858888f1935050505015801562000db7573d6000803e3d6000fd5b506001546040516001600160a01b039091169084156108fc029085906000818181858888f1935050505015801562000df3573d6000803e3d6000fd5b506001600160a01b038781166000908152600260205260408082206001015490519192169084908381818185875af1925050503d806000811462000e54576040519150601f19603f3d011682016040523d82523d6000602084013e62000e59565b606091505b505090508062000e7c576040516371d49e3b60e11b815260040160405180910390fd5b6001600160a01b0388166000908152600260208190526040822001805488929062000ea9908490620022af565b9091555050604080514281526020810189905290810187905233906001600160a01b038a16907f050bd6ef6b1b818f58ae43f028aa7318a580ca0c793eca2df0033c7ae63094589060600160405180910390a35050505050505050565b600062000f14838362001285565b9050600061271062000f296101f48462002272565b62000f3591906200228c565b9050600061271062000f4a6101f48562002272565b62000f5691906200228c565b9050600061271062000f6b6101f48662002272565b62000f7791906200228c565b6001600160a01b03878116600090815260026020908152604080832060010154815160248082018d9052835180830390910181526044909101835292830180516001600160e01b03166305c2fbcf60e31b17905290519495509193919092169162000fe291620022f5565b6000604051808303816000865af19150503d806000811462001021576040519150601f19603f3d011682016040523d82523d6000602084013e62001026565b606091505b505080915050806200103757600080fd5b6001600160a01b0387811660009081526002602052604090819020549051632770a7eb60e21b815233600482015260248101899052911690639dc29fac90604401600060405180830381600087803b1580156200109357600080fd5b505af1158015620010a8573d6000803e3d6000fd5b50506040516001600160a01b038a16925086156108fc02915086906000818181858888f19350505050158015620010e3573d6000803e3d6000fd5b506001546040516001600160a01b039091169084156108fc029085906000818181858888f193505050501580156200111f573d6000803e3d6000fd5b506001600160a01b03878116600090815260026020526040808220600101549051921691849181818185875af1925050503d80600081146200117e576040519150601f19603f3d011682016040523d82523d6000602084013e62001183565b606091505b50508091505080620011a8576040516371d49e3b60e11b815260040160405180910390fd5b336108fc8385620011ba888a620022c5565b620011c69190620022c5565b620011d29190620022c5565b6040518115909202916000818181858888f19350505050158015620011fb573d6000803e3d6000fd5b506001600160a01b0387166000908152600260208190526040822001805487929062001229908490620022c5565b9091555050604080514281526020810188905290810186905233906001600160a01b038916907fd8ed8c644e236a185ce47293a3daadbfaf53382f3f5823d6e2e2d315d9bcc77b9060600160405180910390a350505050505050565b6001600160a01b0380831660009081526002602090815260408083205481516318160ddd60e01b81529151939462000a6594879492909116926318160ddd9260048083019391928290030181865afa158015620012e6573d6000803e3d6000fd5b505050506040513d601f19601f820116820180604052508101906200130c9190620022db565b62000a5e9190620022c5565b3360009081526003602052604090205460ff166200134957604051634c909bbf60e01b815260040160405180910390fd5b6000336001600160a01b031663e4fbb6096040518163ffffffff1660e01b8152600401602060405180830381865afa1580156200138a573d6000803e3d6000fd5b505050506040513d601f19601f82011682018060405250810190620013b091906200223c565b9050826001600160a01b0316816001600160a01b03167f852838233b54853e8f39dfcd9bf7b80f41506302f4e85cd4d2814b50352ef9744285604051620006bb929190918252602082015260400190565b60006200140f838362001285565b90506000612710620014246101f48462002272565b6200143091906200228c565b90506000612710620014456101f48562002272565b6200145191906200228c565b90506000612710620014666101f48662002272565b6200147291906200228c565b6001600160a01b0387811660009081526002602052604090819020549051632770a7eb60e21b8152336004820152602481018990529293501690639dc29fac90604401600060405180830381600087803b158015620014d057600080fd5b505af1158015620014e5573d6000803e3d6000fd5b50506040516001600160a01b038916925085156108fc02915085906000818181858888f1935050505015801562001520573d6000803e3d6000fd5b506001546040516001600160a01b039091169083156108fc029084906000818181858888f193505050501580156200155c573d6000803e3d6000fd5b506001600160a01b038681166000908152600260205260408082206001015490519192169083908381818185875af1925050503d8060008114620015bd576040519150601f19603f3d011682016040523d82523d6000602084013e620015c2565b606091505b5050905080620011a8576040516371d49e3b60e11b815260040160405180910390fd5b336000908152600260205260409020546001600160a01b0316156200161d57604051631ac1050b60e21b815260040160405180910390fd5b6000338383604051620016309062001f6f565b6200163e9392919062002313565b604051809103906000f0801580156200165b573d6000803e3d6000fd5b506040516340c10f1960e01b8152336004820152670de0b6b3a764000060248201529091506001600160a01b038216906340c10f1990604401600060405180830381600087803b158015620016af57600080fd5b505af1158015620016c4573d6000803e3d6000fd5b5050505060003382604051620016da9062001f7d565b6001600160a01b03928316815291166020820152604001604051809103906000f0801580156200170e573d6000803e3d6000fd5b5033600081815260026020908152604080832080546001600160a01b03808a166001600160a01b03199283168117845560019384018054928a16929093168217909255808652600390945293829020805460ff1916909117905551939450929091907f49bad223a375bde1f47e475ab9e800562b609af2fd0041aee55575c2227bcbe690620017a1908990899062002357565b60405180910390a450505050565b6000620017bd8383620009dc565b90506000612710620017d26101f48462002272565b620017de91906200228c565b90506000612710620017f36101f48562002272565b620017ff91906200228c565b90506000612710620018146101f48662002272565b6200182091906200228c565b90508082620018308587620022af565b6200183c9190620022af565b620018489190620022af565b341015620018695760405163cd1c886760e01b815260040160405180910390fd5b6001600160a01b0386811660009081526002602052604090819020805460019091015491516340c10f1960e01b81523360048201526024810189905290831692919091169082906340c10f1990604401600060405180830381600087803b158015620018d457600080fd5b505af1158015620018e9573d6000803e3d6000fd5b50506040516001600160a01b038b16925087156108fc02915087906000818181858888f1935050505015801562001924573d6000803e3d6000fd5b506001546040516001600160a01b039091169085156108fc029086906000818181858888f1935050505015801562001960573d6000803e3d6000fd5b506001600160a01b038881166000908152600260205260408082206001015490519192169085908381818185875af1925050503d8060008114620019c1576040519150601f19603f3d011682016040523d82523d6000602084013e620019c6565b606091505b5050905080620019e9576040516371d49e3b60e11b815260040160405180910390fd5b6040805160248082018b905282518083039091018152604490910182526020810180516001600160e01b031663534a7e1d60e11b17905290516001600160a01b0384169162001a3891620022f5565b6000604051808303816000865af19150503d806000811462001a77576040519150601f19603f3d011682016040523d82523d6000602084013e62001a7c565b606091505b5050809150508062001a8d57600080fd5b6001600160a01b0389166000908152600260208190526040822001805489929062001aba908490620022af565b909155505060408051428152602081018a905290810188905233906001600160a01b038b16907f050bd6ef6b1b818f58ae43f028aa7318a580ca0c793eca2df0033c7ae63094589060600160405180910390a3505050505050505050565b306001600160a01b037f000000000000000000000000000000000000000000000000000000000000000016148062001ba257507f00000000000000000000000000000000000000000000000000000000000000006001600160a01b031662001b9660008051602062003ba8833981519152546001600160a01b031690565b6001600160a01b031614155b1562001bc15760405163703e46dd60e11b815260040160405180910390fd5b565b6000546001600160a01b0316331462001bef576040516330cd747160e01b815260040160405180910390fd5b50565b816001600160a01b03166352d1902d6040518163ffffffff1660e01b8152600401602060405180830381865afa92505050801562001c4f575060408051601f3d908101601f1916820190925262001c4c91810190620022db565b60015b62001c7d57604051634c9c8ce360e01b81526001600160a01b03831660048201526024015b60405180910390fd5b60008051602062003ba8833981519152811462001cb157604051632a87526960e21b81526004810182905260240162001c74565b62001cbd838362001d81565b505050565b306001600160a01b037f0000000000000000000000000000000000000000000000000000000000000000161462001bc15760405163703e46dd60e11b815260040160405180910390fd5b6000670de0b6b3a764000082111562001d795762001d33670de0b6b3a764000083620022c5565b62001d47670de0b6b3a764000084620022c5565b62001d5b670de0b6b3a764000085620022c5565b62001d67919062002272565b62001d73919062002272565b620008c8565b600092915050565b62001d8c8262001dde565b6040516001600160a01b038316907fbc7cd75a20ee27fd9adebab32041f755214dbc6bffa90cc0225b39da2e5c2d3b90600090a280511562001dd45762001cbd828262001e46565b62000bcb62001ec2565b806001600160a01b03163b60000362001e1657604051634c9c8ce360e01b81526001600160a01b038216600482015260240162001c74565b60008051602062003ba883398151915280546001600160a01b0319166001600160a01b0392909216919091179055565b6060600080846001600160a01b03168460405162001e659190620022f5565b600060405180830381855af49150503d806000811462001ea2576040519150601f19603f3d011682016040523d82523d6000602084013e62001ea7565b606091505b509150915062001eb985838362001ee2565b95945050505050565b341562001bc15760405163b398979f60e01b815260040160405180910390fd5b60608262001efb5762001ef58262001f45565b62000a65565b815115801562001f1357506001600160a01b0384163b155b1562001f3e57604051639996b31560e01b81526001600160a01b038516600482015260240162001c74565b5092915050565b80511562001f565780518082602001fd5b604051630a12f52160e11b815260040160405180910390fd5b610c4c806200238183390190565b610bdb8062002fcd83390190565b6001600160a01b038116811462001bef57600080fd5b6000806040838503121562001fb557600080fd5b823562001fc28162001f8b565b946020939093013593505050565b60006020828403121562001fe357600080fd5b813562000a658162001f8b565b600080604083850312156200200457600080fd5b8235620020118162001f8b565b91506020830135620020238162001f8b565b809150509250929050565b634e487b7160e01b600052604160045260246000fd5b600067ffffffffffffffff808411156200206257620020626200202e565b604051601f8501601f19908116603f011681019082821181831017156200208d576200208d6200202e565b81604052809350858152868686011115620020a757600080fd5b858560208301376000602087830101525050509392505050565b60008060408385031215620020d557600080fd5b8235620020e28162001f8b565b9150602083013567ffffffffffffffff811115620020ff57600080fd5b8301601f810185136200211157600080fd5b620021228582356020840162002044565b9150509250929050565b600080604083850312156200214057600080fd5b50508035926020909101359150565b60005b838110156200216c57818101518382015260200162002152565b50506000910152565b600081518084526200218f8160208601602086016200214f565b601f01601f19169290920160200192915050565b60208152600062000a65602083018462002175565b600082601f830112620021ca57600080fd5b62000a658383356020850162002044565b60008060408385031215620021ef57600080fd5b823567ffffffffffffffff808211156200220857600080fd5b6200221686838701620021b8565b935060208501359150808211156200222d57600080fd5b506200212285828601620021b8565b6000602082840312156200224f57600080fd5b815162000a658162001f8b565b634e487b7160e01b600052601160045260246000fd5b8082028115828204841417620008c857620008c86200225c565b600082620022aa57634e487b7160e01b600052601260045260246000fd5b500490565b80820180821115620008c857620008c86200225c565b81810381811115620008c857620008c86200225c565b600060208284031215620022ee57600080fd5b5051919050565b60008251620023098184602087016200214f565b9190910192915050565b6001600160a01b0384168152606060208201819052600090620023399083018562002175565b82810360408401526200234d818562002175565b9695505050505050565b6040815260006200236c604083018562002175565b828103602084015262001eb981856200217556fe60c06040523480156200001157600080fd5b5060405162000c4c38038062000c4c833981016040819052620000349162000133565b818160036200004483826200024c565b5060046200005382826200024c565b5050336080525050506001600160a01b031660a05262000318565b634e487b7160e01b600052604160045260246000fd5b600082601f8301126200009657600080fd5b81516001600160401b0380821115620000b357620000b36200006e565b604051601f8301601f19908116603f01168101908282118183101715620000de57620000de6200006e565b81604052838152602092508683858801011115620000fb57600080fd5b600091505b838210156200011f578582018301518183018401529082019062000100565b600093810190920192909252949350505050565b6000806000606084860312156200014957600080fd5b83516001600160a01b03811681146200016157600080fd5b60208501519093506001600160401b03808211156200017f57600080fd5b6200018d8783880162000084565b93506040860151915080821115620001a457600080fd5b50620001b38682870162000084565b9150509250925092565b600181811c90821680620001d257607f821691505b602082108103620001f357634e487b7160e01b600052602260045260246000fd5b50919050565b601f8211156200024757600081815260208120601f850160051c81016020861015620002225750805b601f850160051c820191505b8181101562000243578281556001016200022e565b5050505b505050565b81516001600160401b038111156200026857620002686200006e565b6200028081620002798454620001bd565b84620001f9565b602080601f831160018114620002b857600084156200029f5750858301515b600019600386901b1c1916600185901b17855562000243565b600085815260208120601f198616915b82811015620002e957888601518255948401946001909101908401620002c8565b5085821015620003085787850151600019600388901b60f8161c191681555b5050505050600190811b01905550565b60805160a0516109006200034c60003960006102320152600081816101630152818161032f015261039501526109006000f3fe608060405234801561001057600080fd5b50600436106100cf5760003560e01c8063474a04d71161008c5780639dc29fac116100665780639dc29fac146101ce578063a9059cbb146101e1578063dd62ed3e146101f4578063e4fbb6091461022d57600080fd5b8063474a04d71461015e57806370a082311461019d57806395d89b41146101c657600080fd5b806306fdde03146100d4578063095ea7b3146100f257806318160ddd1461011557806323b872dd14610127578063313ce5671461013a57806340c10f1914610149575b600080fd5b6100dc610254565b6040516100e9919061074a565b60405180910390f35b6101056101003660046107b4565b6102e6565b60405190151581526020016100e9565b6002545b6040519081526020016100e9565b6101056101353660046107de565b610300565b604051601281526020016100e9565b61015c6101573660046107b4565b610324565b005b6101857f000000000000000000000000000000000000000000000000000000000000000081565b6040516001600160a01b0390911681526020016100e9565b6101196101ab36600461081a565b6001600160a01b031660009081526020819052604090205490565b6100dc61037b565b61015c6101dc3660046107b4565b61038a565b6101056101ef3660046107b4565b6103dd565b61011961020236600461083c565b6001600160a01b03918216600090815260016020908152604080832093909416825291909152205490565b6101857f000000000000000000000000000000000000000000000000000000000000000081565b6060600380546102639061086f565b80601f016020809104026020016040519081016040528092919081815260200182805461028f9061086f565b80156102dc5780601f106102b1576101008083540402835291602001916102dc565b820191906000526020600020905b8154815290600101906020018083116102bf57829003601f168201915b5050505050905090565b6000336102f48185856103eb565b60019150505b92915050565b60003361030e8582856103fd565b610319858585610480565b506001949350505050565b336001600160a01b037f0000000000000000000000000000000000000000000000000000000000000000161461036d57604051631042269d60e21b815260040160405180910390fd5b61037782826104df565b5050565b6060600480546102639061086f565b336001600160a01b037f000000000000000000000000000000000000000000000000000000000000000016146103d357604051631042269d60e21b815260040160405180910390fd5b6103778282610515565b6000336102f4818585610480565b6103f8838383600161054b565b505050565b6001600160a01b03838116600090815260016020908152604080832093861683529290522054600019811461047a578181101561046b57604051637dc7a0d960e11b81526001600160a01b038416600482015260248101829052604481018390526064015b60405180910390fd5b61047a8484848403600061054b565b50505050565b6001600160a01b0383166104aa57604051634b637e8f60e11b815260006004820152602401610462565b6001600160a01b0382166104d45760405163ec442f0560e01b815260006004820152602401610462565b6103f8838383610620565b6001600160a01b0382166105095760405163ec442f0560e01b815260006004820152602401610462565b61037760008383610620565b6001600160a01b03821661053f57604051634b637e8f60e11b815260006004820152602401610462565b61037782600083610620565b6001600160a01b0384166105755760405163e602df0560e01b815260006004820152602401610462565b6001600160a01b03831661059f57604051634a1406b160e11b815260006004820152602401610462565b6001600160a01b038085166000908152600160209081526040808320938716835292905220829055801561047a57826001600160a01b0316846001600160a01b03167f8c5be1e5ebec7d5bd14f71427d1e84f3dd0314c0f7b2291e5b200ac8c7c3b9258460405161061291815260200190565b60405180910390a350505050565b6001600160a01b03831661064b57806002600082825461064091906108a9565b909155506106bd9050565b6001600160a01b0383166000908152602081905260409020548181101561069e5760405163391434e360e21b81526001600160a01b03851660048201526024810182905260448101839052606401610462565b6001600160a01b03841660009081526020819052604090209082900390555b6001600160a01b0382166106d9576002805482900390556106f8565b6001600160a01b03821660009081526020819052604090208054820190555b816001600160a01b0316836001600160a01b03167fddf252ad1be2c89b69c2b068fc378daa952ba7f163c4a11628f55a4df523b3ef8360405161073d91815260200190565b60405180910390a3505050565b600060208083528351808285015260005b818110156107775785810183015185820160400152820161075b565b506000604082860101526040601f19601f8301168501019250505092915050565b80356001600160a01b03811681146107af57600080fd5b919050565b600080604083850312156107c757600080fd5b6107d083610798565b946020939093013593505050565b6000806000606084860312156107f357600080fd5b6107fc84610798565b925061080a60208501610798565b9150604084013590509250925092565b60006020828403121561082c57600080fd5b61083582610798565b9392505050565b6000806040838503121561084f57600080fd5b61085883610798565b915061086660208401610798565b90509250929050565b600181811c9082168061088357607f821691505b6020821081036108a357634e487b7160e01b600052602260045260246000fd5b50919050565b808201808211156102fa57634e487b7160e01b600052601160045260246000fdfea2646970667358221220fc9f1ba699562373b56db3ad74e1137b14b4e781b789515f61e7301f8c8d4b0964736f6c6343000815003360e060405234801561001057600080fd5b50604051610bdb380380610bdb83398101604081905261002f91610066565b336080526001600160a01b0391821660a0521660c052610099565b80516001600160a01b038116811461006157600080fd5b919050565b6000806040838503121561007957600080fd5b6100828361004a565b91506100906020840161004a565b90509250929050565b60805160a05160c051610ae36100f86000396000818160b20152818161028d015281816103ca015281816105d201526106d00152600061033e0152600081816101d60152818161040d0152818161051901526107130152610ae36000f3fe6080604052600436106100955760003560e01c8063a211c43311610059578063a211c43314610245578063a694fc3a1461025b578063bd64486a1461027b578063e3103f23146102af578063e4fbb6091461032c57600080fd5b8063065decc61461016e5780632e17de78146101a4578063474a04d7146101c45780634e71d92d146102105780634f4dac6f1461022557600080fd5b36610169576040516370a0823160e01b81523060048201526000907f00000000000000000000000000000000000000000000000000000000000000006001600160a01b0316906370a0823190602401602060405180830381865afa158015610101573d6000803e3d6000fd5b505050506040513d601f19601f82011682018060405250810190610125919061098c565b9050801561016757806101476ec097ce7bc90715b34b9f1000000000346109bb565b61015191906109d2565b60008082825461016191906109f4565b90915550505b005b600080fd5b34801561017a57600080fd5b506101916ec097ce7bc90715b34b9f100000000081565b6040519081526020015b60405180910390f35b3480156101b057600080fd5b506101676101bf366004610a07565b610360565b3480156101d057600080fd5b506101f87f000000000000000000000000000000000000000000000000000000000000000081565b6040516001600160a01b03909116815260200161019b565b34801561021c57600080fd5b50610167610475565b34801561023157600080fd5b50610191610240366004610a20565b610550565b34801561025157600080fd5b5061019160005481565b34801561026757600080fd5b50610167610276366004610a07565b6105bb565b34801561028757600080fd5b506101f87f000000000000000000000000000000000000000000000000000000000000000081565b3480156102bb57600080fd5b506103116102ca366004610a20565b6040805180820190915260008082526020820152506001600160a01b0316600090815260016020818152604092839020835180850190945280548452909101549082015290565b6040805182518152602092830151928101929092520161019b565b34801561033857600080fd5b506101f87f000000000000000000000000000000000000000000000000000000000000000081565b3360009081526001602052604090205481111561039057604051633999656760e01b815260040160405180910390fd5b610398610475565b33600090815260016020526040812080548392906103b7908490610a49565b909155506103f190506001600160a01b037f000000000000000000000000000000000000000000000000000000000000000016338361074a565b60405163aa4e67cf60e01b8152336004820152602481018290527f00000000000000000000000000000000000000000000000000000000000000006001600160a01b03169063aa4e67cf906044015b600060405180830381600087803b15801561045a57600080fd5b505af115801561046e573d6000803e3d6000fd5b5050505050565b3360009081526001602052604081205490036104a4576040516311ef236560e21b815260040160405180910390fd5b60006104af33610550565b6000805433825260016020819052604090922090910155905080156104fd57604051339082156108fc029083906000818181858888f193505050501580156104fb573d6000803e3d6000fd5b505b6040516303b1ceb960e01b8152336004820152602481018290527f00000000000000000000000000000000000000000000000000000000000000006001600160a01b0316906303b1ceb990604401610440565b6001600160a01b03811660009081526001602081905260408220015481546ec097ce7bc90715b34b9f10000000009161058891610a49565b6001600160a01b0384166000908152600160205260409020546105ab91906109bb565b6105b591906109d2565b92915050565b6040516370a0823160e01b815233600482015281907f00000000000000000000000000000000000000000000000000000000000000006001600160a01b0316906370a0823190602401602060405180830381865afa158015610621573d6000803e3d6000fd5b505050506040513d601f19601f82011682018060405250810190610645919061098c565b101561066457604051633999656760e01b815260040160405180910390fd5b336000908152600160205260409020541561068657610681610475565b61069e565b60008054338252600160208190526040909220909101555b33600090815260016020526040812080548392906106bd9084906109f4565b909155506106f890506001600160a01b037f0000000000000000000000000000000000000000000000000000000000000000163330846107ae565b60405162c30fb560e31b8152336004820152602481018290527f00000000000000000000000000000000000000000000000000000000000000006001600160a01b0316906306187da890604401610440565b6040516001600160a01b038381166024830152604482018390526107a991859182169063a9059cbb906064015b604051602081830303815290604052915060e01b6020820180516001600160e01b0383818316178352505050506107ed565b505050565b6040516001600160a01b0384811660248301528381166044830152606482018390526107e79186918216906323b872dd90608401610777565b50505050565b60006108026001600160a01b03841683610855565b905080516000141580156108275750808060200190518101906108259190610a5c565b155b156107a957604051635274afe760e01b81526001600160a01b03841660048201526024015b60405180910390fd5b60606108638383600061086a565b9392505050565b60608147101561088f5760405163cd78605960e01b815230600482015260240161084c565b600080856001600160a01b031684866040516108ab9190610a7e565b60006040518083038185875af1925050503d80600081146108e8576040519150601f19603f3d011682016040523d82523d6000602084013e6108ed565b606091505b50915091506108fd868383610907565b9695505050505050565b60608261091c5761091782610963565b610863565b815115801561093357506001600160a01b0384163b155b1561095c57604051639996b31560e01b81526001600160a01b038516600482015260240161084c565b5080610863565b8051156109735780518082602001fd5b604051630a12f52160e11b815260040160405180910390fd5b60006020828403121561099e57600080fd5b5051919050565b634e487b7160e01b600052601160045260246000fd5b80820281158282048414176105b5576105b56109a5565b6000826109ef57634e487b7160e01b600052601260045260246000fd5b500490565b808201808211156105b5576105b56109a5565b600060208284031215610a1957600080fd5b5035919050565b600060208284031215610a3257600080fd5b81356001600160a01b038116811461086357600080fd5b818103818111156105b5576105b56109a5565b600060208284031215610a6e57600080fd5b8151801515811461086357600080fd5b6000825160005b81811015610a9f5760208186018101518583015201610a85565b50600092019182525091905056fea26469706673582212206325aeb1e408c758280e708164c5c995f67a55137d712a0d05ec39f93248304a64736f6c63430008150033360894a13ba1a3210667c828492db98dca3e2076cc3735a920a3ca505d382bbca2646970667358221220e8819466d6aa7df9fc597aa064f83b166a5da19120d5bd2a75f954dc88808e8364736f6c63430008150033",
    "linkReferences": {}
  },
  "methodIdentifiers": {
    "BASE_FEE_POINT()": "61218525",
    "CREATOR_FEE_POINT()": "10707e18",
    "CREATOR_PREMINT()": "7ffb25ac",
    "PROTOCOL_FEE_POINT()": "65c3c981",
    "REVENUE_POOL_FEE_POINT()": "dc4e535b",
    "UPGRADE_INTERFACE_VERSION()": "ad3cb1cc",
    "buyAndStakeShares(address,uint256)": "d85fc4e6",
    "buyShares(address,uint256)": "6945b123",
    "createShare(string,string)": "bd5156d2",
    "emitRevenueClaimed(address,uint256)": "03b1ceb9",
    "emitSharesStaked(address,uint256)": "06187da8",
    "emitSharesUnstaked(address,uint256)": "aa4e67cf",
    "getBuyPrice(address,uint256)": "4635256e",
    "getBuyPriceAfterFee(address,uint256)": "0f026f6d",
    "getPrice(uint256,uint256)": "5cf4ee91",
    "getSellPrice(address,uint256)": "9ae71781",
    "getSellPriceAfterFee(address,uint256)": "2267a89c",
    "getShareInfo(address)": "48b160fa",
    "initialize(address,address)": "485cc955",
    "protocolOwner()": "c1d6ba69",
    "protocolTreasury()": "803db96d",
    "proxiableUUID()": "52d1902d",
    "sellShares(address,uint256)": "b51d0534",
    "setProtocolOwner(address)": "137fd2db",
    "setProtocolTreasury(address)": "0c5a61f8",
    "unstakeAndSellShares(address,uint256)": "7050655d",
    "upgradeToAndCall(address,bytes)": "4f1ef286"
  },
  "id": 0
}