{
  "abi": [
    {
      "inputs": [
        {
          "internalType": "address",
          "name": "owner",
          "type": "address"
        },
        {
          "internalType": "address",
          "name": "pyraMarket",
          "type": "address"
        }
      ],
      "stateMutability": "nonpayable",
      "type": "constructor"
    },
    {
      "inputs": [
        {
          "internalType": "address",
          "name": "target",
          "type": "address"
        }
      ],
      "name": "AddressEmptyCode",
      "type": "error"
    },
    {
      "inputs": [
        {
          "internalType": "address",
          "name": "account",
          "type": "address"
        }
      ],
      "name": "AddressInsufficientBalance",
      "type": "error"
    },
    {
      "inputs": [],
      "name": "DistributeDaysExpired",
      "type": "error"
    },
    {
      "inputs": [],
      "name": "FailedInnerCall",
      "type": "error"
    },
    {
      "inputs": [],
      "name": "InsufficientRewards",
      "type": "error"
    },
    {
      "inputs": [],
      "name": "InsufficientShares",
      "type": "error"
    },
    {
      "inputs": [
        {
          "internalType": "address",
          "name": "token",
          "type": "address"
        }
      ],
      "name": "SafeERC20FailedOperation",
      "type": "error"
    },
    {
      "inputs": [],
      "name": "OWNER",
      "outputs": [
        {
          "internalType": "address",
          "name": "",
          "type": "address"
        }
      ],
      "stateMutability": "view",
      "type": "function"
    },
    {
      "inputs": [],
      "name": "PYRA_MARKET",
      "outputs": [
        {
          "internalType": "contract PyraMarket",
          "name": "",
          "type": "address"
        }
      ],
      "stateMutability": "view",
      "type": "function"
    },
    {
      "inputs": [
        {
          "internalType": "address",
          "name": "shareholder",
          "type": "address"
        }
      ],
      "name": "claim",
      "outputs": [
        {
          "internalType": "uint256",
          "name": "",
          "type": "uint256"
        }
      ],
      "stateMutability": "nonpayable",
      "type": "function"
    },
    {
      "inputs": [
        {
          "internalType": "address",
          "name": "shareholder",
          "type": "address"
        },
        {
          "internalType": "uint256",
          "name": "rewards",
          "type": "uint256"
        }
      ],
      "name": "distribute",
      "outputs": [
        {
          "internalType": "uint256",
          "name": "",
          "type": "uint256"
        }
      ],
      "stateMutability": "nonpayable",
      "type": "function"
    },
    {
      "inputs": [],
      "name": "getShare",
      "outputs": [
        {
          "internalType": "address",
          "name": "",
          "type": "address"
        }
      ],
      "stateMutability": "view",
      "type": "function"
    },
    {
      "inputs": [
        {
          "internalType": "address",
          "name": "shareholder",
          "type": "address"
        }
      ],
      "name": "getStakingRewards",
      "outputs": [
        {
          "internalType": "uint256",
          "name": "",
          "type": "uint256"
        }
      ],
      "stateMutability": "view",
      "type": "function"
    },
    {
      "inputs": [
        {
          "internalType": "uint256",
          "name": "",
          "type": "uint256"
        },
        {
          "internalType": "uint256",
          "name": "",
          "type": "uint256"
        }
      ],
      "name": "monthlyRevenuePoolStatus",
      "outputs": [
        {
          "internalType": "bool",
          "name": "triggered",
          "type": "bool"
        },
        {
          "internalType": "uint256",
          "name": "totalRewards",
          "type": "uint256"
        },
        {
          "internalType": "uint256",
          "name": "totalDistributedRewards",
          "type": "uint256"
        },
        {
          "internalType": "uint256",
          "name": "totalRevenue",
          "type": "uint256"
        },
        {
          "internalType": "uint256",
          "name": "totalDistributedRevenue",
          "type": "uint256"
        }
      ],
      "stateMutability": "view",
      "type": "function"
    },
    {
      "inputs": [
        {
          "internalType": "uint256",
          "name": "",
          "type": "uint256"
        },
        {
          "internalType": "uint256",
          "name": "",
          "type": "uint256"
        },
        {
          "internalType": "address",
          "name": "",
          "type": "address"
        }
      ],
      "name": "monthlyShareholdersRewards",
      "outputs": [
        {
          "internalType": "uint256",
          "name": "",
          "type": "uint256"
        }
      ],
      "stateMutability": "view",
      "type": "function"
    },
    {
      "inputs": [
        {
          "internalType": "address",
          "name": "",
          "type": "address"
        }
      ],
      "name": "shareholdersStatus",
      "outputs": [
        {
          "internalType": "uint256",
          "name": "timestamp",
          "type": "uint256"
        },
        {
          "internalType": "uint256",
          "name": "shares",
          "type": "uint256"
        },
        {
          "internalType": "uint256",
          "name": "rewards",
          "type": "uint256"
        },
        {
          "internalType": "uint256",
          "name": "revenue",
          "type": "uint256"
        }
      ],
      "stateMutability": "view",
      "type": "function"
    },
    {
      "inputs": [
        {
          "internalType": "uint256",
          "name": "sharesAmount",
          "type": "uint256"
        }
      ],
      "name": "stake",
      "outputs": [],
      "stateMutability": "nonpayable",
      "type": "function"
    },
    {
      "inputs": [
        {
          "internalType": "uint256",
          "name": "sharesAmount",
          "type": "uint256"
        }
      ],
      "name": "unstake",
      "outputs": [],
      "stateMutability": "nonpayable",
      "type": "function"
    }
  ],
  "bytecode": {
    "object": "0x60c060405234801561001057600080fd5b506040516114ae3803806114ae83398101604081905261002f91610062565b6001600160a01b039182166080521660a052610095565b80516001600160a01b038116811461005d57600080fd5b919050565b6000806040838503121561007557600080fd5b61007e83610046565b915061008c60208401610046565b90509250929050565b60805160a0516113ca6100e4600039600081816101c7015281816102c0015281816104740152818161051f0152818161068a015261086401526000818161010e01526104f401526113ca6000f3fe608060405234801561001057600080fd5b50600436106100a95760003560e01c806331852441116100715780633185244114610191578063474a04d7146101c257806375298734146101e9578063a694fc3a146101f1578063a92ae79614610204578063fb9321081461027857600080fd5b80630436f24c146100ae578063117803e3146101095780631e83409a1461014857806321efe200146101695780632e17de781461017c575b600080fd5b6100e46100bc3660046110ac565b6001602081905260009182526040909120805491810154600282015460039092015490919084565b6040805194855260208501939093529183015260608201526080015b60405180910390f35b6101307f000000000000000000000000000000000000000000000000000000000000000081565b6040516001600160a01b039091168152602001610100565b61015b6101563660046110ac565b61028b565b604051908152602001610100565b61015b6101773660046110ac565b610325565b61018f61018a3660046110c9565b610375565b005b61015b61019f3660046110e2565b600260209081526000938452604080852082529284528284209052825290205481565b6101307f000000000000000000000000000000000000000000000000000000000000000081565b6101306104dd565b61018f6101ff3660046110c9565b610592565b61024e61021236600461111b565b600360208181526000938452604080852090915291835291208054600182015460028301549383015460049093015460ff909216939092909185565b6040805195151586526020860194909452928401919091526060830152608082015260a001610100565b61015b61028636600461113d565b6106c1565b600080610297836108cb565b604051637649a44160e01b81526001600160a01b038581166004830152602482018390529192507f000000000000000000000000000000000000000000000000000000000000000090911690637649a44190604401600060405180830381600087803b15801561030657600080fd5b505af115801561031a573d6000803e3d6000fd5b509295945050505050565b6001600160a01b038116600090815260016020526040812054610348904261117f565b6001600160a01b0383166000908152600160208190526040909120015461036f9190611192565b92915050565b600061037f6104dd565b33600090815260016020819052604090912001549091508211156103b657604051633999656760e01b815260040160405180910390fd5b6103bf336108cb565b5033600090815260016020819052604082200180548492906103e290849061117f565b909155505060405163a9059cbb60e01b8152336004820152602481018390526001600160a01b0382169063a9059cbb906044016020604051808303816000875af1158015610434573d6000803e3d6000fd5b505050506040513d601f19601f8201168201806040525081019061045891906111a9565b5060405162c30fb560e31b8152336004820152602481018390527f00000000000000000000000000000000000000000000000000000000000000006001600160a01b0316906306187da8906044015b600060405180830381600087803b1580156104c157600080fd5b505af11580156104d5573d6000803e3d6000fd5b505050505050565b604051632458b07d60e11b81526001600160a01b037f0000000000000000000000000000000000000000000000000000000000000000811660048301526000917f0000000000000000000000000000000000000000000000000000000000000000909116906348b160fa90602401608060405180830381865afa158015610568573d6000803e3d6000fd5b505050506040513d601f19601f8201168201806040525081019061058c91906111cb565b51919050565b600061059c6104dd565b6040516370a0823160e01b815233600482015290915082906001600160a01b038316906370a0823190602401602060405180830381865afa1580156105e5573d6000803e3d6000fd5b505050506040513d601f19601f82011682018060405250810190610609919061124e565b101561062857604051633999656760e01b815260040160405180910390fd5b610631336108cb565b503360009081526001602081905260408220018054849290610654908490611267565b9091555061066f90506001600160a01b038216333085610903565b60405162c30fb560e31b8152336004820152602481018390527f00000000000000000000000000000000000000000000000000000000000000006001600160a01b0316906306187da8906044016104a7565b6000806106cd42610963565b9250505060058111156106f3576040516358672be160e01b815260040160405180910390fd5b600080610709610704426001610982565b610963565b506000828152600360209081526040808320848452909152902054919350915060ff1661075a5760008281526003602081815260408084208585529091528220479181019190915590546001909101555b600082815260036020818152604080842085855290915282206001810154910154610786908890611192565b6107909190611290565b60008481526003602090815260408083208684529091528120600401805492935083929091906107c1908490611267565b90915550506001600160a01b038716600090815260016020526040812060030180548392906107f1908490611267565b90915550506040516001600160a01b0388169082156108fc029083906000818181858888f1935050505015801561082c573d6000803e3d6000fd5b506108378787610a5b565b60405163232911a760e11b81526001600160a01b03888116600483015260248201889052604482018390527f00000000000000000000000000000000000000000000000000000000000000001690634652234e90606401600060405180830381600087803b1580156108a857600080fd5b505af11580156108bc573d6000803e3d6000fd5b50929998505050505050505050565b6000806108d783610325565b90506108e38382610b4a565b6001600160a01b0390921660009081526001602052604090204290555090565b604080516001600160a01b0385811660248301528416604482015260648082018490528251808303909101815260849091019091526020810180516001600160e01b03166323b872dd60e01b17905261095d908590610c55565b50505050565b60008080610975620151808504610cc2565b9196909550909350915050565b600080808061099c6109976201518088611290565b610cc2565b919450925090506000856109b160018561117f565b6109bc86600c611192565b6109c69190611267565b6109d0919061117f565b90506109dd600c82611290565b93506109ea600c826112a4565b6109f5906001611267565b92506000610a038585610d5e565b905080831115610a11578092505b610a1e62015180896112a4565b62015180610a2d878787610de4565b610a379190611192565b610a419190611267565b955087861115610a5057600080fd5b505050505092915050565b6000610a68426001610982565b9050600080610a7683610963565b50600082815260026020908152604080832084845282528083203384529091529020549193509150841115610abe576040516356e16dff60e11b815260040160405180910390fd5b83600080828254610acf919061117f565b9091555050600082815260026020908152604080832084845282528083206001600160a01b038916845290915281208054869290610b0e90849061117f565b90915550506001600160a01b03851660009081526001602052604081206002018054869290610b3e90849061117f565b90915550505050505050565b600080610b5642610963565b50600082815260026020908152604080832084845282528083206001600160a01b038a16845290915281205492945090925003610bca576001600160a01b03841660008181526001602090815260408083206002908101548785529083528184208685528352818420948452939091529020555b82600080828254610bdb9190611267565b9091555050600082815260026020908152604080832084845282528083206001600160a01b038816845290915281208054859290610c1a908490611267565b90915550506001600160a01b03841660009081526001602052604081206002018054859290610c4a908490611267565b909155505050505050565b6000610c6a6001600160a01b03841683610f21565b90508051600014158015610c8f575080806020019051810190610c8d91906111a9565b155b15610cbd57604051635274afe760e01b81526001600160a01b03841660048201526024015b60405180910390fd5b505050565b60008080836226496581018262023ab1600483020590506004600362023ab18302010590910390600062164b09610fa0600185010205905060046105b58202058303601f019250600061098f8460500281610d1f57610d1f61127a565b0590506000605061098f83020585039050600b820560301994909401606402929092018301996002600c90940290910392909201975095509350505050565b60008160011480610d6f5750816003145b80610d7a5750816005145b80610d855750816007145b80610d905750816008145b80610d9b575081600a145b80610da6575081600c145b15610db35750601f61036f565b81600214610dc35750601e61036f565b610dcc83610f36565b610dd757601c610dda565b601d5b60ff169392505050565b60006107b2841015610df557600080fd5b838383600062253d8c60046064600c610e0f600e886112b8565b610e1991906112df565b610e258861132461130d565b610e2f919061130d565b610e3991906112df565b610e44906003611335565b610e4e91906112df565b600c80610e5c600e886112b8565b610e6691906112df565b610e7190600c611335565b610e7c6002886112b8565b610e8691906112b8565b610e929061016f611335565b610e9c91906112df565b6004600c610eab600e896112b8565b610eb591906112df565b610ec1896112c061130d565b610ecb919061130d565b610ed7906105b5611335565b610ee191906112df565b610eed617d4b876112b8565b610ef7919061130d565b610f01919061130d565b610f0b91906112b8565b610f1591906112b8565b98975050505050505050565b6060610f2f83836000610f72565b9392505050565b6000610f436004836112a4565b158015610f595750610f566064836112a4565b15155b8061036f5750610f6b610190836112a4565b1592915050565b606081471015610f975760405163cd78605960e01b8152306004820152602401610cb4565b600080856001600160a01b03168486604051610fb39190611365565b60006040518083038185875af1925050503d8060008114610ff0576040519150601f19603f3d011682016040523d82523d6000602084013e610ff5565b606091505b509150915061100586838361100f565b9695505050505050565b6060826110245761101f8261106b565b610f2f565b815115801561103b57506001600160a01b0384163b155b1561106457604051639996b31560e01b81526001600160a01b0385166004820152602401610cb4565b5080610f2f565b80511561107b5780518082602001fd5b604051630a12f52160e11b815260040160405180910390fd5b50565b6001600160a01b038116811461109457600080fd5b6000602082840312156110be57600080fd5b8135610f2f81611097565b6000602082840312156110db57600080fd5b5035919050565b6000806000606084860312156110f757600080fd5b8335925060208401359150604084013561111081611097565b809150509250925092565b6000806040838503121561112e57600080fd5b50508035926020909101359150565b6000806040838503121561115057600080fd5b823561115b81611097565b946020939093013593505050565b634e487b7160e01b600052601160045260246000fd5b8181038181111561036f5761036f611169565b808202811582820484141761036f5761036f611169565b6000602082840312156111bb57600080fd5b81518015158114610f2f57600080fd5b6000608082840312156111dd57600080fd5b6040516080810181811067ffffffffffffffff8211171561120e57634e487b7160e01b600052604160045260246000fd5b604052825161121c81611097565b8152602083015161122c81611097565b6020820152604083810151908201526060928301519281019290925250919050565b60006020828403121561126057600080fd5b5051919050565b8082018082111561036f5761036f611169565b634e487b7160e01b600052601260045260246000fd5b60008261129f5761129f61127a565b500490565b6000826112b3576112b361127a565b500690565b81810360008312801583831316838312821617156112d8576112d8611169565b5092915050565b6000826112ee576112ee61127a565b600160ff1b82146000198414161561130857611308611169565b500590565b808201828112600083128015821682158216171561132d5761132d611169565b505092915050565b80820260008212600160ff1b8414161561135157611351611169565b818105831482151761036f5761036f611169565b6000825160005b81811015611386576020818601810151858301520161136c565b50600092019182525091905056fea2646970667358221220c6cae1b875621f2f01b96f4565db7bfa8a111cae5d70db8aaaa9869c8d77749b64736f6c63430008150033",
    "linkReferences": {}
  },
  "methodIdentifiers": {
    "OWNER()": "117803e3",
    "PYRA_MARKET()": "474a04d7",
    "claim(address)": "1e83409a",
    "distribute(address,uint256)": "fb932108",
    "getShare()": "75298734",
    "getStakingRewards(address)": "21efe200",
    "monthlyRevenuePoolStatus(uint256,uint256)": "a92ae796",
    "monthlyShareholdersRewards(uint256,uint256,address)": "31852441",
    "shareholdersStatus(address)": "0436f24c",
    "stake(uint256)": "a694fc3a",
    "unstake(uint256)": "2e17de78"
  },
  "id": 2
}